{
	"contracts/DegenToken.sol": {
		"DegenToken": {
			"abi": [
				{
					"inputs": [
						{
							"internalType": "uint256",
							"name": "initialSupply",
							"type": "uint256"
						}
					],
					"stateMutability": "nonpayable",
					"type": "constructor"
				},
				{
					"anonymous": false,
					"inputs": [
						{
							"indexed": true,
							"internalType": "address",
							"name": "owner",
							"type": "address"
						},
						{
							"indexed": true,
							"internalType": "address",
							"name": "spender",
							"type": "address"
						},
						{
							"indexed": false,
							"internalType": "uint256",
							"name": "value",
							"type": "uint256"
						}
					],
					"name": "Approval",
					"type": "event"
				},
				{
					"anonymous": false,
					"inputs": [
						{
							"indexed": true,
							"internalType": "address",
							"name": "buyer",
							"type": "address"
						},
						{
							"indexed": false,
							"internalType": "string",
							"name": "itemName",
							"type": "string"
						},
						{
							"indexed": false,
							"internalType": "uint256",
							"name": "itemPrice",
							"type": "uint256"
						}
					],
					"name": "ItemPurchased",
					"type": "event"
				},
				{
					"anonymous": false,
					"inputs": [
						{
							"indexed": true,
							"internalType": "address",
							"name": "previousOwner",
							"type": "address"
						},
						{
							"indexed": true,
							"internalType": "address",
							"name": "newOwner",
							"type": "address"
						}
					],
					"name": "OwnershipTransferred",
					"type": "event"
				},
				{
					"anonymous": false,
					"inputs": [
						{
							"indexed": true,
							"internalType": "address",
							"name": "from",
							"type": "address"
						},
						{
							"indexed": true,
							"internalType": "address",
							"name": "to",
							"type": "address"
						},
						{
							"indexed": false,
							"internalType": "uint256",
							"name": "value",
							"type": "uint256"
						}
					],
					"name": "Transfer",
					"type": "event"
				},
				{
					"inputs": [
						{
							"internalType": "address",
							"name": "owner",
							"type": "address"
						},
						{
							"internalType": "address",
							"name": "spender",
							"type": "address"
						}
					],
					"name": "allowance",
					"outputs": [
						{
							"internalType": "uint256",
							"name": "",
							"type": "uint256"
						}
					],
					"stateMutability": "view",
					"type": "function"
				},
				{
					"inputs": [
						{
							"internalType": "address",
							"name": "spender",
							"type": "address"
						},
						{
							"internalType": "uint256",
							"name": "amount",
							"type": "uint256"
						}
					],
					"name": "approve",
					"outputs": [
						{
							"internalType": "bool",
							"name": "",
							"type": "bool"
						}
					],
					"stateMutability": "nonpayable",
					"type": "function"
				},
				{
					"inputs": [
						{
							"internalType": "address",
							"name": "account",
							"type": "address"
						}
					],
					"name": "balanceOf",
					"outputs": [
						{
							"internalType": "uint256",
							"name": "",
							"type": "uint256"
						}
					],
					"stateMutability": "view",
					"type": "function"
				},
				{
					"inputs": [
						{
							"internalType": "uint256",
							"name": "amount",
							"type": "uint256"
						}
					],
					"name": "burn",
					"outputs": [],
					"stateMutability": "nonpayable",
					"type": "function"
				},
				{
					"inputs": [
						{
							"internalType": "uint256",
							"name": "itemIndex",
							"type": "uint256"
						}
					],
					"name": "buyItem",
					"outputs": [],
					"stateMutability": "nonpayable",
					"type": "function"
				},
				{
					"inputs": [],
					"name": "decimals",
					"outputs": [
						{
							"internalType": "uint8",
							"name": "",
							"type": "uint8"
						}
					],
					"stateMutability": "view",
					"type": "function"
				},
				{
					"inputs": [
						{
							"internalType": "address",
							"name": "spender",
							"type": "address"
						},
						{
							"internalType": "uint256",
							"name": "subtractedValue",
							"type": "uint256"
						}
					],
					"name": "decreaseAllowance",
					"outputs": [
						{
							"internalType": "bool",
							"name": "",
							"type": "bool"
						}
					],
					"stateMutability": "nonpayable",
					"type": "function"
				},
				{
					"inputs": [
						{
							"internalType": "uint256",
							"name": "index",
							"type": "uint256"
						}
					],
					"name": "getItem",
					"outputs": [
						{
							"internalType": "string",
							"name": "name",
							"type": "string"
						},
						{
							"internalType": "uint256",
							"name": "price",
							"type": "uint256"
						}
					],
					"stateMutability": "view",
					"type": "function"
				},
				{
					"inputs": [
						{
							"internalType": "address",
							"name": "spender",
							"type": "address"
						},
						{
							"internalType": "uint256",
							"name": "addedValue",
							"type": "uint256"
						}
					],
					"name": "increaseAllowance",
					"outputs": [
						{
							"internalType": "bool",
							"name": "",
							"type": "bool"
						}
					],
					"stateMutability": "nonpayable",
					"type": "function"
				},
				{
					"inputs": [
						{
							"internalType": "uint256",
							"name": "",
							"type": "uint256"
						}
					],
					"name": "items",
					"outputs": [
						{
							"internalType": "string",
							"name": "name",
							"type": "string"
						},
						{
							"internalType": "uint256",
							"name": "price",
							"type": "uint256"
						}
					],
					"stateMutability": "view",
					"type": "function"
				},
				{
					"inputs": [
						{
							"internalType": "uint256",
							"name": "amount",
							"type": "uint256"
						}
					],
					"name": "mint",
					"outputs": [],
					"stateMutability": "nonpayable",
					"type": "function"
				},
				{
					"inputs": [],
					"name": "name",
					"outputs": [
						{
							"internalType": "string",
							"name": "",
							"type": "string"
						}
					],
					"stateMutability": "view",
					"type": "function"
				},
				{
					"inputs": [],
					"name": "owner",
					"outputs": [
						{
							"internalType": "address",
							"name": "",
							"type": "address"
						}
					],
					"stateMutability": "view",
					"type": "function"
				},
				{
					"inputs": [],
					"name": "renounceOwnership",
					"outputs": [],
					"stateMutability": "nonpayable",
					"type": "function"
				},
				{
					"inputs": [],
					"name": "symbol",
					"outputs": [
						{
							"internalType": "string",
							"name": "",
							"type": "string"
						}
					],
					"stateMutability": "view",
					"type": "function"
				},
				{
					"inputs": [],
					"name": "totalSupply",
					"outputs": [
						{
							"internalType": "uint256",
							"name": "",
							"type": "uint256"
						}
					],
					"stateMutability": "view",
					"type": "function"
				},
				{
					"inputs": [
						{
							"internalType": "address",
							"name": "to",
							"type": "address"
						},
						{
							"internalType": "uint256",
							"name": "amount",
							"type": "uint256"
						}
					],
					"name": "transfer",
					"outputs": [
						{
							"internalType": "bool",
							"name": "",
							"type": "bool"
						}
					],
					"stateMutability": "nonpayable",
					"type": "function"
				},
				{
					"inputs": [
						{
							"internalType": "address",
							"name": "from",
							"type": "address"
						},
						{
							"internalType": "address",
							"name": "to",
							"type": "address"
						},
						{
							"internalType": "uint256",
							"name": "amount",
							"type": "uint256"
						}
					],
					"name": "transferFrom",
					"outputs": [
						{
							"internalType": "bool",
							"name": "",
							"type": "bool"
						}
					],
					"stateMutability": "nonpayable",
					"type": "function"
				},
				{
					"inputs": [
						{
							"internalType": "address",
							"name": "newOwner",
							"type": "address"
						}
					],
					"name": "transferOwnership",
					"outputs": [],
					"stateMutability": "nonpayable",
					"type": "function"
				}
			],
			"devdoc": {
				"events": {
					"Approval(address,address,uint256)": {
						"details": "Emitted when the allowance of a `spender` for an `owner` is set by a call to {approve}. `value` is the new allowance."
					},
					"Transfer(address,address,uint256)": {
						"details": "Emitted when `value` tokens are moved from one account (`from`) to another (`to`). Note that `value` may be zero."
					}
				},
				"kind": "dev",
				"methods": {
					"allowance(address,address)": {
						"details": "See {IERC20-allowance}."
					},
					"approve(address,uint256)": {
						"details": "See {IERC20-approve}. NOTE: If `amount` is the maximum `uint256`, the allowance is not updated on `transferFrom`. This is semantically equivalent to an infinite approval. Requirements: - `spender` cannot be the zero address."
					},
					"balanceOf(address)": {
						"details": "See {IERC20-balanceOf}."
					},
					"decimals()": {
						"details": "Returns the number of decimals used to get its user representation. For example, if `decimals` equals `2`, a balance of `505` tokens should be displayed to a user as `5.05` (`505 / 10 ** 2`). Tokens usually opt for a value of 18, imitating the relationship between Ether and Wei. This is the default value returned by this function, unless it's overridden. NOTE: This information is only used for _display_ purposes: it in no way affects any of the arithmetic of the contract, including {IERC20-balanceOf} and {IERC20-transfer}."
					},
					"decreaseAllowance(address,uint256)": {
						"details": "Atomically decreases the allowance granted to `spender` by the caller. This is an alternative to {approve} that can be used as a mitigation for problems described in {IERC20-approve}. Emits an {Approval} event indicating the updated allowance. Requirements: - `spender` cannot be the zero address. - `spender` must have allowance for the caller of at least `subtractedValue`."
					},
					"increaseAllowance(address,uint256)": {
						"details": "Atomically increases the allowance granted to `spender` by the caller. This is an alternative to {approve} that can be used as a mitigation for problems described in {IERC20-approve}. Emits an {Approval} event indicating the updated allowance. Requirements: - `spender` cannot be the zero address."
					},
					"name()": {
						"details": "Returns the name of the token."
					},
					"owner()": {
						"details": "Returns the address of the current owner."
					},
					"renounceOwnership()": {
						"details": "Leaves the contract without owner. It will not be possible to call `onlyOwner` functions. Can only be called by the current owner. NOTE: Renouncing ownership will leave the contract without an owner, thereby disabling any functionality that is only available to the owner."
					},
					"symbol()": {
						"details": "Returns the symbol of the token, usually a shorter version of the name."
					},
					"totalSupply()": {
						"details": "See {IERC20-totalSupply}."
					},
					"transfer(address,uint256)": {
						"details": "See {IERC20-transfer}. Requirements: - `to` cannot be the zero address. - the caller must have a balance of at least `amount`."
					},
					"transferFrom(address,address,uint256)": {
						"details": "See {IERC20-transferFrom}. Emits an {Approval} event indicating the updated allowance. This is not required by the EIP. See the note at the beginning of {ERC20}. NOTE: Does not update the allowance if the current allowance is the maximum `uint256`. Requirements: - `from` and `to` cannot be the zero address. - `from` must have a balance of at least `amount`. - the caller must have allowance for ``from``'s tokens of at least `amount`."
					},
					"transferOwnership(address)": {
						"details": "Transfers ownership of the contract to a new account (`newOwner`). Can only be called by the current owner."
					}
				},
				"version": 1
			},
			"evm": {
				"assembly": "    /* \"contracts/DegenToken.sol\":176:1859  contract DegenToken is ERC20, Ownable {... */\n  mstore(0x40, 0x80)\n    /* \"contracts/DegenToken.sol\":400:635  constructor(uint256 initialSupply) ERC20(\"Degen\", \"DGN\") {... */\n  callvalue\n  dup1\n  iszero\n  tag_1\n  jumpi\n  0x00\n  dup1\n  revert\ntag_1:\n  pop\n  mload(0x40)\n  sub(codesize, bytecodeSize)\n  dup1\n  bytecodeSize\n  dup4\n  codecopy\n  dup2\n  dup2\n  add\n  0x40\n  mstore\n  dup2\n  add\n  swap1\n  tag_2\n  swap2\n  swap1\n  tag_3\n  jump\t// in\ntag_2:\n    /* \"@openzeppelin/contracts@4.9/token/ERC20/ERC20.sol\":1980:2093  constructor(string memory name_, string memory symbol_) {... */\n  mload(0x40)\n  dup1\n  0x40\n  add\n  0x40\n  mstore\n  dup1\n  0x05\n  dup2\n  mstore\n  0x20\n  add\n  0x446567656e000000000000000000000000000000000000000000000000000000\n  dup2\n  mstore\n  pop\n  mload(0x40)\n  dup1\n  0x40\n  add\n  0x40\n  mstore\n  dup1\n  0x03\n  dup2\n  mstore\n  0x20\n  add\n  0x44474e0000000000000000000000000000000000000000000000000000000000\n  dup2\n  mstore\n  pop\n    /* \"@openzeppelin/contracts@4.9/token/ERC20/ERC20.sol\":2054:2059  name_ */\n  dup2\n    /* \"@openzeppelin/contracts@4.9/token/ERC20/ERC20.sol\":2046:2051  _name */\n  0x03\n    /* \"@openzeppelin/contracts@4.9/token/ERC20/ERC20.sol\":2046:2059  _name = name_ */\n  swap1\n  dup2\n  tag_8\n  swap2\n  swap1\n  tag_9\n  jump\t// in\ntag_8:\n  pop\n    /* \"@openzeppelin/contracts@4.9/token/ERC20/ERC20.sol\":2079:2086  symbol_ */\n  dup1\n    /* \"@openzeppelin/contracts@4.9/token/ERC20/ERC20.sol\":2069:2076  _symbol */\n  0x04\n    /* \"@openzeppelin/contracts@4.9/token/ERC20/ERC20.sol\":2069:2086  _symbol = symbol_ */\n  swap1\n  dup2\n  tag_10\n  swap2\n  swap1\n  tag_9\n  jump\t// in\ntag_10:\n  pop\n    /* \"@openzeppelin/contracts@4.9/token/ERC20/ERC20.sol\":1980:2093  constructor(string memory name_, string memory symbol_) {... */\n  pop\n  pop\n    /* \"@openzeppelin/contracts@4.9/access/Ownable.sol\":936:968  _transferOwnership(_msgSender()) */\n  tag_12\n    /* \"@openzeppelin/contracts@4.9/access/Ownable.sol\":955:967  _msgSender() */\n  tag_13\n    /* \"@openzeppelin/contracts@4.9/access/Ownable.sol\":955:965  _msgSender */\n  shl(0x20, tag_14)\n    /* \"@openzeppelin/contracts@4.9/access/Ownable.sol\":955:967  _msgSender() */\n  0x20\n  shr\n  jump\t// in\ntag_13:\n    /* \"@openzeppelin/contracts@4.9/access/Ownable.sol\":936:954  _transferOwnership */\n  shl(0x20, tag_15)\n    /* \"@openzeppelin/contracts@4.9/access/Ownable.sol\":936:968  _transferOwnership(_msgSender()) */\n  0x20\n  shr\n  jump\t// in\ntag_12:\n    /* \"contracts/DegenToken.sol\":467:499  _mint(msg.sender, initialSupply) */\n  tag_17\n    /* \"contracts/DegenToken.sol\":473:483  msg.sender */\n  caller\n    /* \"contracts/DegenToken.sol\":485:498  initialSupply */\n  dup3\n    /* \"contracts/DegenToken.sol\":467:472  _mint */\n  shl(0x20, tag_18)\n    /* \"contracts/DegenToken.sol\":467:499  _mint(msg.sender, initialSupply) */\n  0x20\n  shr\n  jump\t// in\ntag_17:\n    /* \"contracts/DegenToken.sol\":510:531  addItem(\"Tshirt\", 20) */\n  tag_19\n  mload(0x40)\n  dup1\n  0x40\n  add\n  0x40\n  mstore\n  dup1\n  0x06\n  dup2\n  mstore\n  0x20\n  add\n  0x5473686972740000000000000000000000000000000000000000000000000000\n  dup2\n  mstore\n  pop\n    /* \"contracts/DegenToken.sol\":528:530  20 */\n  0x14\n    /* \"contracts/DegenToken.sol\":510:517  addItem */\n  shl(0x20, tag_20)\n    /* \"contracts/DegenToken.sol\":510:531  addItem(\"Tshirt\", 20) */\n  0x20\n  shr\n  jump\t// in\ntag_19:\n    /* \"contracts/DegenToken.sol\":552:572  addItem(\"Pants\", 50) */\n  tag_21\n  mload(0x40)\n  dup1\n  0x40\n  add\n  0x40\n  mstore\n  dup1\n  0x05\n  dup2\n  mstore\n  0x20\n  add\n  0x50616e7473000000000000000000000000000000000000000000000000000000\n  dup2\n  mstore\n  pop\n    /* \"contracts/DegenToken.sol\":569:571  50 */\n  0x32\n    /* \"contracts/DegenToken.sol\":552:559  addItem */\n  shl(0x20, tag_20)\n    /* \"contracts/DegenToken.sol\":552:572  addItem(\"Pants\", 50) */\n  0x20\n  shr\n  jump\t// in\ntag_21:\n    /* \"contracts/DegenToken.sol\":593:618  addItem(\"Underwear\", 100) */\n  tag_22\n  mload(0x40)\n  dup1\n  0x40\n  add\n  0x40\n  mstore\n  dup1\n  0x09\n  dup2\n  mstore\n  0x20\n  add\n  0x556e646572776561720000000000000000000000000000000000000000000000\n  dup2\n  mstore\n  pop\n    /* \"contracts/DegenToken.sol\":614:617  100 */\n  0x64\n    /* \"contracts/DegenToken.sol\":593:600  addItem */\n  shl(0x20, tag_20)\n    /* \"contracts/DegenToken.sol\":593:618  addItem(\"Underwear\", 100) */\n  0x20\n  shr\n  jump\t// in\ntag_22:\n    /* \"contracts/DegenToken.sol\":400:635  constructor(uint256 initialSupply) ERC20(\"Degen\", \"DGN\") {... */\n  pop\n    /* \"contracts/DegenToken.sol\":176:1859  contract DegenToken is ERC20, Ownable {... */\n  jump(tag_23)\n    /* \"@openzeppelin/contracts@4.9/utils/Context.sol\":655:751  function _msgSender() internal view virtual returns (address) {... */\ntag_14:\n    /* \"@openzeppelin/contracts@4.9/utils/Context.sol\":708:715  address */\n  0x00\n    /* \"@openzeppelin/contracts@4.9/utils/Context.sol\":734:744  msg.sender */\n  caller\n    /* \"@openzeppelin/contracts@4.9/utils/Context.sol\":727:744  return msg.sender */\n  swap1\n  pop\n    /* \"@openzeppelin/contracts@4.9/utils/Context.sol\":655:751  function _msgSender() internal view virtual returns (address) {... */\n  swap1\n  jump\t// out\n    /* \"@openzeppelin/contracts@4.9/access/Ownable.sol\":2426:2613  function _transferOwnership(address newOwner) internal virtual {... */\ntag_15:\n    /* \"@openzeppelin/contracts@4.9/access/Ownable.sol\":2499:2515  address oldOwner */\n  0x00\n    /* \"@openzeppelin/contracts@4.9/access/Ownable.sol\":2518:2524  _owner */\n  0x05\n  0x00\n  swap1\n  sload\n  swap1\n  0x0100\n  exp\n  swap1\n  div\n  0xffffffffffffffffffffffffffffffffffffffff\n  and\n    /* \"@openzeppelin/contracts@4.9/access/Ownable.sol\":2499:2524  address oldOwner = _owner */\n  swap1\n  pop\n    /* \"@openzeppelin/contracts@4.9/access/Ownable.sol\":2543:2551  newOwner */\n  dup2\n    /* \"@openzeppelin/contracts@4.9/access/Ownable.sol\":2534:2540  _owner */\n  0x05\n  0x00\n    /* \"@openzeppelin/contracts@4.9/access/Ownable.sol\":2534:2551  _owner = newOwner */\n  0x0100\n  exp\n  dup2\n  sload\n  dup2\n  0xffffffffffffffffffffffffffffffffffffffff\n  mul\n  not\n  and\n  swap1\n  dup4\n  0xffffffffffffffffffffffffffffffffffffffff\n  and\n  mul\n  or\n  swap1\n  sstore\n  pop\n    /* \"@openzeppelin/contracts@4.9/access/Ownable.sol\":2597:2605  newOwner */\n  dup2\n    /* \"@openzeppelin/contracts@4.9/access/Ownable.sol\":2566:2606  OwnershipTransferred(oldOwner, newOwner) */\n  0xffffffffffffffffffffffffffffffffffffffff\n  and\n    /* \"@openzeppelin/contracts@4.9/access/Ownable.sol\":2587:2595  oldOwner */\n  dup2\n    /* \"@openzeppelin/contracts@4.9/access/Ownable.sol\":2566:2606  OwnershipTransferred(oldOwner, newOwner) */\n  0xffffffffffffffffffffffffffffffffffffffff\n  and\n  0x8be0079c531659141344cd1fd0a4f28419497f9722a3daafe3b4186f6b6457e0\n  mload(0x40)\n  mload(0x40)\n  dup1\n  swap2\n  sub\n  swap1\n  log3\n    /* \"@openzeppelin/contracts@4.9/access/Ownable.sol\":2489:2613  {... */\n  pop\n    /* \"@openzeppelin/contracts@4.9/access/Ownable.sol\":2426:2613  function _transferOwnership(address newOwner) internal virtual {... */\n  pop\n  jump\t// out\n    /* \"@openzeppelin/contracts@4.9/token/ERC20/ERC20.sol\":8520:9055  function _mint(address account, uint256 amount) internal virtual {... */\ntag_18:\n    /* \"@openzeppelin/contracts@4.9/token/ERC20/ERC20.sol\":8622:8623  0 */\n  0x00\n    /* \"@openzeppelin/contracts@4.9/token/ERC20/ERC20.sol\":8603:8624  account != address(0) */\n  0xffffffffffffffffffffffffffffffffffffffff\n  and\n    /* \"@openzeppelin/contracts@4.9/token/ERC20/ERC20.sol\":8603:8610  account */\n  dup3\n    /* \"@openzeppelin/contracts@4.9/token/ERC20/ERC20.sol\":8603:8624  account != address(0) */\n  0xffffffffffffffffffffffffffffffffffffffff\n  and\n  sub\n    /* \"@openzeppelin/contracts@4.9/token/ERC20/ERC20.sol\":8595:8660  require(account != address(0), \"ERC20: mint to the zero address\") */\n  tag_27\n  jumpi\n  mload(0x40)\n  0x08c379a000000000000000000000000000000000000000000000000000000000\n  dup2\n  mstore\n  0x04\n  add\n  tag_28\n  swap1\n  tag_29\n  jump\t// in\ntag_28:\n  mload(0x40)\n  dup1\n  swap2\n  sub\n  swap1\n  revert\ntag_27:\n    /* \"@openzeppelin/contracts@4.9/token/ERC20/ERC20.sol\":8671:8720  _beforeTokenTransfer(address(0), account, amount) */\n  tag_30\n    /* \"@openzeppelin/contracts@4.9/token/ERC20/ERC20.sol\":8700:8701  0 */\n  0x00\n    /* \"@openzeppelin/contracts@4.9/token/ERC20/ERC20.sol\":8704:8711  account */\n  dup4\n    /* \"@openzeppelin/contracts@4.9/token/ERC20/ERC20.sol\":8713:8719  amount */\n  dup4\n    /* \"@openzeppelin/contracts@4.9/token/ERC20/ERC20.sol\":8671:8691  _beforeTokenTransfer */\n  shl(0x20, tag_31)\n    /* \"@openzeppelin/contracts@4.9/token/ERC20/ERC20.sol\":8671:8720  _beforeTokenTransfer(address(0), account, amount) */\n  0x20\n  shr\n  jump\t// in\ntag_30:\n    /* \"@openzeppelin/contracts@4.9/token/ERC20/ERC20.sol\":8747:8753  amount */\n  dup1\n    /* \"@openzeppelin/contracts@4.9/token/ERC20/ERC20.sol\":8731:8743  _totalSupply */\n  0x02\n  0x00\n    /* \"@openzeppelin/contracts@4.9/token/ERC20/ERC20.sol\":8731:8753  _totalSupply += amount */\n  dup3\n  dup3\n  sload\n  tag_32\n  swap2\n  swap1\n  tag_33\n  jump\t// in\ntag_32:\n  swap3\n  pop\n  pop\n  dup2\n  swap1\n  sstore\n  pop\n    /* \"@openzeppelin/contracts@4.9/token/ERC20/ERC20.sol\":8921:8927  amount */\n  dup1\n    /* \"@openzeppelin/contracts@4.9/token/ERC20/ERC20.sol\":8899:8908  _balances */\n  0x00\n    /* \"@openzeppelin/contracts@4.9/token/ERC20/ERC20.sol\":8899:8917  _balances[account] */\n  dup1\n    /* \"@openzeppelin/contracts@4.9/token/ERC20/ERC20.sol\":8909:8916  account */\n  dup5\n    /* \"@openzeppelin/contracts@4.9/token/ERC20/ERC20.sol\":8899:8917  _balances[account] */\n  0xffffffffffffffffffffffffffffffffffffffff\n  and\n  0xffffffffffffffffffffffffffffffffffffffff\n  and\n  dup2\n  mstore\n  0x20\n  add\n  swap1\n  dup2\n  mstore\n  0x20\n  add\n  0x00\n  keccak256\n  0x00\n    /* \"@openzeppelin/contracts@4.9/token/ERC20/ERC20.sol\":8899:8927  _balances[account] += amount */\n  dup3\n  dup3\n  sload\n  add\n  swap3\n  pop\n  pop\n  dup2\n  swap1\n  sstore\n  pop\n    /* \"@openzeppelin/contracts@4.9/token/ERC20/ERC20.sol\":8973:8980  account */\n  dup2\n    /* \"@openzeppelin/contracts@4.9/token/ERC20/ERC20.sol\":8952:8989  Transfer(address(0), account, amount) */\n  0xffffffffffffffffffffffffffffffffffffffff\n  and\n    /* \"@openzeppelin/contracts@4.9/token/ERC20/ERC20.sol\":8969:8970  0 */\n  0x00\n    /* \"@openzeppelin/contracts@4.9/token/ERC20/ERC20.sol\":8952:8989  Transfer(address(0), account, amount) */\n  0xffffffffffffffffffffffffffffffffffffffff\n  and\n  0xddf252ad1be2c89b69c2b068fc378daa952ba7f163c4a11628f55a4df523b3ef\n    /* \"@openzeppelin/contracts@4.9/token/ERC20/ERC20.sol\":8982:8988  amount */\n  dup4\n    /* \"@openzeppelin/contracts@4.9/token/ERC20/ERC20.sol\":8952:8989  Transfer(address(0), account, amount) */\n  mload(0x40)\n  tag_34\n  swap2\n  swap1\n  tag_35\n  jump\t// in\ntag_34:\n  mload(0x40)\n  dup1\n  swap2\n  sub\n  swap1\n  log3\n    /* \"@openzeppelin/contracts@4.9/token/ERC20/ERC20.sol\":9000:9048  _afterTokenTransfer(address(0), account, amount) */\n  tag_36\n    /* \"@openzeppelin/contracts@4.9/token/ERC20/ERC20.sol\":9028:9029  0 */\n  0x00\n    /* \"@openzeppelin/contracts@4.9/token/ERC20/ERC20.sol\":9032:9039  account */\n  dup4\n    /* \"@openzeppelin/contracts@4.9/token/ERC20/ERC20.sol\":9041:9047  amount */\n  dup4\n    /* \"@openzeppelin/contracts@4.9/token/ERC20/ERC20.sol\":9000:9019  _afterTokenTransfer */\n  shl(0x20, tag_37)\n    /* \"@openzeppelin/contracts@4.9/token/ERC20/ERC20.sol\":9000:9048  _afterTokenTransfer(address(0), account, amount) */\n  0x20\n  shr\n  jump\t// in\ntag_36:\n    /* \"@openzeppelin/contracts@4.9/token/ERC20/ERC20.sol\":8520:9055  function _mint(address account, uint256 amount) internal virtual {... */\n  pop\n  pop\n  jump\t// out\n    /* \"contracts/DegenToken.sol\":641:758  function addItem(string memory name, uint256 price) internal onlyOwner {... */\ntag_20:\n    /* \"@openzeppelin/contracts@4.9/access/Ownable.sol\":1094:1107  _checkOwner() */\n  tag_39\n    /* \"@openzeppelin/contracts@4.9/access/Ownable.sol\":1094:1105  _checkOwner */\n  shl(0x20, tag_40)\n    /* \"@openzeppelin/contracts@4.9/access/Ownable.sol\":1094:1107  _checkOwner() */\n  0x20\n  shr\n  jump\t// in\ntag_39:\n    /* \"contracts/DegenToken.sol\":722:727  items */\n  0x06\n    /* \"contracts/DegenToken.sol\":733:750  Item(name, price) */\n  mload(0x40)\n  dup1\n  0x40\n  add\n  0x40\n  mstore\n  dup1\n    /* \"contracts/DegenToken.sol\":738:742  name */\n  dup5\n    /* \"contracts/DegenToken.sol\":733:750  Item(name, price) */\n  dup2\n  mstore\n  0x20\n  add\n    /* \"contracts/DegenToken.sol\":744:749  price */\n  dup4\n    /* \"contracts/DegenToken.sol\":733:750  Item(name, price) */\n  dup2\n  mstore\n  pop\n    /* \"contracts/DegenToken.sol\":722:751  items.push(Item(name, price)) */\n  swap1\n  dup1\n  0x01\n  dup2\n  sload\n  add\n  dup1\n  dup3\n  sstore\n  dup1\n  swap2\n  pop\n  pop\n  0x01\n  swap1\n  sub\n  swap1\n  0x00\n  mstore\n  keccak256(0x00, 0x20)\n  swap1\n  0x02\n  mul\n  add\n  0x00\n  swap1\n  swap2\n  swap1\n  swap2\n  swap1\n  swap2\n  pop\n  0x00\n  dup3\n  add\n  mload\n  dup2\n  0x00\n  add\n  swap1\n  dup2\n  tag_43\n  swap2\n  swap1\n  tag_9\n  jump\t// in\ntag_43:\n  pop\n  0x20\n  dup3\n  add\n  mload\n  dup2\n  0x01\n  add\n  sstore\n  pop\n  pop\n    /* \"contracts/DegenToken.sol\":641:758  function addItem(string memory name, uint256 price) internal onlyOwner {... */\n  pop\n  pop\n  jump\t// out\n    /* \"@openzeppelin/contracts@4.9/token/ERC20/ERC20.sol\":12073:12164  function _beforeTokenTransfer(address from, address to, uint256 amount) internal virtual {} */\ntag_31:\n  pop\n  pop\n  pop\n  jump\t// out\n    /* \"@openzeppelin/contracts@4.9/token/ERC20/ERC20.sol\":12752:12842  function _afterTokenTransfer(address from, address to, uint256 amount) internal virtual {} */\ntag_37:\n  pop\n  pop\n  pop\n  jump\t// out\n    /* \"@openzeppelin/contracts@4.9/access/Ownable.sol\":1359:1489  function _checkOwner() internal view virtual {... */\ntag_40:\n    /* \"@openzeppelin/contracts@4.9/access/Ownable.sol\":1433:1445  _msgSender() */\n  tag_47\n    /* \"@openzeppelin/contracts@4.9/access/Ownable.sol\":1433:1443  _msgSender */\n  shl(0x20, tag_14)\n    /* \"@openzeppelin/contracts@4.9/access/Ownable.sol\":1433:1445  _msgSender() */\n  0x20\n  shr\n  jump\t// in\ntag_47:\n    /* \"@openzeppelin/contracts@4.9/access/Ownable.sol\":1422:1445  owner() == _msgSender() */\n  0xffffffffffffffffffffffffffffffffffffffff\n  and\n    /* \"@openzeppelin/contracts@4.9/access/Ownable.sol\":1422:1429  owner() */\n  tag_48\n    /* \"@openzeppelin/contracts@4.9/access/Ownable.sol\":1422:1427  owner */\n  shl(0x20, tag_49)\n    /* \"@openzeppelin/contracts@4.9/access/Ownable.sol\":1422:1429  owner() */\n  0x20\n  shr\n  jump\t// in\ntag_48:\n    /* \"@openzeppelin/contracts@4.9/access/Ownable.sol\":1422:1445  owner() == _msgSender() */\n  0xffffffffffffffffffffffffffffffffffffffff\n  and\n  eq\n    /* \"@openzeppelin/contracts@4.9/access/Ownable.sol\":1414:1482  require(owner() == _msgSender(), \"Ownable: caller is not the owner\") */\n  tag_50\n  jumpi\n  mload(0x40)\n  0x08c379a000000000000000000000000000000000000000000000000000000000\n  dup2\n  mstore\n  0x04\n  add\n  tag_51\n  swap1\n  tag_52\n  jump\t// in\ntag_51:\n  mload(0x40)\n  dup1\n  swap2\n  sub\n  swap1\n  revert\ntag_50:\n    /* \"@openzeppelin/contracts@4.9/access/Ownable.sol\":1359:1489  function _checkOwner() internal view virtual {... */\n  jump\t// out\n    /* \"@openzeppelin/contracts@4.9/access/Ownable.sol\":1201:1286  function owner() public view virtual returns (address) {... */\ntag_49:\n    /* \"@openzeppelin/contracts@4.9/access/Ownable.sol\":1247:1254  address */\n  0x00\n    /* \"@openzeppelin/contracts@4.9/access/Ownable.sol\":1273:1279  _owner */\n  0x05\n  0x00\n  swap1\n  sload\n  swap1\n  0x0100\n  exp\n  swap1\n  div\n  0xffffffffffffffffffffffffffffffffffffffff\n  and\n    /* \"@openzeppelin/contracts@4.9/access/Ownable.sol\":1266:1279  return _owner */\n  swap1\n  pop\n    /* \"@openzeppelin/contracts@4.9/access/Ownable.sol\":1201:1286  function owner() public view virtual returns (address) {... */\n  swap1\n  jump\t// out\n    /* \"#utility.yul\":88:205   */\ntag_55:\n    /* \"#utility.yul\":197:198   */\n  0x00\n    /* \"#utility.yul\":194:195   */\n  dup1\n    /* \"#utility.yul\":187:199   */\n  revert\n    /* \"#utility.yul\":334:411   */\ntag_57:\n    /* \"#utility.yul\":371:378   */\n  0x00\n    /* \"#utility.yul\":400:405   */\n  dup2\n    /* \"#utility.yul\":389:405   */\n  swap1\n  pop\n    /* \"#utility.yul\":334:411   */\n  swap2\n  swap1\n  pop\n  jump\t// out\n    /* \"#utility.yul\":417:539   */\ntag_58:\n    /* \"#utility.yul\":490:514   */\n  tag_92\n    /* \"#utility.yul\":508:513   */\n  dup2\n    /* \"#utility.yul\":490:514   */\n  tag_57\n  jump\t// in\ntag_92:\n    /* \"#utility.yul\":483:488   */\n  dup2\n    /* \"#utility.yul\":480:515   */\n  eq\n    /* \"#utility.yul\":470:533   */\n  tag_93\n  jumpi\n    /* \"#utility.yul\":529:530   */\n  0x00\n    /* \"#utility.yul\":526:527   */\n  dup1\n    /* \"#utility.yul\":519:531   */\n  revert\n    /* \"#utility.yul\":470:533   */\ntag_93:\n    /* \"#utility.yul\":417:539   */\n  pop\n  jump\t// out\n    /* \"#utility.yul\":545:688   */\ntag_59:\n    /* \"#utility.yul\":602:607   */\n  0x00\n    /* \"#utility.yul\":633:639   */\n  dup2\n    /* \"#utility.yul\":627:640   */\n  mload\n    /* \"#utility.yul\":618:640   */\n  swap1\n  pop\n    /* \"#utility.yul\":649:682   */\n  tag_95\n    /* \"#utility.yul\":676:681   */\n  dup2\n    /* \"#utility.yul\":649:682   */\n  tag_58\n  jump\t// in\ntag_95:\n    /* \"#utility.yul\":545:688   */\n  swap3\n  swap2\n  pop\n  pop\n  jump\t// out\n    /* \"#utility.yul\":694:1045   */\ntag_3:\n    /* \"#utility.yul\":764:770   */\n  0x00\n    /* \"#utility.yul\":813:815   */\n  0x20\n    /* \"#utility.yul\":801:810   */\n  dup3\n    /* \"#utility.yul\":792:799   */\n  dup5\n    /* \"#utility.yul\":788:811   */\n  sub\n    /* \"#utility.yul\":784:816   */\n  slt\n    /* \"#utility.yul\":781:900   */\n  iszero\n  tag_97\n  jumpi\n    /* \"#utility.yul\":819:898   */\n  tag_98\n  tag_55\n  jump\t// in\ntag_98:\n    /* \"#utility.yul\":781:900   */\ntag_97:\n    /* \"#utility.yul\":939:940   */\n  0x00\n    /* \"#utility.yul\":964:1028   */\n  tag_99\n    /* \"#utility.yul\":1020:1027   */\n  dup5\n    /* \"#utility.yul\":1011:1017   */\n  dup3\n    /* \"#utility.yul\":1000:1009   */\n  dup6\n    /* \"#utility.yul\":996:1018   */\n  add\n    /* \"#utility.yul\":964:1028   */\n  tag_59\n  jump\t// in\ntag_99:\n    /* \"#utility.yul\":954:1028   */\n  swap2\n  pop\n    /* \"#utility.yul\":910:1038   */\n  pop\n    /* \"#utility.yul\":694:1045   */\n  swap3\n  swap2\n  pop\n  pop\n  jump\t// out\n    /* \"#utility.yul\":1051:1150   */\ntag_60:\n    /* \"#utility.yul\":1103:1109   */\n  0x00\n    /* \"#utility.yul\":1137:1142   */\n  dup2\n    /* \"#utility.yul\":1131:1143   */\n  mload\n    /* \"#utility.yul\":1121:1143   */\n  swap1\n  pop\n    /* \"#utility.yul\":1051:1150   */\n  swap2\n  swap1\n  pop\n  jump\t// out\n    /* \"#utility.yul\":1156:1336   */\ntag_61:\n    /* \"#utility.yul\":1204:1281   */\n  0x4e487b7100000000000000000000000000000000000000000000000000000000\n    /* \"#utility.yul\":1201:1202   */\n  0x00\n    /* \"#utility.yul\":1194:1282   */\n  mstore\n    /* \"#utility.yul\":1301:1305   */\n  0x41\n    /* \"#utility.yul\":1298:1299   */\n  0x04\n    /* \"#utility.yul\":1291:1306   */\n  mstore\n    /* \"#utility.yul\":1325:1329   */\n  0x24\n    /* \"#utility.yul\":1322:1323   */\n  0x00\n    /* \"#utility.yul\":1315:1330   */\n  revert\n    /* \"#utility.yul\":1342:1522   */\ntag_62:\n    /* \"#utility.yul\":1390:1467   */\n  0x4e487b7100000000000000000000000000000000000000000000000000000000\n    /* \"#utility.yul\":1387:1388   */\n  0x00\n    /* \"#utility.yul\":1380:1468   */\n  mstore\n    /* \"#utility.yul\":1487:1491   */\n  0x22\n    /* \"#utility.yul\":1484:1485   */\n  0x04\n    /* \"#utility.yul\":1477:1492   */\n  mstore\n    /* \"#utility.yul\":1511:1515   */\n  0x24\n    /* \"#utility.yul\":1508:1509   */\n  0x00\n    /* \"#utility.yul\":1501:1516   */\n  revert\n    /* \"#utility.yul\":1528:1848   */\ntag_63:\n    /* \"#utility.yul\":1572:1578   */\n  0x00\n    /* \"#utility.yul\":1609:1610   */\n  0x02\n    /* \"#utility.yul\":1603:1607   */\n  dup3\n    /* \"#utility.yul\":1599:1611   */\n  div\n    /* \"#utility.yul\":1589:1611   */\n  swap1\n  pop\n    /* \"#utility.yul\":1656:1657   */\n  0x01\n    /* \"#utility.yul\":1650:1654   */\n  dup3\n    /* \"#utility.yul\":1646:1658   */\n  and\n    /* \"#utility.yul\":1677:1695   */\n  dup1\n    /* \"#utility.yul\":1667:1748   */\n  tag_104\n  jumpi\n    /* \"#utility.yul\":1733:1737   */\n  0x7f\n    /* \"#utility.yul\":1725:1731   */\n  dup3\n    /* \"#utility.yul\":1721:1738   */\n  and\n    /* \"#utility.yul\":1711:1738   */\n  swap2\n  pop\n    /* \"#utility.yul\":1667:1748   */\ntag_104:\n    /* \"#utility.yul\":1795:1797   */\n  0x20\n    /* \"#utility.yul\":1787:1793   */\n  dup3\n    /* \"#utility.yul\":1784:1798   */\n  lt\n    /* \"#utility.yul\":1764:1782   */\n  dup2\n    /* \"#utility.yul\":1761:1799   */\n  sub\n    /* \"#utility.yul\":1758:1842   */\n  tag_105\n  jumpi\n    /* \"#utility.yul\":1814:1832   */\n  tag_106\n  tag_62\n  jump\t// in\ntag_106:\n    /* \"#utility.yul\":1758:1842   */\ntag_105:\n    /* \"#utility.yul\":1579:1848   */\n  pop\n    /* \"#utility.yul\":1528:1848   */\n  swap2\n  swap1\n  pop\n  jump\t// out\n    /* \"#utility.yul\":1854:1995   */\ntag_64:\n    /* \"#utility.yul\":1903:1907   */\n  0x00\n    /* \"#utility.yul\":1926:1929   */\n  dup2\n    /* \"#utility.yul\":1918:1929   */\n  swap1\n  pop\n    /* \"#utility.yul\":1949:1952   */\n  dup2\n    /* \"#utility.yul\":1946:1947   */\n  0x00\n    /* \"#utility.yul\":1939:1953   */\n  mstore\n    /* \"#utility.yul\":1983:1987   */\n  0x20\n    /* \"#utility.yul\":1980:1981   */\n  0x00\n    /* \"#utility.yul\":1970:1988   */\n  keccak256\n    /* \"#utility.yul\":1962:1988   */\n  swap1\n  pop\n    /* \"#utility.yul\":1854:1995   */\n  swap2\n  swap1\n  pop\n  jump\t// out\n    /* \"#utility.yul\":2001:2094   */\ntag_65:\n    /* \"#utility.yul\":2038:2044   */\n  0x00\n    /* \"#utility.yul\":2085:2087   */\n  0x20\n    /* \"#utility.yul\":2080:2082   */\n  0x1f\n    /* \"#utility.yul\":2073:2078   */\n  dup4\n    /* \"#utility.yul\":2069:2083   */\n  add\n    /* \"#utility.yul\":2065:2088   */\n  div\n    /* \"#utility.yul\":2055:2088   */\n  swap1\n  pop\n    /* \"#utility.yul\":2001:2094   */\n  swap2\n  swap1\n  pop\n  jump\t// out\n    /* \"#utility.yul\":2100:2207   */\ntag_66:\n    /* \"#utility.yul\":2144:2152   */\n  0x00\n    /* \"#utility.yul\":2194:2199   */\n  dup3\n    /* \"#utility.yul\":2188:2192   */\n  dup3\n    /* \"#utility.yul\":2184:2200   */\n  shl\n    /* \"#utility.yul\":2163:2200   */\n  swap1\n  pop\n    /* \"#utility.yul\":2100:2207   */\n  swap3\n  swap2\n  pop\n  pop\n  jump\t// out\n    /* \"#utility.yul\":2213:2606   */\ntag_67:\n    /* \"#utility.yul\":2282:2288   */\n  0x00\n    /* \"#utility.yul\":2332:2333   */\n  0x08\n    /* \"#utility.yul\":2320:2330   */\n  dup4\n    /* \"#utility.yul\":2316:2334   */\n  mul\n    /* \"#utility.yul\":2355:2452   */\n  tag_111\n    /* \"#utility.yul\":2385:2451   */\n  0xffffffffffffffffffffffffffffffffffffffffffffffffffffffffffffffff\n    /* \"#utility.yul\":2374:2383   */\n  dup3\n    /* \"#utility.yul\":2355:2452   */\n  tag_66\n  jump\t// in\ntag_111:\n    /* \"#utility.yul\":2473:2512   */\n  tag_112\n    /* \"#utility.yul\":2503:2511   */\n  dup7\n    /* \"#utility.yul\":2492:2501   */\n  dup4\n    /* \"#utility.yul\":2473:2512   */\n  tag_66\n  jump\t// in\ntag_112:\n    /* \"#utility.yul\":2461:2512   */\n  swap6\n  pop\n    /* \"#utility.yul\":2545:2549   */\n  dup1\n    /* \"#utility.yul\":2541:2550   */\n  not\n    /* \"#utility.yul\":2534:2539   */\n  dup5\n    /* \"#utility.yul\":2530:2551   */\n  and\n    /* \"#utility.yul\":2521:2551   */\n  swap4\n  pop\n    /* \"#utility.yul\":2594:2598   */\n  dup1\n    /* \"#utility.yul\":2584:2592   */\n  dup7\n    /* \"#utility.yul\":2580:2599   */\n  and\n    /* \"#utility.yul\":2573:2578   */\n  dup5\n    /* \"#utility.yul\":2570:2600   */\n  or\n    /* \"#utility.yul\":2560:2600   */\n  swap3\n  pop\n    /* \"#utility.yul\":2289:2606   */\n  pop\n  pop\n    /* \"#utility.yul\":2213:2606   */\n  swap4\n  swap3\n  pop\n  pop\n  pop\n  jump\t// out\n    /* \"#utility.yul\":2612:2672   */\ntag_68:\n    /* \"#utility.yul\":2640:2643   */\n  0x00\n    /* \"#utility.yul\":2661:2666   */\n  dup2\n    /* \"#utility.yul\":2654:2666   */\n  swap1\n  pop\n    /* \"#utility.yul\":2612:2672   */\n  swap2\n  swap1\n  pop\n  jump\t// out\n    /* \"#utility.yul\":2678:2820   */\ntag_69:\n    /* \"#utility.yul\":2728:2737   */\n  0x00\n    /* \"#utility.yul\":2761:2814   */\n  tag_115\n    /* \"#utility.yul\":2779:2813   */\n  tag_116\n    /* \"#utility.yul\":2788:2812   */\n  tag_117\n    /* \"#utility.yul\":2806:2811   */\n  dup5\n    /* \"#utility.yul\":2788:2812   */\n  tag_57\n  jump\t// in\ntag_117:\n    /* \"#utility.yul\":2779:2813   */\n  tag_68\n  jump\t// in\ntag_116:\n    /* \"#utility.yul\":2761:2814   */\n  tag_57\n  jump\t// in\ntag_115:\n    /* \"#utility.yul\":2748:2814   */\n  swap1\n  pop\n    /* \"#utility.yul\":2678:2820   */\n  swap2\n  swap1\n  pop\n  jump\t// out\n    /* \"#utility.yul\":2826:2901   */\ntag_70:\n    /* \"#utility.yul\":2869:2872   */\n  0x00\n    /* \"#utility.yul\":2890:2895   */\n  dup2\n    /* \"#utility.yul\":2883:2895   */\n  swap1\n  pop\n    /* \"#utility.yul\":2826:2901   */\n  swap2\n  swap1\n  pop\n  jump\t// out\n    /* \"#utility.yul\":2907:3176   */\ntag_71:\n    /* \"#utility.yul\":3017:3056   */\n  tag_120\n    /* \"#utility.yul\":3048:3055   */\n  dup4\n    /* \"#utility.yul\":3017:3056   */\n  tag_69\n  jump\t// in\ntag_120:\n    /* \"#utility.yul\":3078:3169   */\n  tag_121\n    /* \"#utility.yul\":3127:3168   */\n  tag_122\n    /* \"#utility.yul\":3151:3167   */\n  dup3\n    /* \"#utility.yul\":3127:3168   */\n  tag_70\n  jump\t// in\ntag_122:\n    /* \"#utility.yul\":3119:3125   */\n  dup5\n    /* \"#utility.yul\":3112:3116   */\n  dup5\n    /* \"#utility.yul\":3106:3117   */\n  sload\n    /* \"#utility.yul\":3078:3169   */\n  tag_67\n  jump\t// in\ntag_121:\n    /* \"#utility.yul\":3072:3076   */\n  dup3\n    /* \"#utility.yul\":3065:3170   */\n  sstore\n    /* \"#utility.yul\":2983:3176   */\n  pop\n    /* \"#utility.yul\":2907:3176   */\n  pop\n  pop\n  pop\n  jump\t// out\n    /* \"#utility.yul\":3182:3255   */\ntag_72:\n    /* \"#utility.yul\":3227:3230   */\n  0x00\n    /* \"#utility.yul\":3182:3255   */\n  swap1\n  jump\t// out\n    /* \"#utility.yul\":3261:3450   */\ntag_73:\n    /* \"#utility.yul\":3338:3370   */\n  tag_125\n  tag_72\n  jump\t// in\ntag_125:\n    /* \"#utility.yul\":3379:3444   */\n  tag_126\n    /* \"#utility.yul\":3437:3443   */\n  dup2\n    /* \"#utility.yul\":3429:3435   */\n  dup5\n    /* \"#utility.yul\":3423:3427   */\n  dup5\n    /* \"#utility.yul\":3379:3444   */\n  tag_71\n  jump\t// in\ntag_126:\n    /* \"#utility.yul\":3314:3450   */\n  pop\n    /* \"#utility.yul\":3261:3450   */\n  pop\n  pop\n  jump\t// out\n    /* \"#utility.yul\":3456:3642   */\ntag_74:\n    /* \"#utility.yul\":3516:3636   */\ntag_128:\n    /* \"#utility.yul\":3533:3536   */\n  dup2\n    /* \"#utility.yul\":3526:3531   */\n  dup2\n    /* \"#utility.yul\":3523:3537   */\n  lt\n    /* \"#utility.yul\":3516:3636   */\n  iszero\n  tag_130\n  jumpi\n    /* \"#utility.yul\":3587:3626   */\n  tag_131\n    /* \"#utility.yul\":3624:3625   */\n  0x00\n    /* \"#utility.yul\":3617:3622   */\n  dup3\n    /* \"#utility.yul\":3587:3626   */\n  tag_73\n  jump\t// in\ntag_131:\n    /* \"#utility.yul\":3560:3561   */\n  0x01\n    /* \"#utility.yul\":3553:3558   */\n  dup2\n    /* \"#utility.yul\":3549:3562   */\n  add\n    /* \"#utility.yul\":3540:3562   */\n  swap1\n  pop\n    /* \"#utility.yul\":3516:3636   */\n  jump(tag_128)\ntag_130:\n    /* \"#utility.yul\":3456:3642   */\n  pop\n  pop\n  jump\t// out\n    /* \"#utility.yul\":3648:4191   */\ntag_75:\n    /* \"#utility.yul\":3749:3751   */\n  0x1f\n    /* \"#utility.yul\":3744:3747   */\n  dup3\n    /* \"#utility.yul\":3741:3752   */\n  gt\n    /* \"#utility.yul\":3738:4184   */\n  iszero\n  tag_133\n  jumpi\n    /* \"#utility.yul\":3783:3821   */\n  tag_134\n    /* \"#utility.yul\":3815:3820   */\n  dup2\n    /* \"#utility.yul\":3783:3821   */\n  tag_64\n  jump\t// in\ntag_134:\n    /* \"#utility.yul\":3867:3896   */\n  tag_135\n    /* \"#utility.yul\":3885:3895   */\n  dup5\n    /* \"#utility.yul\":3867:3896   */\n  tag_65\n  jump\t// in\ntag_135:\n    /* \"#utility.yul\":3857:3865   */\n  dup2\n    /* \"#utility.yul\":3853:3897   */\n  add\n    /* \"#utility.yul\":4050:4052   */\n  0x20\n    /* \"#utility.yul\":4038:4048   */\n  dup6\n    /* \"#utility.yul\":4035:4053   */\n  lt\n    /* \"#utility.yul\":4032:4081   */\n  iszero\n  tag_136\n  jumpi\n    /* \"#utility.yul\":4071:4079   */\n  dup2\n    /* \"#utility.yul\":4056:4079   */\n  swap1\n  pop\n    /* \"#utility.yul\":4032:4081   */\ntag_136:\n    /* \"#utility.yul\":4094:4174   */\n  tag_137\n    /* \"#utility.yul\":4150:4172   */\n  tag_138\n    /* \"#utility.yul\":4168:4171   */\n  dup6\n    /* \"#utility.yul\":4150:4172   */\n  tag_65\n  jump\t// in\ntag_138:\n    /* \"#utility.yul\":4140:4148   */\n  dup4\n    /* \"#utility.yul\":4136:4173   */\n  add\n    /* \"#utility.yul\":4123:4134   */\n  dup3\n    /* \"#utility.yul\":4094:4174   */\n  tag_74\n  jump\t// in\ntag_137:\n    /* \"#utility.yul\":3753:4184   */\n  pop\n  pop\n    /* \"#utility.yul\":3738:4184   */\ntag_133:\n    /* \"#utility.yul\":3648:4191   */\n  pop\n  pop\n  pop\n  jump\t// out\n    /* \"#utility.yul\":4197:4314   */\ntag_76:\n    /* \"#utility.yul\":4251:4259   */\n  0x00\n    /* \"#utility.yul\":4301:4306   */\n  dup3\n    /* \"#utility.yul\":4295:4299   */\n  dup3\n    /* \"#utility.yul\":4291:4307   */\n  shr\n    /* \"#utility.yul\":4270:4307   */\n  swap1\n  pop\n    /* \"#utility.yul\":4197:4314   */\n  swap3\n  swap2\n  pop\n  pop\n  jump\t// out\n    /* \"#utility.yul\":4320:4489   */\ntag_77:\n    /* \"#utility.yul\":4364:4370   */\n  0x00\n    /* \"#utility.yul\":4397:4448   */\n  tag_141\n    /* \"#utility.yul\":4445:4446   */\n  0x00\n    /* \"#utility.yul\":4441:4447   */\n  not\n    /* \"#utility.yul\":4433:4438   */\n  dup5\n    /* \"#utility.yul\":4430:4431   */\n  0x08\n    /* \"#utility.yul\":4426:4439   */\n  mul\n    /* \"#utility.yul\":4397:4448   */\n  tag_76\n  jump\t// in\ntag_141:\n    /* \"#utility.yul\":4393:4449   */\n  not\n    /* \"#utility.yul\":4478:4482   */\n  dup1\n    /* \"#utility.yul\":4472:4476   */\n  dup4\n    /* \"#utility.yul\":4468:4483   */\n  and\n    /* \"#utility.yul\":4458:4483   */\n  swap2\n  pop\n    /* \"#utility.yul\":4371:4489   */\n  pop\n    /* \"#utility.yul\":4320:4489   */\n  swap3\n  swap2\n  pop\n  pop\n  jump\t// out\n    /* \"#utility.yul\":4494:4789   */\ntag_78:\n    /* \"#utility.yul\":4570:4574   */\n  0x00\n    /* \"#utility.yul\":4716:4745   */\n  tag_143\n    /* \"#utility.yul\":4741:4744   */\n  dup4\n    /* \"#utility.yul\":4735:4739   */\n  dup4\n    /* \"#utility.yul\":4716:4745   */\n  tag_77\n  jump\t// in\ntag_143:\n    /* \"#utility.yul\":4708:4745   */\n  swap2\n  pop\n    /* \"#utility.yul\":4778:4781   */\n  dup3\n    /* \"#utility.yul\":4775:4776   */\n  0x02\n    /* \"#utility.yul\":4771:4782   */\n  mul\n    /* \"#utility.yul\":4765:4769   */\n  dup3\n    /* \"#utility.yul\":4762:4783   */\n  or\n    /* \"#utility.yul\":4754:4783   */\n  swap1\n  pop\n    /* \"#utility.yul\":4494:4789   */\n  swap3\n  swap2\n  pop\n  pop\n  jump\t// out\n    /* \"#utility.yul\":4794:6189   */\ntag_9:\n    /* \"#utility.yul\":4911:4948   */\n  tag_145\n    /* \"#utility.yul\":4944:4947   */\n  dup3\n    /* \"#utility.yul\":4911:4948   */\n  tag_60\n  jump\t// in\ntag_145:\n    /* \"#utility.yul\":5013:5031   */\n  0xffffffffffffffff\n    /* \"#utility.yul\":5005:5011   */\n  dup2\n    /* \"#utility.yul\":5002:5032   */\n  gt\n    /* \"#utility.yul\":4999:5055   */\n  iszero\n  tag_146\n  jumpi\n    /* \"#utility.yul\":5035:5053   */\n  tag_147\n  tag_61\n  jump\t// in\ntag_147:\n    /* \"#utility.yul\":4999:5055   */\ntag_146:\n    /* \"#utility.yul\":5079:5117   */\n  tag_148\n    /* \"#utility.yul\":5111:5115   */\n  dup3\n    /* \"#utility.yul\":5105:5116   */\n  sload\n    /* \"#utility.yul\":5079:5117   */\n  tag_63\n  jump\t// in\ntag_148:\n    /* \"#utility.yul\":5164:5231   */\n  tag_149\n    /* \"#utility.yul\":5224:5230   */\n  dup3\n    /* \"#utility.yul\":5216:5222   */\n  dup3\n    /* \"#utility.yul\":5210:5214   */\n  dup6\n    /* \"#utility.yul\":5164:5231   */\n  tag_75\n  jump\t// in\ntag_149:\n    /* \"#utility.yul\":5258:5259   */\n  0x00\n    /* \"#utility.yul\":5282:5286   */\n  0x20\n    /* \"#utility.yul\":5269:5286   */\n  swap1\n  pop\n    /* \"#utility.yul\":5314:5316   */\n  0x1f\n    /* \"#utility.yul\":5306:5312   */\n  dup4\n    /* \"#utility.yul\":5303:5317   */\n  gt\n    /* \"#utility.yul\":5331:5332   */\n  0x01\n    /* \"#utility.yul\":5326:5944   */\n  dup2\n  eq\n  tag_151\n  jumpi\n    /* \"#utility.yul\":5988:5989   */\n  0x00\n    /* \"#utility.yul\":6005:6011   */\n  dup5\n    /* \"#utility.yul\":6002:6079   */\n  iszero\n  tag_152\n  jumpi\n    /* \"#utility.yul\":6054:6063   */\n  dup3\n    /* \"#utility.yul\":6049:6052   */\n  dup8\n    /* \"#utility.yul\":6045:6064   */\n  add\n    /* \"#utility.yul\":6039:6065   */\n  mload\n    /* \"#utility.yul\":6030:6065   */\n  swap1\n  pop\n    /* \"#utility.yul\":6002:6079   */\ntag_152:\n    /* \"#utility.yul\":6105:6172   */\n  tag_153\n    /* \"#utility.yul\":6165:6171   */\n  dup6\n    /* \"#utility.yul\":6158:6163   */\n  dup3\n    /* \"#utility.yul\":6105:6172   */\n  tag_78\n  jump\t// in\ntag_153:\n    /* \"#utility.yul\":6099:6103   */\n  dup7\n    /* \"#utility.yul\":6092:6173   */\n  sstore\n    /* \"#utility.yul\":5961:6183   */\n  pop\n    /* \"#utility.yul\":5296:6183   */\n  jump(tag_150)\n    /* \"#utility.yul\":5326:5944   */\ntag_151:\n    /* \"#utility.yul\":5378:5382   */\n  0x1f\n    /* \"#utility.yul\":5374:5383   */\n  not\n    /* \"#utility.yul\":5366:5372   */\n  dup5\n    /* \"#utility.yul\":5362:5384   */\n  and\n    /* \"#utility.yul\":5412:5449   */\n  tag_154\n    /* \"#utility.yul\":5444:5448   */\n  dup7\n    /* \"#utility.yul\":5412:5449   */\n  tag_64\n  jump\t// in\ntag_154:\n    /* \"#utility.yul\":5471:5472   */\n  0x00\n    /* \"#utility.yul\":5485:5693   */\ntag_155:\n    /* \"#utility.yul\":5499:5506   */\n  dup3\n    /* \"#utility.yul\":5496:5497   */\n  dup2\n    /* \"#utility.yul\":5493:5507   */\n  lt\n    /* \"#utility.yul\":5485:5693   */\n  iszero\n  tag_157\n  jumpi\n    /* \"#utility.yul\":5578:5587   */\n  dup5\n    /* \"#utility.yul\":5573:5576   */\n  dup10\n    /* \"#utility.yul\":5569:5588   */\n  add\n    /* \"#utility.yul\":5563:5589   */\n  mload\n    /* \"#utility.yul\":5555:5561   */\n  dup3\n    /* \"#utility.yul\":5548:5590   */\n  sstore\n    /* \"#utility.yul\":5629:5630   */\n  0x01\n    /* \"#utility.yul\":5621:5627   */\n  dup3\n    /* \"#utility.yul\":5617:5631   */\n  add\n    /* \"#utility.yul\":5607:5631   */\n  swap2\n  pop\n    /* \"#utility.yul\":5676:5678   */\n  0x20\n    /* \"#utility.yul\":5665:5674   */\n  dup6\n    /* \"#utility.yul\":5661:5679   */\n  add\n    /* \"#utility.yul\":5648:5679   */\n  swap5\n  pop\n    /* \"#utility.yul\":5522:5526   */\n  0x20\n    /* \"#utility.yul\":5519:5520   */\n  dup2\n    /* \"#utility.yul\":5515:5527   */\n  add\n    /* \"#utility.yul\":5510:5527   */\n  swap1\n  pop\n    /* \"#utility.yul\":5485:5693   */\n  jump(tag_155)\ntag_157:\n    /* \"#utility.yul\":5721:5727   */\n  dup7\n    /* \"#utility.yul\":5712:5719   */\n  dup4\n    /* \"#utility.yul\":5709:5728   */\n  lt\n    /* \"#utility.yul\":5706:5885   */\n  iszero\n  tag_158\n  jumpi\n    /* \"#utility.yul\":5779:5788   */\n  dup5\n    /* \"#utility.yul\":5774:5777   */\n  dup10\n    /* \"#utility.yul\":5770:5789   */\n  add\n    /* \"#utility.yul\":5764:5790   */\n  mload\n    /* \"#utility.yul\":5822:5870   */\n  tag_159\n    /* \"#utility.yul\":5864:5868   */\n  0x1f\n    /* \"#utility.yul\":5856:5862   */\n  dup10\n    /* \"#utility.yul\":5852:5869   */\n  and\n    /* \"#utility.yul\":5841:5850   */\n  dup3\n    /* \"#utility.yul\":5822:5870   */\n  tag_77\n  jump\t// in\ntag_159:\n    /* \"#utility.yul\":5814:5820   */\n  dup4\n    /* \"#utility.yul\":5807:5871   */\n  sstore\n    /* \"#utility.yul\":5729:5885   */\n  pop\n    /* \"#utility.yul\":5706:5885   */\ntag_158:\n    /* \"#utility.yul\":5931:5932   */\n  0x01\n    /* \"#utility.yul\":5927:5928   */\n  0x02\n    /* \"#utility.yul\":5919:5925   */\n  dup9\n    /* \"#utility.yul\":5915:5929   */\n  mul\n    /* \"#utility.yul\":5911:5933   */\n  add\n    /* \"#utility.yul\":5905:5909   */\n  dup9\n    /* \"#utility.yul\":5898:5934   */\n  sstore\n    /* \"#utility.yul\":5333:5944   */\n  pop\n  pop\n  pop\n    /* \"#utility.yul\":5296:6183   */\ntag_150:\n  pop\n    /* \"#utility.yul\":4886:6189   */\n  pop\n  pop\n  pop\n    /* \"#utility.yul\":4794:6189   */\n  pop\n  pop\n  jump\t// out\n    /* \"#utility.yul\":6195:6364   */\ntag_79:\n    /* \"#utility.yul\":6279:6290   */\n  0x00\n    /* \"#utility.yul\":6313:6319   */\n  dup3\n    /* \"#utility.yul\":6308:6311   */\n  dup3\n    /* \"#utility.yul\":6301:6320   */\n  mstore\n    /* \"#utility.yul\":6353:6357   */\n  0x20\n    /* \"#utility.yul\":6348:6351   */\n  dup3\n    /* \"#utility.yul\":6344:6358   */\n  add\n    /* \"#utility.yul\":6329:6358   */\n  swap1\n  pop\n    /* \"#utility.yul\":6195:6364   */\n  swap3\n  swap2\n  pop\n  pop\n  jump\t// out\n    /* \"#utility.yul\":6370:6551   */\ntag_80:\n    /* \"#utility.yul\":6510:6543   */\n  0x45524332303a206d696e7420746f20746865207a65726f206164647265737300\n    /* \"#utility.yul\":6506:6507   */\n  0x00\n    /* \"#utility.yul\":6498:6504   */\n  dup3\n    /* \"#utility.yul\":6494:6508   */\n  add\n    /* \"#utility.yul\":6487:6544   */\n  mstore\n    /* \"#utility.yul\":6370:6551   */\n  pop\n  jump\t// out\n    /* \"#utility.yul\":6557:6923   */\ntag_81:\n    /* \"#utility.yul\":6699:6702   */\n  0x00\n    /* \"#utility.yul\":6720:6787   */\n  tag_163\n    /* \"#utility.yul\":6784:6786   */\n  0x1f\n    /* \"#utility.yul\":6779:6782   */\n  dup4\n    /* \"#utility.yul\":6720:6787   */\n  tag_79\n  jump\t// in\ntag_163:\n    /* \"#utility.yul\":6713:6787   */\n  swap2\n  pop\n    /* \"#utility.yul\":6796:6889   */\n  tag_164\n    /* \"#utility.yul\":6885:6888   */\n  dup3\n    /* \"#utility.yul\":6796:6889   */\n  tag_80\n  jump\t// in\ntag_164:\n    /* \"#utility.yul\":6914:6916   */\n  0x20\n    /* \"#utility.yul\":6909:6912   */\n  dup3\n    /* \"#utility.yul\":6905:6917   */\n  add\n    /* \"#utility.yul\":6898:6917   */\n  swap1\n  pop\n    /* \"#utility.yul\":6557:6923   */\n  swap2\n  swap1\n  pop\n  jump\t// out\n    /* \"#utility.yul\":6929:7348   */\ntag_29:\n    /* \"#utility.yul\":7095:7099   */\n  0x00\n    /* \"#utility.yul\":7133:7135   */\n  0x20\n    /* \"#utility.yul\":7122:7131   */\n  dup3\n    /* \"#utility.yul\":7118:7136   */\n  add\n    /* \"#utility.yul\":7110:7136   */\n  swap1\n  pop\n    /* \"#utility.yul\":7182:7191   */\n  dup2\n    /* \"#utility.yul\":7176:7180   */\n  dup2\n    /* \"#utility.yul\":7172:7192   */\n  sub\n    /* \"#utility.yul\":7168:7169   */\n  0x00\n    /* \"#utility.yul\":7157:7166   */\n  dup4\n    /* \"#utility.yul\":7153:7170   */\n  add\n    /* \"#utility.yul\":7146:7193   */\n  mstore\n    /* \"#utility.yul\":7210:7341   */\n  tag_166\n    /* \"#utility.yul\":7336:7340   */\n  dup2\n    /* \"#utility.yul\":7210:7341   */\n  tag_81\n  jump\t// in\ntag_166:\n    /* \"#utility.yul\":7202:7341   */\n  swap1\n  pop\n    /* \"#utility.yul\":6929:7348   */\n  swap2\n  swap1\n  pop\n  jump\t// out\n    /* \"#utility.yul\":7354:7534   */\ntag_82:\n    /* \"#utility.yul\":7402:7479   */\n  0x4e487b7100000000000000000000000000000000000000000000000000000000\n    /* \"#utility.yul\":7399:7400   */\n  0x00\n    /* \"#utility.yul\":7392:7480   */\n  mstore\n    /* \"#utility.yul\":7499:7503   */\n  0x11\n    /* \"#utility.yul\":7496:7497   */\n  0x04\n    /* \"#utility.yul\":7489:7504   */\n  mstore\n    /* \"#utility.yul\":7523:7527   */\n  0x24\n    /* \"#utility.yul\":7520:7521   */\n  0x00\n    /* \"#utility.yul\":7513:7528   */\n  revert\n    /* \"#utility.yul\":7540:7731   */\ntag_33:\n    /* \"#utility.yul\":7580:7583   */\n  0x00\n    /* \"#utility.yul\":7599:7619   */\n  tag_169\n    /* \"#utility.yul\":7617:7618   */\n  dup3\n    /* \"#utility.yul\":7599:7619   */\n  tag_57\n  jump\t// in\ntag_169:\n    /* \"#utility.yul\":7594:7619   */\n  swap2\n  pop\n    /* \"#utility.yul\":7633:7653   */\n  tag_170\n    /* \"#utility.yul\":7651:7652   */\n  dup4\n    /* \"#utility.yul\":7633:7653   */\n  tag_57\n  jump\t// in\ntag_170:\n    /* \"#utility.yul\":7628:7653   */\n  swap3\n  pop\n    /* \"#utility.yul\":7676:7677   */\n  dup3\n    /* \"#utility.yul\":7673:7674   */\n  dup3\n    /* \"#utility.yul\":7669:7678   */\n  add\n    /* \"#utility.yul\":7662:7678   */\n  swap1\n  pop\n    /* \"#utility.yul\":7697:7700   */\n  dup1\n    /* \"#utility.yul\":7694:7695   */\n  dup3\n    /* \"#utility.yul\":7691:7701   */\n  gt\n    /* \"#utility.yul\":7688:7724   */\n  iszero\n  tag_171\n  jumpi\n    /* \"#utility.yul\":7704:7722   */\n  tag_172\n  tag_82\n  jump\t// in\ntag_172:\n    /* \"#utility.yul\":7688:7724   */\ntag_171:\n    /* \"#utility.yul\":7540:7731   */\n  swap3\n  swap2\n  pop\n  pop\n  jump\t// out\n    /* \"#utility.yul\":7737:7855   */\ntag_83:\n    /* \"#utility.yul\":7824:7848   */\n  tag_174\n    /* \"#utility.yul\":7842:7847   */\n  dup2\n    /* \"#utility.yul\":7824:7848   */\n  tag_57\n  jump\t// in\ntag_174:\n    /* \"#utility.yul\":7819:7822   */\n  dup3\n    /* \"#utility.yul\":7812:7849   */\n  mstore\n    /* \"#utility.yul\":7737:7855   */\n  pop\n  pop\n  jump\t// out\n    /* \"#utility.yul\":7861:8083   */\ntag_35:\n    /* \"#utility.yul\":7954:7958   */\n  0x00\n    /* \"#utility.yul\":7992:7994   */\n  0x20\n    /* \"#utility.yul\":7981:7990   */\n  dup3\n    /* \"#utility.yul\":7977:7995   */\n  add\n    /* \"#utility.yul\":7969:7995   */\n  swap1\n  pop\n    /* \"#utility.yul\":8005:8076   */\n  tag_176\n    /* \"#utility.yul\":8073:8074   */\n  0x00\n    /* \"#utility.yul\":8062:8071   */\n  dup4\n    /* \"#utility.yul\":8058:8075   */\n  add\n    /* \"#utility.yul\":8049:8055   */\n  dup5\n    /* \"#utility.yul\":8005:8076   */\n  tag_83\n  jump\t// in\ntag_176:\n    /* \"#utility.yul\":7861:8083   */\n  swap3\n  swap2\n  pop\n  pop\n  jump\t// out\n    /* \"#utility.yul\":8089:8271   */\ntag_84:\n    /* \"#utility.yul\":8229:8263   */\n  0x4f776e61626c653a2063616c6c6572206973206e6f7420746865206f776e6572\n    /* \"#utility.yul\":8225:8226   */\n  0x00\n    /* \"#utility.yul\":8217:8223   */\n  dup3\n    /* \"#utility.yul\":8213:8227   */\n  add\n    /* \"#utility.yul\":8206:8264   */\n  mstore\n    /* \"#utility.yul\":8089:8271   */\n  pop\n  jump\t// out\n    /* \"#utility.yul\":8277:8643   */\ntag_85:\n    /* \"#utility.yul\":8419:8422   */\n  0x00\n    /* \"#utility.yul\":8440:8507   */\n  tag_179\n    /* \"#utility.yul\":8504:8506   */\n  0x20\n    /* \"#utility.yul\":8499:8502   */\n  dup4\n    /* \"#utility.yul\":8440:8507   */\n  tag_79\n  jump\t// in\ntag_179:\n    /* \"#utility.yul\":8433:8507   */\n  swap2\n  pop\n    /* \"#utility.yul\":8516:8609   */\n  tag_180\n    /* \"#utility.yul\":8605:8608   */\n  dup3\n    /* \"#utility.yul\":8516:8609   */\n  tag_84\n  jump\t// in\ntag_180:\n    /* \"#utility.yul\":8634:8636   */\n  0x20\n    /* \"#utility.yul\":8629:8632   */\n  dup3\n    /* \"#utility.yul\":8625:8637   */\n  add\n    /* \"#utility.yul\":8618:8637   */\n  swap1\n  pop\n    /* \"#utility.yul\":8277:8643   */\n  swap2\n  swap1\n  pop\n  jump\t// out\n    /* \"#utility.yul\":8649:9068   */\ntag_52:\n    /* \"#utility.yul\":8815:8819   */\n  0x00\n    /* \"#utility.yul\":8853:8855   */\n  0x20\n    /* \"#utility.yul\":8842:8851   */\n  dup3\n    /* \"#utility.yul\":8838:8856   */\n  add\n    /* \"#utility.yul\":8830:8856   */\n  swap1\n  pop\n    /* \"#utility.yul\":8902:8911   */\n  dup2\n    /* \"#utility.yul\":8896:8900   */\n  dup2\n    /* \"#utility.yul\":8892:8912   */\n  sub\n    /* \"#utility.yul\":8888:8889   */\n  0x00\n    /* \"#utility.yul\":8877:8886   */\n  dup4\n    /* \"#utility.yul\":8873:8890   */\n  add\n    /* \"#utility.yul\":8866:8913   */\n  mstore\n    /* \"#utility.yul\":8930:9061   */\n  tag_182\n    /* \"#utility.yul\":9056:9060   */\n  dup2\n    /* \"#utility.yul\":8930:9061   */\n  tag_85\n  jump\t// in\ntag_182:\n    /* \"#utility.yul\":8922:9061   */\n  swap1\n  pop\n    /* \"#utility.yul\":8649:9068   */\n  swap2\n  swap1\n  pop\n  jump\t// out\n    /* \"contracts/DegenToken.sol\":176:1859  contract DegenToken is ERC20, Ownable {... */\ntag_23:\n  dataSize(sub_0)\n  dup1\n  dataOffset(sub_0)\n  0x00\n  codecopy\n  0x00\n  return\nstop\n\nsub_0: assembly {\n        /* \"contracts/DegenToken.sol\":176:1859  contract DegenToken is ERC20, Ownable {... */\n      mstore(0x40, 0x80)\n      callvalue\n      dup1\n      iszero\n      tag_1\n      jumpi\n      0x00\n      dup1\n      revert\n    tag_1:\n      pop\n      jumpi(tag_2, lt(calldatasize, 0x04))\n      shr(0xe0, calldataload(0x00))\n      dup1\n      0x715018a6\n      gt\n      tag_22\n      jumpi\n      dup1\n      0xa9059cbb\n      gt\n      tag_23\n      jumpi\n      dup1\n      0xa9059cbb\n      eq\n      tag_17\n      jumpi\n      dup1\n      0xbfb231d2\n      eq\n      tag_18\n      jumpi\n      dup1\n      0xdd62ed3e\n      eq\n      tag_19\n      jumpi\n      dup1\n      0xe7fb74c7\n      eq\n      tag_20\n      jumpi\n      dup1\n      0xf2fde38b\n      eq\n      tag_21\n      jumpi\n      jump(tag_2)\n    tag_23:\n      dup1\n      0x715018a6\n      eq\n      tag_12\n      jumpi\n      dup1\n      0x8da5cb5b\n      eq\n      tag_13\n      jumpi\n      dup1\n      0x95d89b41\n      eq\n      tag_14\n      jumpi\n      dup1\n      0xa0712d68\n      eq\n      tag_15\n      jumpi\n      dup1\n      0xa457c2d7\n      eq\n      tag_16\n      jumpi\n      jump(tag_2)\n    tag_22:\n      dup1\n      0x3129e773\n      gt\n      tag_24\n      jumpi\n      dup1\n      0x3129e773\n      eq\n      tag_7\n      jumpi\n      dup1\n      0x313ce567\n      eq\n      tag_8\n      jumpi\n      dup1\n      0x39509351\n      eq\n      tag_9\n      jumpi\n      dup1\n      0x42966c68\n      eq\n      tag_10\n      jumpi\n      dup1\n      0x70a08231\n      eq\n      tag_11\n      jumpi\n      jump(tag_2)\n    tag_24:\n      dup1\n      0x06fdde03\n      eq\n      tag_3\n      jumpi\n      dup1\n      0x095ea7b3\n      eq\n      tag_4\n      jumpi\n      dup1\n      0x18160ddd\n      eq\n      tag_5\n      jumpi\n      dup1\n      0x23b872dd\n      eq\n      tag_6\n      jumpi\n    tag_2:\n      0x00\n      dup1\n      revert\n        /* \"@openzeppelin/contracts@4.9/token/ERC20/ERC20.sol\":2158:2256  function name() public view virtual override returns (string memory) {... */\n    tag_3:\n      tag_25\n      tag_26\n      jump\t// in\n    tag_25:\n      mload(0x40)\n      tag_27\n      swap2\n      swap1\n      tag_28\n      jump\t// in\n    tag_27:\n      mload(0x40)\n      dup1\n      swap2\n      sub\n      swap1\n      return\n        /* \"@openzeppelin/contracts@4.9/token/ERC20/ERC20.sol\":4444:4641  function approve(address spender, uint256 amount) public virtual override returns (bool) {... */\n    tag_4:\n      tag_29\n      0x04\n      dup1\n      calldatasize\n      sub\n      dup2\n      add\n      swap1\n      tag_30\n      swap2\n      swap1\n      tag_31\n      jump\t// in\n    tag_30:\n      tag_32\n      jump\t// in\n    tag_29:\n      mload(0x40)\n      tag_33\n      swap2\n      swap1\n      tag_34\n      jump\t// in\n    tag_33:\n      mload(0x40)\n      dup1\n      swap2\n      sub\n      swap1\n      return\n        /* \"@openzeppelin/contracts@4.9/token/ERC20/ERC20.sol\":3255:3361  function totalSupply() public view virtual override returns (uint256) {... */\n    tag_5:\n      tag_35\n      tag_36\n      jump\t// in\n    tag_35:\n      mload(0x40)\n      tag_37\n      swap2\n      swap1\n      tag_38\n      jump\t// in\n    tag_37:\n      mload(0x40)\n      dup1\n      swap2\n      sub\n      swap1\n      return\n        /* \"@openzeppelin/contracts@4.9/token/ERC20/ERC20.sol\":5203:5459  function transferFrom(address from, address to, uint256 amount) public virtual override returns (bool) {... */\n    tag_6:\n      tag_39\n      0x04\n      dup1\n      calldatasize\n      sub\n      dup2\n      add\n      swap1\n      tag_40\n      swap2\n      swap1\n      tag_41\n      jump\t// in\n    tag_40:\n      tag_42\n      jump\t// in\n    tag_39:\n      mload(0x40)\n      tag_43\n      swap2\n      swap1\n      tag_34\n      jump\t// in\n    tag_43:\n      mload(0x40)\n      dup1\n      swap2\n      sub\n      swap1\n      return\n        /* \"contracts/DegenToken.sol\":764:1008  function getItem(uint256 index) public view returns (string memory name, uint256 price) {... */\n    tag_7:\n      tag_44\n      0x04\n      dup1\n      calldatasize\n      sub\n      dup2\n      add\n      swap1\n      tag_45\n      swap2\n      swap1\n      tag_46\n      jump\t// in\n    tag_45:\n      tag_47\n      jump\t// in\n    tag_44:\n      mload(0x40)\n      tag_48\n      swap3\n      swap2\n      swap1\n      tag_49\n      jump\t// in\n    tag_48:\n      mload(0x40)\n      dup1\n      swap2\n      sub\n      swap1\n      return\n        /* \"@openzeppelin/contracts@4.9/token/ERC20/ERC20.sol\":3104:3195  function decimals() public view virtual override returns (uint8) {... */\n    tag_8:\n      tag_50\n      tag_51\n      jump\t// in\n    tag_50:\n      mload(0x40)\n      tag_52\n      swap2\n      swap1\n      tag_53\n      jump\t// in\n    tag_52:\n      mload(0x40)\n      dup1\n      swap2\n      sub\n      swap1\n      return\n        /* \"@openzeppelin/contracts@4.9/token/ERC20/ERC20.sol\":5854:6088  function increaseAllowance(address spender, uint256 addedValue) public virtual returns (bool) {... */\n    tag_9:\n      tag_54\n      0x04\n      dup1\n      calldatasize\n      sub\n      dup2\n      add\n      swap1\n      tag_55\n      swap2\n      swap1\n      tag_31\n      jump\t// in\n    tag_55:\n      tag_56\n      jump\t// in\n    tag_54:\n      mload(0x40)\n      tag_57\n      swap2\n      swap1\n      tag_34\n      jump\t// in\n    tag_57:\n      mload(0x40)\n      dup1\n      swap2\n      sub\n      swap1\n      return\n        /* \"contracts/DegenToken.sol\":1109:1336  function burn(uint256 amount) public {... */\n    tag_10:\n      tag_58\n      0x04\n      dup1\n      calldatasize\n      sub\n      dup2\n      add\n      swap1\n      tag_59\n      swap2\n      swap1\n      tag_46\n      jump\t// in\n    tag_59:\n      tag_60\n      jump\t// in\n    tag_58:\n      stop\n        /* \"@openzeppelin/contracts@4.9/token/ERC20/ERC20.sol\":3419:3544  function balanceOf(address account) public view virtual override returns (uint256) {... */\n    tag_11:\n      tag_61\n      0x04\n      dup1\n      calldatasize\n      sub\n      dup2\n      add\n      swap1\n      tag_62\n      swap2\n      swap1\n      tag_63\n      jump\t// in\n    tag_62:\n      tag_64\n      jump\t// in\n    tag_61:\n      mload(0x40)\n      tag_65\n      swap2\n      swap1\n      tag_38\n      jump\t// in\n    tag_65:\n      mload(0x40)\n      dup1\n      swap2\n      sub\n      swap1\n      return\n        /* \"@openzeppelin/contracts@4.9/access/Ownable.sol\":1824:1925  function renounceOwnership() public virtual onlyOwner {... */\n    tag_12:\n      tag_66\n      tag_67\n      jump\t// in\n    tag_66:\n      stop\n        /* \"@openzeppelin/contracts@4.9/access/Ownable.sol\":1201:1286  function owner() public view virtual returns (address) {... */\n    tag_13:\n      tag_68\n      tag_69\n      jump\t// in\n    tag_68:\n      mload(0x40)\n      tag_70\n      swap2\n      swap1\n      tag_71\n      jump\t// in\n    tag_70:\n      mload(0x40)\n      dup1\n      swap2\n      sub\n      swap1\n      return\n        /* \"@openzeppelin/contracts@4.9/token/ERC20/ERC20.sol\":2369:2471  function symbol() public view virtual override returns (string memory) {... */\n    tag_14:\n      tag_72\n      tag_73\n      jump\t// in\n    tag_72:\n      mload(0x40)\n      tag_74\n      swap2\n      swap1\n      tag_28\n      jump\t// in\n    tag_74:\n      mload(0x40)\n      dup1\n      swap2\n      sub\n      swap1\n      return\n        /* \"contracts/DegenToken.sol\":1014:1103  function mint(uint256 amount) public onlyOwner {... */\n    tag_15:\n      tag_75\n      0x04\n      dup1\n      calldatasize\n      sub\n      dup2\n      add\n      swap1\n      tag_76\n      swap2\n      swap1\n      tag_46\n      jump\t// in\n    tag_76:\n      tag_77\n      jump\t// in\n    tag_75:\n      stop\n        /* \"@openzeppelin/contracts@4.9/token/ERC20/ERC20.sol\":6575:7002  function decreaseAllowance(address spender, uint256 subtractedValue) public virtual returns (bool) {... */\n    tag_16:\n      tag_78\n      0x04\n      dup1\n      calldatasize\n      sub\n      dup2\n      add\n      swap1\n      tag_79\n      swap2\n      swap1\n      tag_31\n      jump\t// in\n    tag_79:\n      tag_80\n      jump\t// in\n    tag_78:\n      mload(0x40)\n      tag_81\n      swap2\n      swap1\n      tag_34\n      jump\t// in\n    tag_81:\n      mload(0x40)\n      dup1\n      swap2\n      sub\n      swap1\n      return\n        /* \"contracts/DegenToken.sol\":1707:1857  function transfer(address to, uint256 amount) public override returns (bool) {... */\n    tag_17:\n      tag_82\n      0x04\n      dup1\n      calldatasize\n      sub\n      dup2\n      add\n      swap1\n      tag_83\n      swap2\n      swap1\n      tag_31\n      jump\t// in\n    tag_83:\n      tag_84\n      jump\t// in\n    tag_82:\n      mload(0x40)\n      tag_85\n      swap2\n      swap1\n      tag_34\n      jump\t// in\n    tag_85:\n      mload(0x40)\n      dup1\n      swap2\n      sub\n      swap1\n      return\n        /* \"contracts/DegenToken.sol\":289:308  Item[] public items */\n    tag_18:\n      tag_86\n      0x04\n      dup1\n      calldatasize\n      sub\n      dup2\n      add\n      swap1\n      tag_87\n      swap2\n      swap1\n      tag_46\n      jump\t// in\n    tag_87:\n      tag_88\n      jump\t// in\n    tag_86:\n      mload(0x40)\n      tag_89\n      swap3\n      swap2\n      swap1\n      tag_49\n      jump\t// in\n    tag_89:\n      mload(0x40)\n      dup1\n      swap2\n      sub\n      swap1\n      return\n        /* \"@openzeppelin/contracts@4.9/token/ERC20/ERC20.sol\":3987:4136  function allowance(address owner, address spender) public view virtual override returns (uint256) {... */\n    tag_19:\n      tag_90\n      0x04\n      dup1\n      calldatasize\n      sub\n      dup2\n      add\n      swap1\n      tag_91\n      swap2\n      swap1\n      tag_92\n      jump\t// in\n    tag_91:\n      tag_93\n      jump\t// in\n    tag_90:\n      mload(0x40)\n      tag_94\n      swap2\n      swap1\n      tag_38\n      jump\t// in\n    tag_94:\n      mload(0x40)\n      dup1\n      swap2\n      sub\n      swap1\n      return\n        /* \"contracts/DegenToken.sol\":1342:1701  function buyItem(uint256 itemIndex) public {... */\n    tag_20:\n      tag_95\n      0x04\n      dup1\n      calldatasize\n      sub\n      dup2\n      add\n      swap1\n      tag_96\n      swap2\n      swap1\n      tag_46\n      jump\t// in\n    tag_96:\n      tag_97\n      jump\t// in\n    tag_95:\n      stop\n        /* \"@openzeppelin/contracts@4.9/access/Ownable.sol\":2074:2272  function transferOwnership(address newOwner) public virtual onlyOwner {... */\n    tag_21:\n      tag_98\n      0x04\n      dup1\n      calldatasize\n      sub\n      dup2\n      add\n      swap1\n      tag_99\n      swap2\n      swap1\n      tag_63\n      jump\t// in\n    tag_99:\n      tag_100\n      jump\t// in\n    tag_98:\n      stop\n        /* \"@openzeppelin/contracts@4.9/token/ERC20/ERC20.sol\":2158:2256  function name() public view virtual override returns (string memory) {... */\n    tag_26:\n        /* \"@openzeppelin/contracts@4.9/token/ERC20/ERC20.sol\":2212:2225  string memory */\n      0x60\n        /* \"@openzeppelin/contracts@4.9/token/ERC20/ERC20.sol\":2244:2249  _name */\n      0x03\n        /* \"@openzeppelin/contracts@4.9/token/ERC20/ERC20.sol\":2237:2249  return _name */\n      dup1\n      sload\n      tag_102\n      swap1\n      tag_103\n      jump\t// in\n    tag_102:\n      dup1\n      0x1f\n      add\n      0x20\n      dup1\n      swap2\n      div\n      mul\n      0x20\n      add\n      mload(0x40)\n      swap1\n      dup2\n      add\n      0x40\n      mstore\n      dup1\n      swap3\n      swap2\n      swap1\n      dup2\n      dup2\n      mstore\n      0x20\n      add\n      dup3\n      dup1\n      sload\n      tag_104\n      swap1\n      tag_103\n      jump\t// in\n    tag_104:\n      dup1\n      iszero\n      tag_105\n      jumpi\n      dup1\n      0x1f\n      lt\n      tag_106\n      jumpi\n      0x0100\n      dup1\n      dup4\n      sload\n      div\n      mul\n      dup4\n      mstore\n      swap2\n      0x20\n      add\n      swap2\n      jump(tag_105)\n    tag_106:\n      dup3\n      add\n      swap2\n      swap1\n      0x00\n      mstore\n      keccak256(0x00, 0x20)\n      swap1\n    tag_107:\n      dup2\n      sload\n      dup2\n      mstore\n      swap1\n      0x01\n      add\n      swap1\n      0x20\n      add\n      dup1\n      dup4\n      gt\n      tag_107\n      jumpi\n      dup3\n      swap1\n      sub\n      0x1f\n      and\n      dup3\n      add\n      swap2\n    tag_105:\n      pop\n      pop\n      pop\n      pop\n      pop\n      swap1\n      pop\n        /* \"@openzeppelin/contracts@4.9/token/ERC20/ERC20.sol\":2158:2256  function name() public view virtual override returns (string memory) {... */\n      swap1\n      jump\t// out\n        /* \"@openzeppelin/contracts@4.9/token/ERC20/ERC20.sol\":4444:4641  function approve(address spender, uint256 amount) public virtual override returns (bool) {... */\n    tag_32:\n        /* \"@openzeppelin/contracts@4.9/token/ERC20/ERC20.sol\":4527:4531  bool */\n      0x00\n        /* \"@openzeppelin/contracts@4.9/token/ERC20/ERC20.sol\":4543:4556  address owner */\n      dup1\n        /* \"@openzeppelin/contracts@4.9/token/ERC20/ERC20.sol\":4559:4571  _msgSender() */\n      tag_109\n        /* \"@openzeppelin/contracts@4.9/token/ERC20/ERC20.sol\":4559:4569  _msgSender */\n      tag_110\n        /* \"@openzeppelin/contracts@4.9/token/ERC20/ERC20.sol\":4559:4571  _msgSender() */\n      jump\t// in\n    tag_109:\n        /* \"@openzeppelin/contracts@4.9/token/ERC20/ERC20.sol\":4543:4571  address owner = _msgSender() */\n      swap1\n      pop\n        /* \"@openzeppelin/contracts@4.9/token/ERC20/ERC20.sol\":4581:4613  _approve(owner, spender, amount) */\n      tag_111\n        /* \"@openzeppelin/contracts@4.9/token/ERC20/ERC20.sol\":4590:4595  owner */\n      dup2\n        /* \"@openzeppelin/contracts@4.9/token/ERC20/ERC20.sol\":4597:4604  spender */\n      dup6\n        /* \"@openzeppelin/contracts@4.9/token/ERC20/ERC20.sol\":4606:4612  amount */\n      dup6\n        /* \"@openzeppelin/contracts@4.9/token/ERC20/ERC20.sol\":4581:4589  _approve */\n      tag_112\n        /* \"@openzeppelin/contracts@4.9/token/ERC20/ERC20.sol\":4581:4613  _approve(owner, spender, amount) */\n      jump\t// in\n    tag_111:\n        /* \"@openzeppelin/contracts@4.9/token/ERC20/ERC20.sol\":4630:4634  true */\n      0x01\n        /* \"@openzeppelin/contracts@4.9/token/ERC20/ERC20.sol\":4623:4634  return true */\n      swap2\n      pop\n      pop\n        /* \"@openzeppelin/contracts@4.9/token/ERC20/ERC20.sol\":4444:4641  function approve(address spender, uint256 amount) public virtual override returns (bool) {... */\n      swap3\n      swap2\n      pop\n      pop\n      jump\t// out\n        /* \"@openzeppelin/contracts@4.9/token/ERC20/ERC20.sol\":3255:3361  function totalSupply() public view virtual override returns (uint256) {... */\n    tag_36:\n        /* \"@openzeppelin/contracts@4.9/token/ERC20/ERC20.sol\":3316:3323  uint256 */\n      0x00\n        /* \"@openzeppelin/contracts@4.9/token/ERC20/ERC20.sol\":3342:3354  _totalSupply */\n      sload(0x02)\n        /* \"@openzeppelin/contracts@4.9/token/ERC20/ERC20.sol\":3335:3354  return _totalSupply */\n      swap1\n      pop\n        /* \"@openzeppelin/contracts@4.9/token/ERC20/ERC20.sol\":3255:3361  function totalSupply() public view virtual override returns (uint256) {... */\n      swap1\n      jump\t// out\n        /* \"@openzeppelin/contracts@4.9/token/ERC20/ERC20.sol\":5203:5459  function transferFrom(address from, address to, uint256 amount) public virtual override returns (bool) {... */\n    tag_42:\n        /* \"@openzeppelin/contracts@4.9/token/ERC20/ERC20.sol\":5300:5304  bool */\n      0x00\n        /* \"@openzeppelin/contracts@4.9/token/ERC20/ERC20.sol\":5316:5331  address spender */\n      dup1\n        /* \"@openzeppelin/contracts@4.9/token/ERC20/ERC20.sol\":5334:5346  _msgSender() */\n      tag_115\n        /* \"@openzeppelin/contracts@4.9/token/ERC20/ERC20.sol\":5334:5344  _msgSender */\n      tag_110\n        /* \"@openzeppelin/contracts@4.9/token/ERC20/ERC20.sol\":5334:5346  _msgSender() */\n      jump\t// in\n    tag_115:\n        /* \"@openzeppelin/contracts@4.9/token/ERC20/ERC20.sol\":5316:5346  address spender = _msgSender() */\n      swap1\n      pop\n        /* \"@openzeppelin/contracts@4.9/token/ERC20/ERC20.sol\":5356:5394  _spendAllowance(from, spender, amount) */\n      tag_116\n        /* \"@openzeppelin/contracts@4.9/token/ERC20/ERC20.sol\":5372:5376  from */\n      dup6\n        /* \"@openzeppelin/contracts@4.9/token/ERC20/ERC20.sol\":5378:5385  spender */\n      dup3\n        /* \"@openzeppelin/contracts@4.9/token/ERC20/ERC20.sol\":5387:5393  amount */\n      dup6\n        /* \"@openzeppelin/contracts@4.9/token/ERC20/ERC20.sol\":5356:5371  _spendAllowance */\n      tag_117\n        /* \"@openzeppelin/contracts@4.9/token/ERC20/ERC20.sol\":5356:5394  _spendAllowance(from, spender, amount) */\n      jump\t// in\n    tag_116:\n        /* \"@openzeppelin/contracts@4.9/token/ERC20/ERC20.sol\":5404:5431  _transfer(from, to, amount) */\n      tag_118\n        /* \"@openzeppelin/contracts@4.9/token/ERC20/ERC20.sol\":5414:5418  from */\n      dup6\n        /* \"@openzeppelin/contracts@4.9/token/ERC20/ERC20.sol\":5420:5422  to */\n      dup6\n        /* \"@openzeppelin/contracts@4.9/token/ERC20/ERC20.sol\":5424:5430  amount */\n      dup6\n        /* \"@openzeppelin/contracts@4.9/token/ERC20/ERC20.sol\":5404:5413  _transfer */\n      tag_119\n        /* \"@openzeppelin/contracts@4.9/token/ERC20/ERC20.sol\":5404:5431  _transfer(from, to, amount) */\n      jump\t// in\n    tag_118:\n        /* \"@openzeppelin/contracts@4.9/token/ERC20/ERC20.sol\":5448:5452  true */\n      0x01\n        /* \"@openzeppelin/contracts@4.9/token/ERC20/ERC20.sol\":5441:5452  return true */\n      swap2\n      pop\n      pop\n        /* \"@openzeppelin/contracts@4.9/token/ERC20/ERC20.sol\":5203:5459  function transferFrom(address from, address to, uint256 amount) public virtual override returns (bool) {... */\n      swap4\n      swap3\n      pop\n      pop\n      pop\n      jump\t// out\n        /* \"contracts/DegenToken.sol\":764:1008  function getItem(uint256 index) public view returns (string memory name, uint256 price) {... */\n    tag_47:\n        /* \"contracts/DegenToken.sol\":817:835  string memory name */\n      0x60\n        /* \"contracts/DegenToken.sol\":837:850  uint256 price */\n      0x00\n        /* \"contracts/DegenToken.sol\":878:883  items */\n      0x06\n        /* \"contracts/DegenToken.sol\":878:890  items.length */\n      dup1\n      sload\n      swap1\n      pop\n        /* \"contracts/DegenToken.sol\":870:875  index */\n      dup4\n        /* \"contracts/DegenToken.sol\":870:890  index < items.length */\n      lt\n        /* \"contracts/DegenToken.sol\":862:919  require(index < items.length, \"Item index out of bounds\") */\n      tag_121\n      jumpi\n      mload(0x40)\n      0x08c379a000000000000000000000000000000000000000000000000000000000\n      dup2\n      mstore\n      0x04\n      add\n      tag_122\n      swap1\n      tag_123\n      jump\t// in\n    tag_122:\n      mload(0x40)\n      dup1\n      swap2\n      sub\n      swap1\n      revert\n    tag_121:\n        /* \"contracts/DegenToken.sol\":929:946  Item storage item */\n      0x00\n        /* \"contracts/DegenToken.sol\":949:954  items */\n      0x06\n        /* \"contracts/DegenToken.sol\":955:960  index */\n      dup5\n        /* \"contracts/DegenToken.sol\":949:961  items[index] */\n      dup2\n      sload\n      dup2\n      lt\n      tag_124\n      jumpi\n      tag_125\n      tag_126\n      jump\t// in\n    tag_125:\n    tag_124:\n      swap1\n      0x00\n      mstore\n      keccak256(0x00, 0x20)\n      swap1\n      0x02\n      mul\n      add\n        /* \"contracts/DegenToken.sol\":929:961  Item storage item = items[index] */\n      swap1\n      pop\n        /* \"contracts/DegenToken.sol\":979:983  item */\n      dup1\n        /* \"contracts/DegenToken.sol\":979:988  item.name */\n      0x00\n      add\n        /* \"contracts/DegenToken.sol\":990:994  item */\n      dup2\n        /* \"contracts/DegenToken.sol\":990:1000  item.price */\n      0x01\n      add\n      sload\n        /* \"contracts/DegenToken.sol\":971:1001  return (item.name, item.price) */\n      dup2\n      dup1\n      sload\n      tag_128\n      swap1\n      tag_103\n      jump\t// in\n    tag_128:\n      dup1\n      0x1f\n      add\n      0x20\n      dup1\n      swap2\n      div\n      mul\n      0x20\n      add\n      mload(0x40)\n      swap1\n      dup2\n      add\n      0x40\n      mstore\n      dup1\n      swap3\n      swap2\n      swap1\n      dup2\n      dup2\n      mstore\n      0x20\n      add\n      dup3\n      dup1\n      sload\n      tag_129\n      swap1\n      tag_103\n      jump\t// in\n    tag_129:\n      dup1\n      iszero\n      tag_130\n      jumpi\n      dup1\n      0x1f\n      lt\n      tag_131\n      jumpi\n      0x0100\n      dup1\n      dup4\n      sload\n      div\n      mul\n      dup4\n      mstore\n      swap2\n      0x20\n      add\n      swap2\n      jump(tag_130)\n    tag_131:\n      dup3\n      add\n      swap2\n      swap1\n      0x00\n      mstore\n      keccak256(0x00, 0x20)\n      swap1\n    tag_132:\n      dup2\n      sload\n      dup2\n      mstore\n      swap1\n      0x01\n      add\n      swap1\n      0x20\n      add\n      dup1\n      dup4\n      gt\n      tag_132\n      jumpi\n      dup3\n      swap1\n      sub\n      0x1f\n      and\n      dup3\n      add\n      swap2\n    tag_130:\n      pop\n      pop\n      pop\n      pop\n      pop\n      swap2\n      pop\n      swap3\n      pop\n      swap3\n      pop\n      pop\n        /* \"contracts/DegenToken.sol\":764:1008  function getItem(uint256 index) public view returns (string memory name, uint256 price) {... */\n      swap2\n      pop\n      swap2\n      jump\t// out\n        /* \"@openzeppelin/contracts@4.9/token/ERC20/ERC20.sol\":3104:3195  function decimals() public view virtual override returns (uint8) {... */\n    tag_51:\n        /* \"@openzeppelin/contracts@4.9/token/ERC20/ERC20.sol\":3162:3167  uint8 */\n      0x00\n        /* \"@openzeppelin/contracts@4.9/token/ERC20/ERC20.sol\":3186:3188  18 */\n      0x12\n        /* \"@openzeppelin/contracts@4.9/token/ERC20/ERC20.sol\":3179:3188  return 18 */\n      swap1\n      pop\n        /* \"@openzeppelin/contracts@4.9/token/ERC20/ERC20.sol\":3104:3195  function decimals() public view virtual override returns (uint8) {... */\n      swap1\n      jump\t// out\n        /* \"@openzeppelin/contracts@4.9/token/ERC20/ERC20.sol\":5854:6088  function increaseAllowance(address spender, uint256 addedValue) public virtual returns (bool) {... */\n    tag_56:\n        /* \"@openzeppelin/contracts@4.9/token/ERC20/ERC20.sol\":5942:5946  bool */\n      0x00\n        /* \"@openzeppelin/contracts@4.9/token/ERC20/ERC20.sol\":5958:5971  address owner */\n      dup1\n        /* \"@openzeppelin/contracts@4.9/token/ERC20/ERC20.sol\":5974:5986  _msgSender() */\n      tag_135\n        /* \"@openzeppelin/contracts@4.9/token/ERC20/ERC20.sol\":5974:5984  _msgSender */\n      tag_110\n        /* \"@openzeppelin/contracts@4.9/token/ERC20/ERC20.sol\":5974:5986  _msgSender() */\n      jump\t// in\n    tag_135:\n        /* \"@openzeppelin/contracts@4.9/token/ERC20/ERC20.sol\":5958:5986  address owner = _msgSender() */\n      swap1\n      pop\n        /* \"@openzeppelin/contracts@4.9/token/ERC20/ERC20.sol\":5996:6060  _approve(owner, spender, allowance(owner, spender) + addedValue) */\n      tag_136\n        /* \"@openzeppelin/contracts@4.9/token/ERC20/ERC20.sol\":6005:6010  owner */\n      dup2\n        /* \"@openzeppelin/contracts@4.9/token/ERC20/ERC20.sol\":6012:6019  spender */\n      dup6\n        /* \"@openzeppelin/contracts@4.9/token/ERC20/ERC20.sol\":6049:6059  addedValue */\n      dup6\n        /* \"@openzeppelin/contracts@4.9/token/ERC20/ERC20.sol\":6021:6046  allowance(owner, spender) */\n      tag_137\n        /* \"@openzeppelin/contracts@4.9/token/ERC20/ERC20.sol\":6031:6036  owner */\n      dup6\n        /* \"@openzeppelin/contracts@4.9/token/ERC20/ERC20.sol\":6038:6045  spender */\n      dup10\n        /* \"@openzeppelin/contracts@4.9/token/ERC20/ERC20.sol\":6021:6030  allowance */\n      tag_93\n        /* \"@openzeppelin/contracts@4.9/token/ERC20/ERC20.sol\":6021:6046  allowance(owner, spender) */\n      jump\t// in\n    tag_137:\n        /* \"@openzeppelin/contracts@4.9/token/ERC20/ERC20.sol\":6021:6059  allowance(owner, spender) + addedValue */\n      tag_138\n      swap2\n      swap1\n      tag_139\n      jump\t// in\n    tag_138:\n        /* \"@openzeppelin/contracts@4.9/token/ERC20/ERC20.sol\":5996:6004  _approve */\n      tag_112\n        /* \"@openzeppelin/contracts@4.9/token/ERC20/ERC20.sol\":5996:6060  _approve(owner, spender, allowance(owner, spender) + addedValue) */\n      jump\t// in\n    tag_136:\n        /* \"@openzeppelin/contracts@4.9/token/ERC20/ERC20.sol\":6077:6081  true */\n      0x01\n        /* \"@openzeppelin/contracts@4.9/token/ERC20/ERC20.sol\":6070:6081  return true */\n      swap2\n      pop\n      pop\n        /* \"@openzeppelin/contracts@4.9/token/ERC20/ERC20.sol\":5854:6088  function increaseAllowance(address spender, uint256 addedValue) public virtual returns (bool) {... */\n      swap3\n      swap2\n      pop\n      pop\n      jump\t// out\n        /* \"contracts/DegenToken.sol\":1109:1336  function burn(uint256 amount) public {... */\n    tag_60:\n        /* \"contracts/DegenToken.sol\":1173:1175  10 */\n      0x0a\n        /* \"contracts/DegenToken.sol\":1164:1170  amount */\n      dup2\n        /* \"contracts/DegenToken.sol\":1164:1175  amount > 10 */\n      gt\n        /* \"contracts/DegenToken.sol\":1156:1212  require(amount > 10, \"Amount should be greater than 10\") */\n      tag_141\n      jumpi\n      mload(0x40)\n      0x08c379a000000000000000000000000000000000000000000000000000000000\n      dup2\n      mstore\n      0x04\n      add\n      tag_142\n      swap1\n      tag_143\n      jump\t// in\n    tag_142:\n      mload(0x40)\n      dup1\n      swap2\n      sub\n      swap1\n      revert\n    tag_141:\n        /* \"contracts/DegenToken.sol\":1240:1261  balanceOf(msg.sender) */\n      tag_144\n        /* \"contracts/DegenToken.sol\":1250:1260  msg.sender */\n      caller\n        /* \"contracts/DegenToken.sol\":1240:1249  balanceOf */\n      tag_64\n        /* \"contracts/DegenToken.sol\":1240:1261  balanceOf(msg.sender) */\n      jump\t// in\n    tag_144:\n        /* \"contracts/DegenToken.sol\":1230:1236  amount */\n      dup2\n        /* \"contracts/DegenToken.sol\":1230:1261  amount <= balanceOf(msg.sender) */\n      gt\n      iszero\n        /* \"contracts/DegenToken.sol\":1222:1294  require(amount <= balanceOf(msg.sender), \"Insufficient balance to burn\") */\n      tag_145\n      jumpi\n      mload(0x40)\n      0x08c379a000000000000000000000000000000000000000000000000000000000\n      dup2\n      mstore\n      0x04\n      add\n      tag_146\n      swap1\n      tag_147\n      jump\t// in\n    tag_146:\n      mload(0x40)\n      dup1\n      swap2\n      sub\n      swap1\n      revert\n    tag_145:\n        /* \"contracts/DegenToken.sol\":1304:1329  _burn(msg.sender, amount) */\n      tag_148\n        /* \"contracts/DegenToken.sol\":1310:1320  msg.sender */\n      caller\n        /* \"contracts/DegenToken.sol\":1322:1328  amount */\n      dup3\n        /* \"contracts/DegenToken.sol\":1304:1309  _burn */\n      tag_149\n        /* \"contracts/DegenToken.sol\":1304:1329  _burn(msg.sender, amount) */\n      jump\t// in\n    tag_148:\n        /* \"contracts/DegenToken.sol\":1109:1336  function burn(uint256 amount) public {... */\n      pop\n      jump\t// out\n        /* \"@openzeppelin/contracts@4.9/token/ERC20/ERC20.sol\":3419:3544  function balanceOf(address account) public view virtual override returns (uint256) {... */\n    tag_64:\n        /* \"@openzeppelin/contracts@4.9/token/ERC20/ERC20.sol\":3493:3500  uint256 */\n      0x00\n        /* \"@openzeppelin/contracts@4.9/token/ERC20/ERC20.sol\":3519:3528  _balances */\n      dup1\n        /* \"@openzeppelin/contracts@4.9/token/ERC20/ERC20.sol\":3519:3537  _balances[account] */\n      0x00\n        /* \"@openzeppelin/contracts@4.9/token/ERC20/ERC20.sol\":3529:3536  account */\n      dup4\n        /* \"@openzeppelin/contracts@4.9/token/ERC20/ERC20.sol\":3519:3537  _balances[account] */\n      0xffffffffffffffffffffffffffffffffffffffff\n      and\n      0xffffffffffffffffffffffffffffffffffffffff\n      and\n      dup2\n      mstore\n      0x20\n      add\n      swap1\n      dup2\n      mstore\n      0x20\n      add\n      0x00\n      keccak256\n      sload\n        /* \"@openzeppelin/contracts@4.9/token/ERC20/ERC20.sol\":3512:3537  return _balances[account] */\n      swap1\n      pop\n        /* \"@openzeppelin/contracts@4.9/token/ERC20/ERC20.sol\":3419:3544  function balanceOf(address account) public view virtual override returns (uint256) {... */\n      swap2\n      swap1\n      pop\n      jump\t// out\n        /* \"@openzeppelin/contracts@4.9/access/Ownable.sol\":1824:1925  function renounceOwnership() public virtual onlyOwner {... */\n    tag_67:\n        /* \"@openzeppelin/contracts@4.9/access/Ownable.sol\":1094:1107  _checkOwner() */\n      tag_152\n        /* \"@openzeppelin/contracts@4.9/access/Ownable.sol\":1094:1105  _checkOwner */\n      tag_153\n        /* \"@openzeppelin/contracts@4.9/access/Ownable.sol\":1094:1107  _checkOwner() */\n      jump\t// in\n    tag_152:\n        /* \"@openzeppelin/contracts@4.9/access/Ownable.sol\":1888:1918  _transferOwnership(address(0)) */\n      tag_155\n        /* \"@openzeppelin/contracts@4.9/access/Ownable.sol\":1915:1916  0 */\n      0x00\n        /* \"@openzeppelin/contracts@4.9/access/Ownable.sol\":1888:1906  _transferOwnership */\n      tag_156\n        /* \"@openzeppelin/contracts@4.9/access/Ownable.sol\":1888:1918  _transferOwnership(address(0)) */\n      jump\t// in\n    tag_155:\n        /* \"@openzeppelin/contracts@4.9/access/Ownable.sol\":1824:1925  function renounceOwnership() public virtual onlyOwner {... */\n      jump\t// out\n        /* \"@openzeppelin/contracts@4.9/access/Ownable.sol\":1201:1286  function owner() public view virtual returns (address) {... */\n    tag_69:\n        /* \"@openzeppelin/contracts@4.9/access/Ownable.sol\":1247:1254  address */\n      0x00\n        /* \"@openzeppelin/contracts@4.9/access/Ownable.sol\":1273:1279  _owner */\n      0x05\n      0x00\n      swap1\n      sload\n      swap1\n      0x0100\n      exp\n      swap1\n      div\n      0xffffffffffffffffffffffffffffffffffffffff\n      and\n        /* \"@openzeppelin/contracts@4.9/access/Ownable.sol\":1266:1279  return _owner */\n      swap1\n      pop\n        /* \"@openzeppelin/contracts@4.9/access/Ownable.sol\":1201:1286  function owner() public view virtual returns (address) {... */\n      swap1\n      jump\t// out\n        /* \"@openzeppelin/contracts@4.9/token/ERC20/ERC20.sol\":2369:2471  function symbol() public view virtual override returns (string memory) {... */\n    tag_73:\n        /* \"@openzeppelin/contracts@4.9/token/ERC20/ERC20.sol\":2425:2438  string memory */\n      0x60\n        /* \"@openzeppelin/contracts@4.9/token/ERC20/ERC20.sol\":2457:2464  _symbol */\n      0x04\n        /* \"@openzeppelin/contracts@4.9/token/ERC20/ERC20.sol\":2450:2464  return _symbol */\n      dup1\n      sload\n      tag_159\n      swap1\n      tag_103\n      jump\t// in\n    tag_159:\n      dup1\n      0x1f\n      add\n      0x20\n      dup1\n      swap2\n      div\n      mul\n      0x20\n      add\n      mload(0x40)\n      swap1\n      dup2\n      add\n      0x40\n      mstore\n      dup1\n      swap3\n      swap2\n      swap1\n      dup2\n      dup2\n      mstore\n      0x20\n      add\n      dup3\n      dup1\n      sload\n      tag_160\n      swap1\n      tag_103\n      jump\t// in\n    tag_160:\n      dup1\n      iszero\n      tag_161\n      jumpi\n      dup1\n      0x1f\n      lt\n      tag_162\n      jumpi\n      0x0100\n      dup1\n      dup4\n      sload\n      div\n      mul\n      dup4\n      mstore\n      swap2\n      0x20\n      add\n      swap2\n      jump(tag_161)\n    tag_162:\n      dup3\n      add\n      swap2\n      swap1\n      0x00\n      mstore\n      keccak256(0x00, 0x20)\n      swap1\n    tag_163:\n      dup2\n      sload\n      dup2\n      mstore\n      swap1\n      0x01\n      add\n      swap1\n      0x20\n      add\n      dup1\n      dup4\n      gt\n      tag_163\n      jumpi\n      dup3\n      swap1\n      sub\n      0x1f\n      and\n      dup3\n      add\n      swap2\n    tag_161:\n      pop\n      pop\n      pop\n      pop\n      pop\n      swap1\n      pop\n        /* \"@openzeppelin/contracts@4.9/token/ERC20/ERC20.sol\":2369:2471  function symbol() public view virtual override returns (string memory) {... */\n      swap1\n      jump\t// out\n        /* \"contracts/DegenToken.sol\":1014:1103  function mint(uint256 amount) public onlyOwner {... */\n    tag_77:\n        /* \"@openzeppelin/contracts@4.9/access/Ownable.sol\":1094:1107  _checkOwner() */\n      tag_165\n        /* \"@openzeppelin/contracts@4.9/access/Ownable.sol\":1094:1105  _checkOwner */\n      tag_153\n        /* \"@openzeppelin/contracts@4.9/access/Ownable.sol\":1094:1107  _checkOwner() */\n      jump\t// in\n    tag_165:\n        /* \"contracts/DegenToken.sol\":1071:1096  _mint(msg.sender, amount) */\n      tag_167\n        /* \"contracts/DegenToken.sol\":1077:1087  msg.sender */\n      caller\n        /* \"contracts/DegenToken.sol\":1089:1095  amount */\n      dup3\n        /* \"contracts/DegenToken.sol\":1071:1076  _mint */\n      tag_168\n        /* \"contracts/DegenToken.sol\":1071:1096  _mint(msg.sender, amount) */\n      jump\t// in\n    tag_167:\n        /* \"contracts/DegenToken.sol\":1014:1103  function mint(uint256 amount) public onlyOwner {... */\n      pop\n      jump\t// out\n        /* \"@openzeppelin/contracts@4.9/token/ERC20/ERC20.sol\":6575:7002  function decreaseAllowance(address spender, uint256 subtractedValue) public virtual returns (bool) {... */\n    tag_80:\n        /* \"@openzeppelin/contracts@4.9/token/ERC20/ERC20.sol\":6668:6672  bool */\n      0x00\n        /* \"@openzeppelin/contracts@4.9/token/ERC20/ERC20.sol\":6684:6697  address owner */\n      dup1\n        /* \"@openzeppelin/contracts@4.9/token/ERC20/ERC20.sol\":6700:6712  _msgSender() */\n      tag_170\n        /* \"@openzeppelin/contracts@4.9/token/ERC20/ERC20.sol\":6700:6710  _msgSender */\n      tag_110\n        /* \"@openzeppelin/contracts@4.9/token/ERC20/ERC20.sol\":6700:6712  _msgSender() */\n      jump\t// in\n    tag_170:\n        /* \"@openzeppelin/contracts@4.9/token/ERC20/ERC20.sol\":6684:6712  address owner = _msgSender() */\n      swap1\n      pop\n        /* \"@openzeppelin/contracts@4.9/token/ERC20/ERC20.sol\":6722:6746  uint256 currentAllowance */\n      0x00\n        /* \"@openzeppelin/contracts@4.9/token/ERC20/ERC20.sol\":6749:6774  allowance(owner, spender) */\n      tag_171\n        /* \"@openzeppelin/contracts@4.9/token/ERC20/ERC20.sol\":6759:6764  owner */\n      dup3\n        /* \"@openzeppelin/contracts@4.9/token/ERC20/ERC20.sol\":6766:6773  spender */\n      dup7\n        /* \"@openzeppelin/contracts@4.9/token/ERC20/ERC20.sol\":6749:6758  allowance */\n      tag_93\n        /* \"@openzeppelin/contracts@4.9/token/ERC20/ERC20.sol\":6749:6774  allowance(owner, spender) */\n      jump\t// in\n    tag_171:\n        /* \"@openzeppelin/contracts@4.9/token/ERC20/ERC20.sol\":6722:6774  uint256 currentAllowance = allowance(owner, spender) */\n      swap1\n      pop\n        /* \"@openzeppelin/contracts@4.9/token/ERC20/ERC20.sol\":6812:6827  subtractedValue */\n      dup4\n        /* \"@openzeppelin/contracts@4.9/token/ERC20/ERC20.sol\":6792:6808  currentAllowance */\n      dup2\n        /* \"@openzeppelin/contracts@4.9/token/ERC20/ERC20.sol\":6792:6827  currentAllowance >= subtractedValue */\n      lt\n      iszero\n        /* \"@openzeppelin/contracts@4.9/token/ERC20/ERC20.sol\":6784:6869  require(currentAllowance >= subtractedValue, \"ERC20: decreased allowance below zero\") */\n      tag_172\n      jumpi\n      mload(0x40)\n      0x08c379a000000000000000000000000000000000000000000000000000000000\n      dup2\n      mstore\n      0x04\n      add\n      tag_173\n      swap1\n      tag_174\n      jump\t// in\n    tag_173:\n      mload(0x40)\n      dup1\n      swap2\n      sub\n      swap1\n      revert\n    tag_172:\n        /* \"@openzeppelin/contracts@4.9/token/ERC20/ERC20.sol\":6903:6963  _approve(owner, spender, currentAllowance - subtractedValue) */\n      tag_175\n        /* \"@openzeppelin/contracts@4.9/token/ERC20/ERC20.sol\":6912:6917  owner */\n      dup3\n        /* \"@openzeppelin/contracts@4.9/token/ERC20/ERC20.sol\":6919:6926  spender */\n      dup7\n        /* \"@openzeppelin/contracts@4.9/token/ERC20/ERC20.sol\":6947:6962  subtractedValue */\n      dup7\n        /* \"@openzeppelin/contracts@4.9/token/ERC20/ERC20.sol\":6928:6944  currentAllowance */\n      dup5\n        /* \"@openzeppelin/contracts@4.9/token/ERC20/ERC20.sol\":6928:6962  currentAllowance - subtractedValue */\n      sub\n        /* \"@openzeppelin/contracts@4.9/token/ERC20/ERC20.sol\":6903:6911  _approve */\n      tag_112\n        /* \"@openzeppelin/contracts@4.9/token/ERC20/ERC20.sol\":6903:6963  _approve(owner, spender, currentAllowance - subtractedValue) */\n      jump\t// in\n    tag_175:\n        /* \"@openzeppelin/contracts@4.9/token/ERC20/ERC20.sol\":6991:6995  true */\n      0x01\n        /* \"@openzeppelin/contracts@4.9/token/ERC20/ERC20.sol\":6984:6995  return true */\n      swap3\n      pop\n      pop\n      pop\n        /* \"@openzeppelin/contracts@4.9/token/ERC20/ERC20.sol\":6575:7002  function decreaseAllowance(address spender, uint256 subtractedValue) public virtual returns (bool) {... */\n      swap3\n      swap2\n      pop\n      pop\n      jump\t// out\n        /* \"contracts/DegenToken.sol\":1707:1857  function transfer(address to, uint256 amount) public override returns (bool) {... */\n    tag_84:\n        /* \"contracts/DegenToken.sol\":1778:1782  bool */\n      0x00\n        /* \"contracts/DegenToken.sol\":1794:1829  _transfer(_msgSender(), to, amount) */\n      tag_177\n        /* \"contracts/DegenToken.sol\":1804:1816  _msgSender() */\n      tag_178\n        /* \"contracts/DegenToken.sol\":1804:1814  _msgSender */\n      tag_110\n        /* \"contracts/DegenToken.sol\":1804:1816  _msgSender() */\n      jump\t// in\n    tag_178:\n        /* \"contracts/DegenToken.sol\":1818:1820  to */\n      dup5\n        /* \"contracts/DegenToken.sol\":1822:1828  amount */\n      dup5\n        /* \"contracts/DegenToken.sol\":1794:1803  _transfer */\n      tag_119\n        /* \"contracts/DegenToken.sol\":1794:1829  _transfer(_msgSender(), to, amount) */\n      jump\t// in\n    tag_177:\n        /* \"contracts/DegenToken.sol\":1846:1850  true */\n      0x01\n        /* \"contracts/DegenToken.sol\":1839:1850  return true */\n      swap1\n      pop\n        /* \"contracts/DegenToken.sol\":1707:1857  function transfer(address to, uint256 amount) public override returns (bool) {... */\n      swap3\n      swap2\n      pop\n      pop\n      jump\t// out\n        /* \"contracts/DegenToken.sol\":289:308  Item[] public items */\n    tag_88:\n      0x06\n      dup2\n      dup2\n      sload\n      dup2\n      lt\n      tag_179\n      jumpi\n      0x00\n      dup1\n      revert\n    tag_179:\n      swap1\n      0x00\n      mstore\n      keccak256(0x00, 0x20)\n      swap1\n      0x02\n      mul\n      add\n      0x00\n      swap2\n      pop\n      swap1\n      pop\n      dup1\n      0x00\n      add\n      dup1\n      sload\n      tag_181\n      swap1\n      tag_103\n      jump\t// in\n    tag_181:\n      dup1\n      0x1f\n      add\n      0x20\n      dup1\n      swap2\n      div\n      mul\n      0x20\n      add\n      mload(0x40)\n      swap1\n      dup2\n      add\n      0x40\n      mstore\n      dup1\n      swap3\n      swap2\n      swap1\n      dup2\n      dup2\n      mstore\n      0x20\n      add\n      dup3\n      dup1\n      sload\n      tag_182\n      swap1\n      tag_103\n      jump\t// in\n    tag_182:\n      dup1\n      iszero\n      tag_183\n      jumpi\n      dup1\n      0x1f\n      lt\n      tag_184\n      jumpi\n      0x0100\n      dup1\n      dup4\n      sload\n      div\n      mul\n      dup4\n      mstore\n      swap2\n      0x20\n      add\n      swap2\n      jump(tag_183)\n    tag_184:\n      dup3\n      add\n      swap2\n      swap1\n      0x00\n      mstore\n      keccak256(0x00, 0x20)\n      swap1\n    tag_185:\n      dup2\n      sload\n      dup2\n      mstore\n      swap1\n      0x01\n      add\n      swap1\n      0x20\n      add\n      dup1\n      dup4\n      gt\n      tag_185\n      jumpi\n      dup3\n      swap1\n      sub\n      0x1f\n      and\n      dup3\n      add\n      swap2\n    tag_183:\n      pop\n      pop\n      pop\n      pop\n      pop\n      swap1\n      dup1\n      0x01\n      add\n      sload\n      swap1\n      pop\n      dup3\n      jump\t// out\n        /* \"@openzeppelin/contracts@4.9/token/ERC20/ERC20.sol\":3987:4136  function allowance(address owner, address spender) public view virtual override returns (uint256) {... */\n    tag_93:\n        /* \"@openzeppelin/contracts@4.9/token/ERC20/ERC20.sol\":4076:4083  uint256 */\n      0x00\n        /* \"@openzeppelin/contracts@4.9/token/ERC20/ERC20.sol\":4102:4113  _allowances */\n      0x01\n        /* \"@openzeppelin/contracts@4.9/token/ERC20/ERC20.sol\":4102:4120  _allowances[owner] */\n      0x00\n        /* \"@openzeppelin/contracts@4.9/token/ERC20/ERC20.sol\":4114:4119  owner */\n      dup5\n        /* \"@openzeppelin/contracts@4.9/token/ERC20/ERC20.sol\":4102:4120  _allowances[owner] */\n      0xffffffffffffffffffffffffffffffffffffffff\n      and\n      0xffffffffffffffffffffffffffffffffffffffff\n      and\n      dup2\n      mstore\n      0x20\n      add\n      swap1\n      dup2\n      mstore\n      0x20\n      add\n      0x00\n      keccak256\n        /* \"@openzeppelin/contracts@4.9/token/ERC20/ERC20.sol\":4102:4129  _allowances[owner][spender] */\n      0x00\n        /* \"@openzeppelin/contracts@4.9/token/ERC20/ERC20.sol\":4121:4128  spender */\n      dup4\n        /* \"@openzeppelin/contracts@4.9/token/ERC20/ERC20.sol\":4102:4129  _allowances[owner][spender] */\n      0xffffffffffffffffffffffffffffffffffffffff\n      and\n      0xffffffffffffffffffffffffffffffffffffffff\n      and\n      dup2\n      mstore\n      0x20\n      add\n      swap1\n      dup2\n      mstore\n      0x20\n      add\n      0x00\n      keccak256\n      sload\n        /* \"@openzeppelin/contracts@4.9/token/ERC20/ERC20.sol\":4095:4129  return _allowances[owner][spender] */\n      swap1\n      pop\n        /* \"@openzeppelin/contracts@4.9/token/ERC20/ERC20.sol\":3987:4136  function allowance(address owner, address spender) public view virtual override returns (uint256) {... */\n      swap3\n      swap2\n      pop\n      pop\n      jump\t// out\n        /* \"contracts/DegenToken.sol\":1342:1701  function buyItem(uint256 itemIndex) public {... */\n    tag_97:\n        /* \"contracts/DegenToken.sol\":1415:1420  items */\n      0x06\n        /* \"contracts/DegenToken.sol\":1415:1427  items.length */\n      dup1\n      sload\n      swap1\n      pop\n        /* \"contracts/DegenToken.sol\":1403:1412  itemIndex */\n      dup2\n        /* \"contracts/DegenToken.sol\":1403:1427  itemIndex < items.length */\n      lt\n        /* \"contracts/DegenToken.sol\":1395:1456  require(itemIndex < items.length, \"Item index out of bounds\") */\n      tag_188\n      jumpi\n      mload(0x40)\n      0x08c379a000000000000000000000000000000000000000000000000000000000\n      dup2\n      mstore\n      0x04\n      add\n      tag_189\n      swap1\n      tag_123\n      jump\t// in\n    tag_189:\n      mload(0x40)\n      dup1\n      swap2\n      sub\n      swap1\n      revert\n    tag_188:\n        /* \"contracts/DegenToken.sol\":1466:1483  Item storage item */\n      0x00\n        /* \"contracts/DegenToken.sol\":1486:1491  items */\n      0x06\n        /* \"contracts/DegenToken.sol\":1492:1501  itemIndex */\n      dup3\n        /* \"contracts/DegenToken.sol\":1486:1502  items[itemIndex] */\n      dup2\n      sload\n      dup2\n      lt\n      tag_190\n      jumpi\n      tag_191\n      tag_126\n      jump\t// in\n    tag_191:\n    tag_190:\n      swap1\n      0x00\n      mstore\n      keccak256(0x00, 0x20)\n      swap1\n      0x02\n      mul\n      add\n        /* \"contracts/DegenToken.sol\":1466:1502  Item storage item = items[itemIndex] */\n      swap1\n      pop\n        /* \"contracts/DegenToken.sol\":1545:1549  item */\n      dup1\n        /* \"contracts/DegenToken.sol\":1545:1555  item.price */\n      0x01\n      add\n      sload\n        /* \"contracts/DegenToken.sol\":1520:1541  balanceOf(msg.sender) */\n      tag_193\n        /* \"contracts/DegenToken.sol\":1530:1540  msg.sender */\n      caller\n        /* \"contracts/DegenToken.sol\":1520:1529  balanceOf */\n      tag_64\n        /* \"contracts/DegenToken.sol\":1520:1541  balanceOf(msg.sender) */\n      jump\t// in\n    tag_193:\n        /* \"contracts/DegenToken.sol\":1520:1555  balanceOf(msg.sender) >= item.price */\n      lt\n      iszero\n        /* \"contracts/DegenToken.sol\":1512:1592  require(balanceOf(msg.sender) >= item.price, \"Insufficient balance to buy item\") */\n      tag_194\n      jumpi\n      mload(0x40)\n      0x08c379a000000000000000000000000000000000000000000000000000000000\n      dup2\n      mstore\n      0x04\n      add\n      tag_195\n      swap1\n      tag_196\n      jump\t// in\n    tag_195:\n      mload(0x40)\n      dup1\n      swap2\n      sub\n      swap1\n      revert\n    tag_194:\n        /* \"contracts/DegenToken.sol\":1602:1631  _burn(msg.sender, item.price) */\n      tag_197\n        /* \"contracts/DegenToken.sol\":1608:1618  msg.sender */\n      caller\n        /* \"contracts/DegenToken.sol\":1620:1624  item */\n      dup3\n        /* \"contracts/DegenToken.sol\":1620:1630  item.price */\n      0x01\n      add\n      sload\n        /* \"contracts/DegenToken.sol\":1602:1607  _burn */\n      tag_149\n        /* \"contracts/DegenToken.sol\":1602:1631  _burn(msg.sender, item.price) */\n      jump\t// in\n    tag_197:\n        /* \"contracts/DegenToken.sol\":1660:1670  msg.sender */\n      caller\n        /* \"contracts/DegenToken.sol\":1646:1694  ItemPurchased(msg.sender, item.name, item.price) */\n      0xffffffffffffffffffffffffffffffffffffffff\n      and\n      0xb7cdc79e3be573b5b8b9df08b9f1d71b09b7604268bf72602622feb5de87da48\n        /* \"contracts/DegenToken.sol\":1672:1676  item */\n      dup3\n        /* \"contracts/DegenToken.sol\":1672:1681  item.name */\n      0x00\n      add\n        /* \"contracts/DegenToken.sol\":1683:1687  item */\n      dup4\n        /* \"contracts/DegenToken.sol\":1683:1693  item.price */\n      0x01\n      add\n      sload\n        /* \"contracts/DegenToken.sol\":1646:1694  ItemPurchased(msg.sender, item.name, item.price) */\n      mload(0x40)\n      tag_198\n      swap3\n      swap2\n      swap1\n      tag_199\n      jump\t// in\n    tag_198:\n      mload(0x40)\n      dup1\n      swap2\n      sub\n      swap1\n      log2\n        /* \"contracts/DegenToken.sol\":1385:1701  {... */\n      pop\n        /* \"contracts/DegenToken.sol\":1342:1701  function buyItem(uint256 itemIndex) public {... */\n      pop\n      jump\t// out\n        /* \"@openzeppelin/contracts@4.9/access/Ownable.sol\":2074:2272  function transferOwnership(address newOwner) public virtual onlyOwner {... */\n    tag_100:\n        /* \"@openzeppelin/contracts@4.9/access/Ownable.sol\":1094:1107  _checkOwner() */\n      tag_201\n        /* \"@openzeppelin/contracts@4.9/access/Ownable.sol\":1094:1105  _checkOwner */\n      tag_153\n        /* \"@openzeppelin/contracts@4.9/access/Ownable.sol\":1094:1107  _checkOwner() */\n      jump\t// in\n    tag_201:\n        /* \"@openzeppelin/contracts@4.9/access/Ownable.sol\":2182:2183  0 */\n      0x00\n        /* \"@openzeppelin/contracts@4.9/access/Ownable.sol\":2162:2184  newOwner != address(0) */\n      0xffffffffffffffffffffffffffffffffffffffff\n      and\n        /* \"@openzeppelin/contracts@4.9/access/Ownable.sol\":2162:2170  newOwner */\n      dup2\n        /* \"@openzeppelin/contracts@4.9/access/Ownable.sol\":2162:2184  newOwner != address(0) */\n      0xffffffffffffffffffffffffffffffffffffffff\n      and\n      sub\n        /* \"@openzeppelin/contracts@4.9/access/Ownable.sol\":2154:2227  require(newOwner != address(0), \"Ownable: new owner is the zero address\") */\n      tag_203\n      jumpi\n      mload(0x40)\n      0x08c379a000000000000000000000000000000000000000000000000000000000\n      dup2\n      mstore\n      0x04\n      add\n      tag_204\n      swap1\n      tag_205\n      jump\t// in\n    tag_204:\n      mload(0x40)\n      dup1\n      swap2\n      sub\n      swap1\n      revert\n    tag_203:\n        /* \"@openzeppelin/contracts@4.9/access/Ownable.sol\":2237:2265  _transferOwnership(newOwner) */\n      tag_206\n        /* \"@openzeppelin/contracts@4.9/access/Ownable.sol\":2256:2264  newOwner */\n      dup2\n        /* \"@openzeppelin/contracts@4.9/access/Ownable.sol\":2237:2255  _transferOwnership */\n      tag_156\n        /* \"@openzeppelin/contracts@4.9/access/Ownable.sol\":2237:2265  _transferOwnership(newOwner) */\n      jump\t// in\n    tag_206:\n        /* \"@openzeppelin/contracts@4.9/access/Ownable.sol\":2074:2272  function transferOwnership(address newOwner) public virtual onlyOwner {... */\n      pop\n      jump\t// out\n        /* \"@openzeppelin/contracts@4.9/utils/Context.sol\":655:751  function _msgSender() internal view virtual returns (address) {... */\n    tag_110:\n        /* \"@openzeppelin/contracts@4.9/utils/Context.sol\":708:715  address */\n      0x00\n        /* \"@openzeppelin/contracts@4.9/utils/Context.sol\":734:744  msg.sender */\n      caller\n        /* \"@openzeppelin/contracts@4.9/utils/Context.sol\":727:744  return msg.sender */\n      swap1\n      pop\n        /* \"@openzeppelin/contracts@4.9/utils/Context.sol\":655:751  function _msgSender() internal view virtual returns (address) {... */\n      swap1\n      jump\t// out\n        /* \"@openzeppelin/contracts@4.9/token/ERC20/ERC20.sol\":10457:10797  function _approve(address owner, address spender, uint256 amount) internal virtual {... */\n    tag_112:\n        /* \"@openzeppelin/contracts@4.9/token/ERC20/ERC20.sol\":10575:10576  0 */\n      0x00\n        /* \"@openzeppelin/contracts@4.9/token/ERC20/ERC20.sol\":10558:10577  owner != address(0) */\n      0xffffffffffffffffffffffffffffffffffffffff\n      and\n        /* \"@openzeppelin/contracts@4.9/token/ERC20/ERC20.sol\":10558:10563  owner */\n      dup4\n        /* \"@openzeppelin/contracts@4.9/token/ERC20/ERC20.sol\":10558:10577  owner != address(0) */\n      0xffffffffffffffffffffffffffffffffffffffff\n      and\n      sub\n        /* \"@openzeppelin/contracts@4.9/token/ERC20/ERC20.sol\":10550:10618  require(owner != address(0), \"ERC20: approve from the zero address\") */\n      tag_209\n      jumpi\n      mload(0x40)\n      0x08c379a000000000000000000000000000000000000000000000000000000000\n      dup2\n      mstore\n      0x04\n      add\n      tag_210\n      swap1\n      tag_211\n      jump\t// in\n    tag_210:\n      mload(0x40)\n      dup1\n      swap2\n      sub\n      swap1\n      revert\n    tag_209:\n        /* \"@openzeppelin/contracts@4.9/token/ERC20/ERC20.sol\":10655:10656  0 */\n      0x00\n        /* \"@openzeppelin/contracts@4.9/token/ERC20/ERC20.sol\":10636:10657  spender != address(0) */\n      0xffffffffffffffffffffffffffffffffffffffff\n      and\n        /* \"@openzeppelin/contracts@4.9/token/ERC20/ERC20.sol\":10636:10643  spender */\n      dup3\n        /* \"@openzeppelin/contracts@4.9/token/ERC20/ERC20.sol\":10636:10657  spender != address(0) */\n      0xffffffffffffffffffffffffffffffffffffffff\n      and\n      sub\n        /* \"@openzeppelin/contracts@4.9/token/ERC20/ERC20.sol\":10628:10696  require(spender != address(0), \"ERC20: approve to the zero address\") */\n      tag_212\n      jumpi\n      mload(0x40)\n      0x08c379a000000000000000000000000000000000000000000000000000000000\n      dup2\n      mstore\n      0x04\n      add\n      tag_213\n      swap1\n      tag_214\n      jump\t// in\n    tag_213:\n      mload(0x40)\n      dup1\n      swap2\n      sub\n      swap1\n      revert\n    tag_212:\n        /* \"@openzeppelin/contracts@4.9/token/ERC20/ERC20.sol\":10737:10743  amount */\n      dup1\n        /* \"@openzeppelin/contracts@4.9/token/ERC20/ERC20.sol\":10707:10718  _allowances */\n      0x01\n        /* \"@openzeppelin/contracts@4.9/token/ERC20/ERC20.sol\":10707:10725  _allowances[owner] */\n      0x00\n        /* \"@openzeppelin/contracts@4.9/token/ERC20/ERC20.sol\":10719:10724  owner */\n      dup6\n        /* \"@openzeppelin/contracts@4.9/token/ERC20/ERC20.sol\":10707:10725  _allowances[owner] */\n      0xffffffffffffffffffffffffffffffffffffffff\n      and\n      0xffffffffffffffffffffffffffffffffffffffff\n      and\n      dup2\n      mstore\n      0x20\n      add\n      swap1\n      dup2\n      mstore\n      0x20\n      add\n      0x00\n      keccak256\n        /* \"@openzeppelin/contracts@4.9/token/ERC20/ERC20.sol\":10707:10734  _allowances[owner][spender] */\n      0x00\n        /* \"@openzeppelin/contracts@4.9/token/ERC20/ERC20.sol\":10726:10733  spender */\n      dup5\n        /* \"@openzeppelin/contracts@4.9/token/ERC20/ERC20.sol\":10707:10734  _allowances[owner][spender] */\n      0xffffffffffffffffffffffffffffffffffffffff\n      and\n      0xffffffffffffffffffffffffffffffffffffffff\n      and\n      dup2\n      mstore\n      0x20\n      add\n      swap1\n      dup2\n      mstore\n      0x20\n      add\n      0x00\n      keccak256\n        /* \"@openzeppelin/contracts@4.9/token/ERC20/ERC20.sol\":10707:10743  _allowances[owner][spender] = amount */\n      dup2\n      swap1\n      sstore\n      pop\n        /* \"@openzeppelin/contracts@4.9/token/ERC20/ERC20.sol\":10774:10781  spender */\n      dup2\n        /* \"@openzeppelin/contracts@4.9/token/ERC20/ERC20.sol\":10758:10790  Approval(owner, spender, amount) */\n      0xffffffffffffffffffffffffffffffffffffffff\n      and\n        /* \"@openzeppelin/contracts@4.9/token/ERC20/ERC20.sol\":10767:10772  owner */\n      dup4\n        /* \"@openzeppelin/contracts@4.9/token/ERC20/ERC20.sol\":10758:10790  Approval(owner, spender, amount) */\n      0xffffffffffffffffffffffffffffffffffffffff\n      and\n      0x8c5be1e5ebec7d5bd14f71427d1e84f3dd0314c0f7b2291e5b200ac8c7c3b925\n        /* \"@openzeppelin/contracts@4.9/token/ERC20/ERC20.sol\":10783:10789  amount */\n      dup4\n        /* \"@openzeppelin/contracts@4.9/token/ERC20/ERC20.sol\":10758:10790  Approval(owner, spender, amount) */\n      mload(0x40)\n      tag_215\n      swap2\n      swap1\n      tag_38\n      jump\t// in\n    tag_215:\n      mload(0x40)\n      dup1\n      swap2\n      sub\n      swap1\n      log3\n        /* \"@openzeppelin/contracts@4.9/token/ERC20/ERC20.sol\":10457:10797  function _approve(address owner, address spender, uint256 amount) internal virtual {... */\n      pop\n      pop\n      pop\n      jump\t// out\n        /* \"@openzeppelin/contracts@4.9/token/ERC20/ERC20.sol\":11078:11489  function _spendAllowance(address owner, address spender, uint256 amount) internal virtual {... */\n    tag_117:\n        /* \"@openzeppelin/contracts@4.9/token/ERC20/ERC20.sol\":11178:11202  uint256 currentAllowance */\n      0x00\n        /* \"@openzeppelin/contracts@4.9/token/ERC20/ERC20.sol\":11205:11230  allowance(owner, spender) */\n      tag_217\n        /* \"@openzeppelin/contracts@4.9/token/ERC20/ERC20.sol\":11215:11220  owner */\n      dup5\n        /* \"@openzeppelin/contracts@4.9/token/ERC20/ERC20.sol\":11222:11229  spender */\n      dup5\n        /* \"@openzeppelin/contracts@4.9/token/ERC20/ERC20.sol\":11205:11214  allowance */\n      tag_93\n        /* \"@openzeppelin/contracts@4.9/token/ERC20/ERC20.sol\":11205:11230  allowance(owner, spender) */\n      jump\t// in\n    tag_217:\n        /* \"@openzeppelin/contracts@4.9/token/ERC20/ERC20.sol\":11178:11230  uint256 currentAllowance = allowance(owner, spender) */\n      swap1\n      pop\n        /* \"@openzeppelin/contracts@4.9/token/ERC20/ERC20.sol\":11264:11281  type(uint256).max */\n      0xffffffffffffffffffffffffffffffffffffffffffffffffffffffffffffffff\n        /* \"@openzeppelin/contracts@4.9/token/ERC20/ERC20.sol\":11244:11260  currentAllowance */\n      dup2\n        /* \"@openzeppelin/contracts@4.9/token/ERC20/ERC20.sol\":11244:11281  currentAllowance != type(uint256).max */\n      eq\n        /* \"@openzeppelin/contracts@4.9/token/ERC20/ERC20.sol\":11240:11483  if (currentAllowance != type(uint256).max) {... */\n      tag_218\n      jumpi\n        /* \"@openzeppelin/contracts@4.9/token/ERC20/ERC20.sol\":11325:11331  amount */\n      dup2\n        /* \"@openzeppelin/contracts@4.9/token/ERC20/ERC20.sol\":11305:11321  currentAllowance */\n      dup2\n        /* \"@openzeppelin/contracts@4.9/token/ERC20/ERC20.sol\":11305:11331  currentAllowance >= amount */\n      lt\n      iszero\n        /* \"@openzeppelin/contracts@4.9/token/ERC20/ERC20.sol\":11297:11365  require(currentAllowance >= amount, \"ERC20: insufficient allowance\") */\n      tag_219\n      jumpi\n      mload(0x40)\n      0x08c379a000000000000000000000000000000000000000000000000000000000\n      dup2\n      mstore\n      0x04\n      add\n      tag_220\n      swap1\n      tag_221\n      jump\t// in\n    tag_220:\n      mload(0x40)\n      dup1\n      swap2\n      sub\n      swap1\n      revert\n    tag_219:\n        /* \"@openzeppelin/contracts@4.9/token/ERC20/ERC20.sol\":11407:11458  _approve(owner, spender, currentAllowance - amount) */\n      tag_222\n        /* \"@openzeppelin/contracts@4.9/token/ERC20/ERC20.sol\":11416:11421  owner */\n      dup5\n        /* \"@openzeppelin/contracts@4.9/token/ERC20/ERC20.sol\":11423:11430  spender */\n      dup5\n        /* \"@openzeppelin/contracts@4.9/token/ERC20/ERC20.sol\":11451:11457  amount */\n      dup5\n        /* \"@openzeppelin/contracts@4.9/token/ERC20/ERC20.sol\":11432:11448  currentAllowance */\n      dup5\n        /* \"@openzeppelin/contracts@4.9/token/ERC20/ERC20.sol\":11432:11457  currentAllowance - amount */\n      sub\n        /* \"@openzeppelin/contracts@4.9/token/ERC20/ERC20.sol\":11407:11415  _approve */\n      tag_112\n        /* \"@openzeppelin/contracts@4.9/token/ERC20/ERC20.sol\":11407:11458  _approve(owner, spender, currentAllowance - amount) */\n      jump\t// in\n    tag_222:\n        /* \"@openzeppelin/contracts@4.9/token/ERC20/ERC20.sol\":11240:11483  if (currentAllowance != type(uint256).max) {... */\n    tag_218:\n        /* \"@openzeppelin/contracts@4.9/token/ERC20/ERC20.sol\":11168:11489  {... */\n      pop\n        /* \"@openzeppelin/contracts@4.9/token/ERC20/ERC20.sol\":11078:11489  function _spendAllowance(address owner, address spender, uint256 amount) internal virtual {... */\n      pop\n      pop\n      pop\n      jump\t// out\n        /* \"@openzeppelin/contracts@4.9/token/ERC20/ERC20.sol\":7456:8244  function _transfer(address from, address to, uint256 amount) internal virtual {... */\n    tag_119:\n        /* \"@openzeppelin/contracts@4.9/token/ERC20/ERC20.sol\":7568:7569  0 */\n      0x00\n        /* \"@openzeppelin/contracts@4.9/token/ERC20/ERC20.sol\":7552:7570  from != address(0) */\n      0xffffffffffffffffffffffffffffffffffffffff\n      and\n        /* \"@openzeppelin/contracts@4.9/token/ERC20/ERC20.sol\":7552:7556  from */\n      dup4\n        /* \"@openzeppelin/contracts@4.9/token/ERC20/ERC20.sol\":7552:7570  from != address(0) */\n      0xffffffffffffffffffffffffffffffffffffffff\n      and\n      sub\n        /* \"@openzeppelin/contracts@4.9/token/ERC20/ERC20.sol\":7544:7612  require(from != address(0), \"ERC20: transfer from the zero address\") */\n      tag_224\n      jumpi\n      mload(0x40)\n      0x08c379a000000000000000000000000000000000000000000000000000000000\n      dup2\n      mstore\n      0x04\n      add\n      tag_225\n      swap1\n      tag_226\n      jump\t// in\n    tag_225:\n      mload(0x40)\n      dup1\n      swap2\n      sub\n      swap1\n      revert\n    tag_224:\n        /* \"@openzeppelin/contracts@4.9/token/ERC20/ERC20.sol\":7644:7645  0 */\n      0x00\n        /* \"@openzeppelin/contracts@4.9/token/ERC20/ERC20.sol\":7630:7646  to != address(0) */\n      0xffffffffffffffffffffffffffffffffffffffff\n      and\n        /* \"@openzeppelin/contracts@4.9/token/ERC20/ERC20.sol\":7630:7632  to */\n      dup3\n        /* \"@openzeppelin/contracts@4.9/token/ERC20/ERC20.sol\":7630:7646  to != address(0) */\n      0xffffffffffffffffffffffffffffffffffffffff\n      and\n      sub\n        /* \"@openzeppelin/contracts@4.9/token/ERC20/ERC20.sol\":7622:7686  require(to != address(0), \"ERC20: transfer to the zero address\") */\n      tag_227\n      jumpi\n      mload(0x40)\n      0x08c379a000000000000000000000000000000000000000000000000000000000\n      dup2\n      mstore\n      0x04\n      add\n      tag_228\n      swap1\n      tag_229\n      jump\t// in\n    tag_228:\n      mload(0x40)\n      dup1\n      swap2\n      sub\n      swap1\n      revert\n    tag_227:\n        /* \"@openzeppelin/contracts@4.9/token/ERC20/ERC20.sol\":7697:7735  _beforeTokenTransfer(from, to, amount) */\n      tag_230\n        /* \"@openzeppelin/contracts@4.9/token/ERC20/ERC20.sol\":7718:7722  from */\n      dup4\n        /* \"@openzeppelin/contracts@4.9/token/ERC20/ERC20.sol\":7724:7726  to */\n      dup4\n        /* \"@openzeppelin/contracts@4.9/token/ERC20/ERC20.sol\":7728:7734  amount */\n      dup4\n        /* \"@openzeppelin/contracts@4.9/token/ERC20/ERC20.sol\":7697:7717  _beforeTokenTransfer */\n      tag_231\n        /* \"@openzeppelin/contracts@4.9/token/ERC20/ERC20.sol\":7697:7735  _beforeTokenTransfer(from, to, amount) */\n      jump\t// in\n    tag_230:\n        /* \"@openzeppelin/contracts@4.9/token/ERC20/ERC20.sol\":7746:7765  uint256 fromBalance */\n      0x00\n        /* \"@openzeppelin/contracts@4.9/token/ERC20/ERC20.sol\":7768:7777  _balances */\n      dup1\n        /* \"@openzeppelin/contracts@4.9/token/ERC20/ERC20.sol\":7768:7783  _balances[from] */\n      0x00\n        /* \"@openzeppelin/contracts@4.9/token/ERC20/ERC20.sol\":7778:7782  from */\n      dup6\n        /* \"@openzeppelin/contracts@4.9/token/ERC20/ERC20.sol\":7768:7783  _balances[from] */\n      0xffffffffffffffffffffffffffffffffffffffff\n      and\n      0xffffffffffffffffffffffffffffffffffffffff\n      and\n      dup2\n      mstore\n      0x20\n      add\n      swap1\n      dup2\n      mstore\n      0x20\n      add\n      0x00\n      keccak256\n      sload\n        /* \"@openzeppelin/contracts@4.9/token/ERC20/ERC20.sol\":7746:7783  uint256 fromBalance = _balances[from] */\n      swap1\n      pop\n        /* \"@openzeppelin/contracts@4.9/token/ERC20/ERC20.sol\":7816:7822  amount */\n      dup2\n        /* \"@openzeppelin/contracts@4.9/token/ERC20/ERC20.sol\":7801:7812  fromBalance */\n      dup2\n        /* \"@openzeppelin/contracts@4.9/token/ERC20/ERC20.sol\":7801:7822  fromBalance >= amount */\n      lt\n      iszero\n        /* \"@openzeppelin/contracts@4.9/token/ERC20/ERC20.sol\":7793:7865  require(fromBalance >= amount, \"ERC20: transfer amount exceeds balance\") */\n      tag_232\n      jumpi\n      mload(0x40)\n      0x08c379a000000000000000000000000000000000000000000000000000000000\n      dup2\n      mstore\n      0x04\n      add\n      tag_233\n      swap1\n      tag_234\n      jump\t// in\n    tag_233:\n      mload(0x40)\n      dup1\n      swap2\n      sub\n      swap1\n      revert\n    tag_232:\n        /* \"@openzeppelin/contracts@4.9/token/ERC20/ERC20.sol\":7931:7937  amount */\n      dup2\n        /* \"@openzeppelin/contracts@4.9/token/ERC20/ERC20.sol\":7917:7928  fromBalance */\n      dup2\n        /* \"@openzeppelin/contracts@4.9/token/ERC20/ERC20.sol\":7917:7937  fromBalance - amount */\n      sub\n        /* \"@openzeppelin/contracts@4.9/token/ERC20/ERC20.sol\":7899:7908  _balances */\n      0x00\n        /* \"@openzeppelin/contracts@4.9/token/ERC20/ERC20.sol\":7899:7914  _balances[from] */\n      dup1\n        /* \"@openzeppelin/contracts@4.9/token/ERC20/ERC20.sol\":7909:7913  from */\n      dup7\n        /* \"@openzeppelin/contracts@4.9/token/ERC20/ERC20.sol\":7899:7914  _balances[from] */\n      0xffffffffffffffffffffffffffffffffffffffff\n      and\n      0xffffffffffffffffffffffffffffffffffffffff\n      and\n      dup2\n      mstore\n      0x20\n      add\n      swap1\n      dup2\n      mstore\n      0x20\n      add\n      0x00\n      keccak256\n        /* \"@openzeppelin/contracts@4.9/token/ERC20/ERC20.sol\":7899:7937  _balances[from] = fromBalance - amount */\n      dup2\n      swap1\n      sstore\n      pop\n        /* \"@openzeppelin/contracts@4.9/token/ERC20/ERC20.sol\":8131:8137  amount */\n      dup2\n        /* \"@openzeppelin/contracts@4.9/token/ERC20/ERC20.sol\":8114:8123  _balances */\n      0x00\n        /* \"@openzeppelin/contracts@4.9/token/ERC20/ERC20.sol\":8114:8127  _balances[to] */\n      dup1\n        /* \"@openzeppelin/contracts@4.9/token/ERC20/ERC20.sol\":8124:8126  to */\n      dup6\n        /* \"@openzeppelin/contracts@4.9/token/ERC20/ERC20.sol\":8114:8127  _balances[to] */\n      0xffffffffffffffffffffffffffffffffffffffff\n      and\n      0xffffffffffffffffffffffffffffffffffffffff\n      and\n      dup2\n      mstore\n      0x20\n      add\n      swap1\n      dup2\n      mstore\n      0x20\n      add\n      0x00\n      keccak256\n      0x00\n        /* \"@openzeppelin/contracts@4.9/token/ERC20/ERC20.sol\":8114:8137  _balances[to] += amount */\n      dup3\n      dup3\n      sload\n      add\n      swap3\n      pop\n      pop\n      dup2\n      swap1\n      sstore\n      pop\n        /* \"@openzeppelin/contracts@4.9/token/ERC20/ERC20.sol\":8178:8180  to */\n      dup3\n        /* \"@openzeppelin/contracts@4.9/token/ERC20/ERC20.sol\":8163:8189  Transfer(from, to, amount) */\n      0xffffffffffffffffffffffffffffffffffffffff\n      and\n        /* \"@openzeppelin/contracts@4.9/token/ERC20/ERC20.sol\":8172:8176  from */\n      dup5\n        /* \"@openzeppelin/contracts@4.9/token/ERC20/ERC20.sol\":8163:8189  Transfer(from, to, amount) */\n      0xffffffffffffffffffffffffffffffffffffffff\n      and\n      0xddf252ad1be2c89b69c2b068fc378daa952ba7f163c4a11628f55a4df523b3ef\n        /* \"@openzeppelin/contracts@4.9/token/ERC20/ERC20.sol\":8182:8188  amount */\n      dup5\n        /* \"@openzeppelin/contracts@4.9/token/ERC20/ERC20.sol\":8163:8189  Transfer(from, to, amount) */\n      mload(0x40)\n      tag_235\n      swap2\n      swap1\n      tag_38\n      jump\t// in\n    tag_235:\n      mload(0x40)\n      dup1\n      swap2\n      sub\n      swap1\n      log3\n        /* \"@openzeppelin/contracts@4.9/token/ERC20/ERC20.sol\":8200:8237  _afterTokenTransfer(from, to, amount) */\n      tag_236\n        /* \"@openzeppelin/contracts@4.9/token/ERC20/ERC20.sol\":8220:8224  from */\n      dup5\n        /* \"@openzeppelin/contracts@4.9/token/ERC20/ERC20.sol\":8226:8228  to */\n      dup5\n        /* \"@openzeppelin/contracts@4.9/token/ERC20/ERC20.sol\":8230:8236  amount */\n      dup5\n        /* \"@openzeppelin/contracts@4.9/token/ERC20/ERC20.sol\":8200:8219  _afterTokenTransfer */\n      tag_237\n        /* \"@openzeppelin/contracts@4.9/token/ERC20/ERC20.sol\":8200:8237  _afterTokenTransfer(from, to, amount) */\n      jump\t// in\n    tag_236:\n        /* \"@openzeppelin/contracts@4.9/token/ERC20/ERC20.sol\":7534:8244  {... */\n      pop\n        /* \"@openzeppelin/contracts@4.9/token/ERC20/ERC20.sol\":7456:8244  function _transfer(address from, address to, uint256 amount) internal virtual {... */\n      pop\n      pop\n      pop\n      jump\t// out\n        /* \"@openzeppelin/contracts@4.9/token/ERC20/ERC20.sol\":9375:10034  function _burn(address account, uint256 amount) internal virtual {... */\n    tag_149:\n        /* \"@openzeppelin/contracts@4.9/token/ERC20/ERC20.sol\":9477:9478  0 */\n      0x00\n        /* \"@openzeppelin/contracts@4.9/token/ERC20/ERC20.sol\":9458:9479  account != address(0) */\n      0xffffffffffffffffffffffffffffffffffffffff\n      and\n        /* \"@openzeppelin/contracts@4.9/token/ERC20/ERC20.sol\":9458:9465  account */\n      dup3\n        /* \"@openzeppelin/contracts@4.9/token/ERC20/ERC20.sol\":9458:9479  account != address(0) */\n      0xffffffffffffffffffffffffffffffffffffffff\n      and\n      sub\n        /* \"@openzeppelin/contracts@4.9/token/ERC20/ERC20.sol\":9450:9517  require(account != address(0), \"ERC20: burn from the zero address\") */\n      tag_239\n      jumpi\n      mload(0x40)\n      0x08c379a000000000000000000000000000000000000000000000000000000000\n      dup2\n      mstore\n      0x04\n      add\n      tag_240\n      swap1\n      tag_241\n      jump\t// in\n    tag_240:\n      mload(0x40)\n      dup1\n      swap2\n      sub\n      swap1\n      revert\n    tag_239:\n        /* \"@openzeppelin/contracts@4.9/token/ERC20/ERC20.sol\":9528:9577  _beforeTokenTransfer(account, address(0), amount) */\n      tag_242\n        /* \"@openzeppelin/contracts@4.9/token/ERC20/ERC20.sol\":9549:9556  account */\n      dup3\n        /* \"@openzeppelin/contracts@4.9/token/ERC20/ERC20.sol\":9566:9567  0 */\n      0x00\n        /* \"@openzeppelin/contracts@4.9/token/ERC20/ERC20.sol\":9570:9576  amount */\n      dup4\n        /* \"@openzeppelin/contracts@4.9/token/ERC20/ERC20.sol\":9528:9548  _beforeTokenTransfer */\n      tag_231\n        /* \"@openzeppelin/contracts@4.9/token/ERC20/ERC20.sol\":9528:9577  _beforeTokenTransfer(account, address(0), amount) */\n      jump\t// in\n    tag_242:\n        /* \"@openzeppelin/contracts@4.9/token/ERC20/ERC20.sol\":9588:9610  uint256 accountBalance */\n      0x00\n        /* \"@openzeppelin/contracts@4.9/token/ERC20/ERC20.sol\":9613:9622  _balances */\n      dup1\n        /* \"@openzeppelin/contracts@4.9/token/ERC20/ERC20.sol\":9613:9631  _balances[account] */\n      0x00\n        /* \"@openzeppelin/contracts@4.9/token/ERC20/ERC20.sol\":9623:9630  account */\n      dup5\n        /* \"@openzeppelin/contracts@4.9/token/ERC20/ERC20.sol\":9613:9631  _balances[account] */\n      0xffffffffffffffffffffffffffffffffffffffff\n      and\n      0xffffffffffffffffffffffffffffffffffffffff\n      and\n      dup2\n      mstore\n      0x20\n      add\n      swap1\n      dup2\n      mstore\n      0x20\n      add\n      0x00\n      keccak256\n      sload\n        /* \"@openzeppelin/contracts@4.9/token/ERC20/ERC20.sol\":9588:9631  uint256 accountBalance = _balances[account] */\n      swap1\n      pop\n        /* \"@openzeppelin/contracts@4.9/token/ERC20/ERC20.sol\":9667:9673  amount */\n      dup2\n        /* \"@openzeppelin/contracts@4.9/token/ERC20/ERC20.sol\":9649:9663  accountBalance */\n      dup2\n        /* \"@openzeppelin/contracts@4.9/token/ERC20/ERC20.sol\":9649:9673  accountBalance >= amount */\n      lt\n      iszero\n        /* \"@openzeppelin/contracts@4.9/token/ERC20/ERC20.sol\":9641:9712  require(accountBalance >= amount, \"ERC20: burn amount exceeds balance\") */\n      tag_243\n      jumpi\n      mload(0x40)\n      0x08c379a000000000000000000000000000000000000000000000000000000000\n      dup2\n      mstore\n      0x04\n      add\n      tag_244\n      swap1\n      tag_245\n      jump\t// in\n    tag_244:\n      mload(0x40)\n      dup1\n      swap2\n      sub\n      swap1\n      revert\n    tag_243:\n        /* \"@openzeppelin/contracts@4.9/token/ERC20/ERC20.sol\":9784:9790  amount */\n      dup2\n        /* \"@openzeppelin/contracts@4.9/token/ERC20/ERC20.sol\":9767:9781  accountBalance */\n      dup2\n        /* \"@openzeppelin/contracts@4.9/token/ERC20/ERC20.sol\":9767:9790  accountBalance - amount */\n      sub\n        /* \"@openzeppelin/contracts@4.9/token/ERC20/ERC20.sol\":9746:9755  _balances */\n      0x00\n        /* \"@openzeppelin/contracts@4.9/token/ERC20/ERC20.sol\":9746:9764  _balances[account] */\n      dup1\n        /* \"@openzeppelin/contracts@4.9/token/ERC20/ERC20.sol\":9756:9763  account */\n      dup6\n        /* \"@openzeppelin/contracts@4.9/token/ERC20/ERC20.sol\":9746:9764  _balances[account] */\n      0xffffffffffffffffffffffffffffffffffffffff\n      and\n      0xffffffffffffffffffffffffffffffffffffffff\n      and\n      dup2\n      mstore\n      0x20\n      add\n      swap1\n      dup2\n      mstore\n      0x20\n      add\n      0x00\n      keccak256\n        /* \"@openzeppelin/contracts@4.9/token/ERC20/ERC20.sol\":9746:9790  _balances[account] = accountBalance - amount */\n      dup2\n      swap1\n      sstore\n      pop\n        /* \"@openzeppelin/contracts@4.9/token/ERC20/ERC20.sol\":9899:9905  amount */\n      dup2\n        /* \"@openzeppelin/contracts@4.9/token/ERC20/ERC20.sol\":9883:9895  _totalSupply */\n      0x02\n      0x00\n        /* \"@openzeppelin/contracts@4.9/token/ERC20/ERC20.sol\":9883:9905  _totalSupply -= amount */\n      dup3\n      dup3\n      sload\n      sub\n      swap3\n      pop\n      pop\n      dup2\n      swap1\n      sstore\n      pop\n        /* \"@openzeppelin/contracts@4.9/token/ERC20/ERC20.sol\":9957:9958  0 */\n      0x00\n        /* \"@openzeppelin/contracts@4.9/token/ERC20/ERC20.sol\":9931:9968  Transfer(account, address(0), amount) */\n      0xffffffffffffffffffffffffffffffffffffffff\n      and\n        /* \"@openzeppelin/contracts@4.9/token/ERC20/ERC20.sol\":9940:9947  account */\n      dup4\n        /* \"@openzeppelin/contracts@4.9/token/ERC20/ERC20.sol\":9931:9968  Transfer(account, address(0), amount) */\n      0xffffffffffffffffffffffffffffffffffffffff\n      and\n      0xddf252ad1be2c89b69c2b068fc378daa952ba7f163c4a11628f55a4df523b3ef\n        /* \"@openzeppelin/contracts@4.9/token/ERC20/ERC20.sol\":9961:9967  amount */\n      dup5\n        /* \"@openzeppelin/contracts@4.9/token/ERC20/ERC20.sol\":9931:9968  Transfer(account, address(0), amount) */\n      mload(0x40)\n      tag_246\n      swap2\n      swap1\n      tag_38\n      jump\t// in\n    tag_246:\n      mload(0x40)\n      dup1\n      swap2\n      sub\n      swap1\n      log3\n        /* \"@openzeppelin/contracts@4.9/token/ERC20/ERC20.sol\":9979:10027  _afterTokenTransfer(account, address(0), amount) */\n      tag_247\n        /* \"@openzeppelin/contracts@4.9/token/ERC20/ERC20.sol\":9999:10006  account */\n      dup4\n        /* \"@openzeppelin/contracts@4.9/token/ERC20/ERC20.sol\":10016:10017  0 */\n      0x00\n        /* \"@openzeppelin/contracts@4.9/token/ERC20/ERC20.sol\":10020:10026  amount */\n      dup5\n        /* \"@openzeppelin/contracts@4.9/token/ERC20/ERC20.sol\":9979:9998  _afterTokenTransfer */\n      tag_237\n        /* \"@openzeppelin/contracts@4.9/token/ERC20/ERC20.sol\":9979:10027  _afterTokenTransfer(account, address(0), amount) */\n      jump\t// in\n    tag_247:\n        /* \"@openzeppelin/contracts@4.9/token/ERC20/ERC20.sol\":9440:10034  {... */\n      pop\n        /* \"@openzeppelin/contracts@4.9/token/ERC20/ERC20.sol\":9375:10034  function _burn(address account, uint256 amount) internal virtual {... */\n      pop\n      pop\n      jump\t// out\n        /* \"@openzeppelin/contracts@4.9/access/Ownable.sol\":1359:1489  function _checkOwner() internal view virtual {... */\n    tag_153:\n        /* \"@openzeppelin/contracts@4.9/access/Ownable.sol\":1433:1445  _msgSender() */\n      tag_249\n        /* \"@openzeppelin/contracts@4.9/access/Ownable.sol\":1433:1443  _msgSender */\n      tag_110\n        /* \"@openzeppelin/contracts@4.9/access/Ownable.sol\":1433:1445  _msgSender() */\n      jump\t// in\n    tag_249:\n        /* \"@openzeppelin/contracts@4.9/access/Ownable.sol\":1422:1445  owner() == _msgSender() */\n      0xffffffffffffffffffffffffffffffffffffffff\n      and\n        /* \"@openzeppelin/contracts@4.9/access/Ownable.sol\":1422:1429  owner() */\n      tag_250\n        /* \"@openzeppelin/contracts@4.9/access/Ownable.sol\":1422:1427  owner */\n      tag_69\n        /* \"@openzeppelin/contracts@4.9/access/Ownable.sol\":1422:1429  owner() */\n      jump\t// in\n    tag_250:\n        /* \"@openzeppelin/contracts@4.9/access/Ownable.sol\":1422:1445  owner() == _msgSender() */\n      0xffffffffffffffffffffffffffffffffffffffff\n      and\n      eq\n        /* \"@openzeppelin/contracts@4.9/access/Ownable.sol\":1414:1482  require(owner() == _msgSender(), \"Ownable: caller is not the owner\") */\n      tag_251\n      jumpi\n      mload(0x40)\n      0x08c379a000000000000000000000000000000000000000000000000000000000\n      dup2\n      mstore\n      0x04\n      add\n      tag_252\n      swap1\n      tag_253\n      jump\t// in\n    tag_252:\n      mload(0x40)\n      dup1\n      swap2\n      sub\n      swap1\n      revert\n    tag_251:\n        /* \"@openzeppelin/contracts@4.9/access/Ownable.sol\":1359:1489  function _checkOwner() internal view virtual {... */\n      jump\t// out\n        /* \"@openzeppelin/contracts@4.9/access/Ownable.sol\":2426:2613  function _transferOwnership(address newOwner) internal virtual {... */\n    tag_156:\n        /* \"@openzeppelin/contracts@4.9/access/Ownable.sol\":2499:2515  address oldOwner */\n      0x00\n        /* \"@openzeppelin/contracts@4.9/access/Ownable.sol\":2518:2524  _owner */\n      0x05\n      0x00\n      swap1\n      sload\n      swap1\n      0x0100\n      exp\n      swap1\n      div\n      0xffffffffffffffffffffffffffffffffffffffff\n      and\n        /* \"@openzeppelin/contracts@4.9/access/Ownable.sol\":2499:2524  address oldOwner = _owner */\n      swap1\n      pop\n        /* \"@openzeppelin/contracts@4.9/access/Ownable.sol\":2543:2551  newOwner */\n      dup2\n        /* \"@openzeppelin/contracts@4.9/access/Ownable.sol\":2534:2540  _owner */\n      0x05\n      0x00\n        /* \"@openzeppelin/contracts@4.9/access/Ownable.sol\":2534:2551  _owner = newOwner */\n      0x0100\n      exp\n      dup2\n      sload\n      dup2\n      0xffffffffffffffffffffffffffffffffffffffff\n      mul\n      not\n      and\n      swap1\n      dup4\n      0xffffffffffffffffffffffffffffffffffffffff\n      and\n      mul\n      or\n      swap1\n      sstore\n      pop\n        /* \"@openzeppelin/contracts@4.9/access/Ownable.sol\":2597:2605  newOwner */\n      dup2\n        /* \"@openzeppelin/contracts@4.9/access/Ownable.sol\":2566:2606  OwnershipTransferred(oldOwner, newOwner) */\n      0xffffffffffffffffffffffffffffffffffffffff\n      and\n        /* \"@openzeppelin/contracts@4.9/access/Ownable.sol\":2587:2595  oldOwner */\n      dup2\n        /* \"@openzeppelin/contracts@4.9/access/Ownable.sol\":2566:2606  OwnershipTransferred(oldOwner, newOwner) */\n      0xffffffffffffffffffffffffffffffffffffffff\n      and\n      0x8be0079c531659141344cd1fd0a4f28419497f9722a3daafe3b4186f6b6457e0\n      mload(0x40)\n      mload(0x40)\n      dup1\n      swap2\n      sub\n      swap1\n      log3\n        /* \"@openzeppelin/contracts@4.9/access/Ownable.sol\":2489:2613  {... */\n      pop\n        /* \"@openzeppelin/contracts@4.9/access/Ownable.sol\":2426:2613  function _transferOwnership(address newOwner) internal virtual {... */\n      pop\n      jump\t// out\n        /* \"@openzeppelin/contracts@4.9/token/ERC20/ERC20.sol\":8520:9055  function _mint(address account, uint256 amount) internal virtual {... */\n    tag_168:\n        /* \"@openzeppelin/contracts@4.9/token/ERC20/ERC20.sol\":8622:8623  0 */\n      0x00\n        /* \"@openzeppelin/contracts@4.9/token/ERC20/ERC20.sol\":8603:8624  account != address(0) */\n      0xffffffffffffffffffffffffffffffffffffffff\n      and\n        /* \"@openzeppelin/contracts@4.9/token/ERC20/ERC20.sol\":8603:8610  account */\n      dup3\n        /* \"@openzeppelin/contracts@4.9/token/ERC20/ERC20.sol\":8603:8624  account != address(0) */\n      0xffffffffffffffffffffffffffffffffffffffff\n      and\n      sub\n        /* \"@openzeppelin/contracts@4.9/token/ERC20/ERC20.sol\":8595:8660  require(account != address(0), \"ERC20: mint to the zero address\") */\n      tag_256\n      jumpi\n      mload(0x40)\n      0x08c379a000000000000000000000000000000000000000000000000000000000\n      dup2\n      mstore\n      0x04\n      add\n      tag_257\n      swap1\n      tag_258\n      jump\t// in\n    tag_257:\n      mload(0x40)\n      dup1\n      swap2\n      sub\n      swap1\n      revert\n    tag_256:\n        /* \"@openzeppelin/contracts@4.9/token/ERC20/ERC20.sol\":8671:8720  _beforeTokenTransfer(address(0), account, amount) */\n      tag_259\n        /* \"@openzeppelin/contracts@4.9/token/ERC20/ERC20.sol\":8700:8701  0 */\n      0x00\n        /* \"@openzeppelin/contracts@4.9/token/ERC20/ERC20.sol\":8704:8711  account */\n      dup4\n        /* \"@openzeppelin/contracts@4.9/token/ERC20/ERC20.sol\":8713:8719  amount */\n      dup4\n        /* \"@openzeppelin/contracts@4.9/token/ERC20/ERC20.sol\":8671:8691  _beforeTokenTransfer */\n      tag_231\n        /* \"@openzeppelin/contracts@4.9/token/ERC20/ERC20.sol\":8671:8720  _beforeTokenTransfer(address(0), account, amount) */\n      jump\t// in\n    tag_259:\n        /* \"@openzeppelin/contracts@4.9/token/ERC20/ERC20.sol\":8747:8753  amount */\n      dup1\n        /* \"@openzeppelin/contracts@4.9/token/ERC20/ERC20.sol\":8731:8743  _totalSupply */\n      0x02\n      0x00\n        /* \"@openzeppelin/contracts@4.9/token/ERC20/ERC20.sol\":8731:8753  _totalSupply += amount */\n      dup3\n      dup3\n      sload\n      tag_260\n      swap2\n      swap1\n      tag_139\n      jump\t// in\n    tag_260:\n      swap3\n      pop\n      pop\n      dup2\n      swap1\n      sstore\n      pop\n        /* \"@openzeppelin/contracts@4.9/token/ERC20/ERC20.sol\":8921:8927  amount */\n      dup1\n        /* \"@openzeppelin/contracts@4.9/token/ERC20/ERC20.sol\":8899:8908  _balances */\n      0x00\n        /* \"@openzeppelin/contracts@4.9/token/ERC20/ERC20.sol\":8899:8917  _balances[account] */\n      dup1\n        /* \"@openzeppelin/contracts@4.9/token/ERC20/ERC20.sol\":8909:8916  account */\n      dup5\n        /* \"@openzeppelin/contracts@4.9/token/ERC20/ERC20.sol\":8899:8917  _balances[account] */\n      0xffffffffffffffffffffffffffffffffffffffff\n      and\n      0xffffffffffffffffffffffffffffffffffffffff\n      and\n      dup2\n      mstore\n      0x20\n      add\n      swap1\n      dup2\n      mstore\n      0x20\n      add\n      0x00\n      keccak256\n      0x00\n        /* \"@openzeppelin/contracts@4.9/token/ERC20/ERC20.sol\":8899:8927  _balances[account] += amount */\n      dup3\n      dup3\n      sload\n      add\n      swap3\n      pop\n      pop\n      dup2\n      swap1\n      sstore\n      pop\n        /* \"@openzeppelin/contracts@4.9/token/ERC20/ERC20.sol\":8973:8980  account */\n      dup2\n        /* \"@openzeppelin/contracts@4.9/token/ERC20/ERC20.sol\":8952:8989  Transfer(address(0), account, amount) */\n      0xffffffffffffffffffffffffffffffffffffffff\n      and\n        /* \"@openzeppelin/contracts@4.9/token/ERC20/ERC20.sol\":8969:8970  0 */\n      0x00\n        /* \"@openzeppelin/contracts@4.9/token/ERC20/ERC20.sol\":8952:8989  Transfer(address(0), account, amount) */\n      0xffffffffffffffffffffffffffffffffffffffff\n      and\n      0xddf252ad1be2c89b69c2b068fc378daa952ba7f163c4a11628f55a4df523b3ef\n        /* \"@openzeppelin/contracts@4.9/token/ERC20/ERC20.sol\":8982:8988  amount */\n      dup4\n        /* \"@openzeppelin/contracts@4.9/token/ERC20/ERC20.sol\":8952:8989  Transfer(address(0), account, amount) */\n      mload(0x40)\n      tag_261\n      swap2\n      swap1\n      tag_38\n      jump\t// in\n    tag_261:\n      mload(0x40)\n      dup1\n      swap2\n      sub\n      swap1\n      log3\n        /* \"@openzeppelin/contracts@4.9/token/ERC20/ERC20.sol\":9000:9048  _afterTokenTransfer(address(0), account, amount) */\n      tag_262\n        /* \"@openzeppelin/contracts@4.9/token/ERC20/ERC20.sol\":9028:9029  0 */\n      0x00\n        /* \"@openzeppelin/contracts@4.9/token/ERC20/ERC20.sol\":9032:9039  account */\n      dup4\n        /* \"@openzeppelin/contracts@4.9/token/ERC20/ERC20.sol\":9041:9047  amount */\n      dup4\n        /* \"@openzeppelin/contracts@4.9/token/ERC20/ERC20.sol\":9000:9019  _afterTokenTransfer */\n      tag_237\n        /* \"@openzeppelin/contracts@4.9/token/ERC20/ERC20.sol\":9000:9048  _afterTokenTransfer(address(0), account, amount) */\n      jump\t// in\n    tag_262:\n        /* \"@openzeppelin/contracts@4.9/token/ERC20/ERC20.sol\":8520:9055  function _mint(address account, uint256 amount) internal virtual {... */\n      pop\n      pop\n      jump\t// out\n        /* \"@openzeppelin/contracts@4.9/token/ERC20/ERC20.sol\":12073:12164  function _beforeTokenTransfer(address from, address to, uint256 amount) internal virtual {} */\n    tag_231:\n      pop\n      pop\n      pop\n      jump\t// out\n        /* \"@openzeppelin/contracts@4.9/token/ERC20/ERC20.sol\":12752:12842  function _afterTokenTransfer(address from, address to, uint256 amount) internal virtual {} */\n    tag_237:\n      pop\n      pop\n      pop\n      jump\t// out\n        /* \"#utility.yul\":7:106   */\n    tag_265:\n        /* \"#utility.yul\":59:65   */\n      0x00\n        /* \"#utility.yul\":93:98   */\n      dup2\n        /* \"#utility.yul\":87:99   */\n      mload\n        /* \"#utility.yul\":77:99   */\n      swap1\n      pop\n        /* \"#utility.yul\":7:106   */\n      swap2\n      swap1\n      pop\n      jump\t// out\n        /* \"#utility.yul\":112:281   */\n    tag_266:\n        /* \"#utility.yul\":196:207   */\n      0x00\n        /* \"#utility.yul\":230:236   */\n      dup3\n        /* \"#utility.yul\":225:228   */\n      dup3\n        /* \"#utility.yul\":218:237   */\n      mstore\n        /* \"#utility.yul\":270:274   */\n      0x20\n        /* \"#utility.yul\":265:268   */\n      dup3\n        /* \"#utility.yul\":261:275   */\n      add\n        /* \"#utility.yul\":246:275   */\n      swap1\n      pop\n        /* \"#utility.yul\":112:281   */\n      swap3\n      swap2\n      pop\n      pop\n      jump\t// out\n        /* \"#utility.yul\":287:426   */\n    tag_267:\n        /* \"#utility.yul\":376:382   */\n      dup3\n        /* \"#utility.yul\":371:374   */\n      dup2\n        /* \"#utility.yul\":366:369   */\n      dup4\n        /* \"#utility.yul\":360:383   */\n      mcopy\n        /* \"#utility.yul\":417:418   */\n      0x00\n        /* \"#utility.yul\":408:414   */\n      dup4\n        /* \"#utility.yul\":403:406   */\n      dup4\n        /* \"#utility.yul\":399:415   */\n      add\n        /* \"#utility.yul\":392:419   */\n      mstore\n        /* \"#utility.yul\":287:426   */\n      pop\n      pop\n      pop\n      jump\t// out\n        /* \"#utility.yul\":432:534   */\n    tag_268:\n        /* \"#utility.yul\":473:479   */\n      0x00\n        /* \"#utility.yul\":524:526   */\n      0x1f\n        /* \"#utility.yul\":520:527   */\n      not\n        /* \"#utility.yul\":515:517   */\n      0x1f\n        /* \"#utility.yul\":508:513   */\n      dup4\n        /* \"#utility.yul\":504:518   */\n      add\n        /* \"#utility.yul\":500:528   */\n      and\n        /* \"#utility.yul\":490:528   */\n      swap1\n      pop\n        /* \"#utility.yul\":432:534   */\n      swap2\n      swap1\n      pop\n      jump\t// out\n        /* \"#utility.yul\":540:917   */\n    tag_269:\n        /* \"#utility.yul\":628:631   */\n      0x00\n        /* \"#utility.yul\":656:695   */\n      tag_328\n        /* \"#utility.yul\":689:694   */\n      dup3\n        /* \"#utility.yul\":656:695   */\n      tag_265\n      jump\t// in\n    tag_328:\n        /* \"#utility.yul\":711:782   */\n      tag_329\n        /* \"#utility.yul\":775:781   */\n      dup2\n        /* \"#utility.yul\":770:773   */\n      dup6\n        /* \"#utility.yul\":711:782   */\n      tag_266\n      jump\t// in\n    tag_329:\n        /* \"#utility.yul\":704:782   */\n      swap4\n      pop\n        /* \"#utility.yul\":791:856   */\n      tag_330\n        /* \"#utility.yul\":849:855   */\n      dup2\n        /* \"#utility.yul\":844:847   */\n      dup6\n        /* \"#utility.yul\":837:841   */\n      0x20\n        /* \"#utility.yul\":830:835   */\n      dup7\n        /* \"#utility.yul\":826:842   */\n      add\n        /* \"#utility.yul\":791:856   */\n      tag_267\n      jump\t// in\n    tag_330:\n        /* \"#utility.yul\":881:910   */\n      tag_331\n        /* \"#utility.yul\":903:909   */\n      dup2\n        /* \"#utility.yul\":881:910   */\n      tag_268\n      jump\t// in\n    tag_331:\n        /* \"#utility.yul\":876:879   */\n      dup5\n        /* \"#utility.yul\":872:911   */\n      add\n        /* \"#utility.yul\":865:911   */\n      swap2\n      pop\n        /* \"#utility.yul\":632:917   */\n      pop\n        /* \"#utility.yul\":540:917   */\n      swap3\n      swap2\n      pop\n      pop\n      jump\t// out\n        /* \"#utility.yul\":923:1236   */\n    tag_28:\n        /* \"#utility.yul\":1036:1040   */\n      0x00\n        /* \"#utility.yul\":1074:1076   */\n      0x20\n        /* \"#utility.yul\":1063:1072   */\n      dup3\n        /* \"#utility.yul\":1059:1077   */\n      add\n        /* \"#utility.yul\":1051:1077   */\n      swap1\n      pop\n        /* \"#utility.yul\":1123:1132   */\n      dup2\n        /* \"#utility.yul\":1117:1121   */\n      dup2\n        /* \"#utility.yul\":1113:1133   */\n      sub\n        /* \"#utility.yul\":1109:1110   */\n      0x00\n        /* \"#utility.yul\":1098:1107   */\n      dup4\n        /* \"#utility.yul\":1094:1111   */\n      add\n        /* \"#utility.yul\":1087:1134   */\n      mstore\n        /* \"#utility.yul\":1151:1229   */\n      tag_333\n        /* \"#utility.yul\":1224:1228   */\n      dup2\n        /* \"#utility.yul\":1215:1221   */\n      dup5\n        /* \"#utility.yul\":1151:1229   */\n      tag_269\n      jump\t// in\n    tag_333:\n        /* \"#utility.yul\":1143:1229   */\n      swap1\n      pop\n        /* \"#utility.yul\":923:1236   */\n      swap3\n      swap2\n      pop\n      pop\n      jump\t// out\n        /* \"#utility.yul\":1323:1440   */\n    tag_271:\n        /* \"#utility.yul\":1432:1433   */\n      0x00\n        /* \"#utility.yul\":1429:1430   */\n      dup1\n        /* \"#utility.yul\":1422:1434   */\n      revert\n        /* \"#utility.yul\":1569:1695   */\n    tag_273:\n        /* \"#utility.yul\":1606:1613   */\n      0x00\n        /* \"#utility.yul\":1646:1688   */\n      0xffffffffffffffffffffffffffffffffffffffff\n        /* \"#utility.yul\":1639:1644   */\n      dup3\n        /* \"#utility.yul\":1635:1689   */\n      and\n        /* \"#utility.yul\":1624:1689   */\n      swap1\n      pop\n        /* \"#utility.yul\":1569:1695   */\n      swap2\n      swap1\n      pop\n      jump\t// out\n        /* \"#utility.yul\":1701:1797   */\n    tag_274:\n        /* \"#utility.yul\":1738:1745   */\n      0x00\n        /* \"#utility.yul\":1767:1791   */\n      tag_339\n        /* \"#utility.yul\":1785:1790   */\n      dup3\n        /* \"#utility.yul\":1767:1791   */\n      tag_273\n      jump\t// in\n    tag_339:\n        /* \"#utility.yul\":1756:1791   */\n      swap1\n      pop\n        /* \"#utility.yul\":1701:1797   */\n      swap2\n      swap1\n      pop\n      jump\t// out\n        /* \"#utility.yul\":1803:1925   */\n    tag_275:\n        /* \"#utility.yul\":1876:1900   */\n      tag_341\n        /* \"#utility.yul\":1894:1899   */\n      dup2\n        /* \"#utility.yul\":1876:1900   */\n      tag_274\n      jump\t// in\n    tag_341:\n        /* \"#utility.yul\":1869:1874   */\n      dup2\n        /* \"#utility.yul\":1866:1901   */\n      eq\n        /* \"#utility.yul\":1856:1919   */\n      tag_342\n      jumpi\n        /* \"#utility.yul\":1915:1916   */\n      0x00\n        /* \"#utility.yul\":1912:1913   */\n      dup1\n        /* \"#utility.yul\":1905:1917   */\n      revert\n        /* \"#utility.yul\":1856:1919   */\n    tag_342:\n        /* \"#utility.yul\":1803:1925   */\n      pop\n      jump\t// out\n        /* \"#utility.yul\":1931:2070   */\n    tag_276:\n        /* \"#utility.yul\":1977:1982   */\n      0x00\n        /* \"#utility.yul\":2015:2021   */\n      dup2\n        /* \"#utility.yul\":2002:2022   */\n      calldataload\n        /* \"#utility.yul\":1993:2022   */\n      swap1\n      pop\n        /* \"#utility.yul\":2031:2064   */\n      tag_344\n        /* \"#utility.yul\":2058:2063   */\n      dup2\n        /* \"#utility.yul\":2031:2064   */\n      tag_275\n      jump\t// in\n    tag_344:\n        /* \"#utility.yul\":1931:2070   */\n      swap3\n      swap2\n      pop\n      pop\n      jump\t// out\n        /* \"#utility.yul\":2076:2153   */\n    tag_277:\n        /* \"#utility.yul\":2113:2120   */\n      0x00\n        /* \"#utility.yul\":2142:2147   */\n      dup2\n        /* \"#utility.yul\":2131:2147   */\n      swap1\n      pop\n        /* \"#utility.yul\":2076:2153   */\n      swap2\n      swap1\n      pop\n      jump\t// out\n        /* \"#utility.yul\":2159:2281   */\n    tag_278:\n        /* \"#utility.yul\":2232:2256   */\n      tag_347\n        /* \"#utility.yul\":2250:2255   */\n      dup2\n        /* \"#utility.yul\":2232:2256   */\n      tag_277\n      jump\t// in\n    tag_347:\n        /* \"#utility.yul\":2225:2230   */\n      dup2\n        /* \"#utility.yul\":2222:2257   */\n      eq\n        /* \"#utility.yul\":2212:2275   */\n      tag_348\n      jumpi\n        /* \"#utility.yul\":2271:2272   */\n      0x00\n        /* \"#utility.yul\":2268:2269   */\n      dup1\n        /* \"#utility.yul\":2261:2273   */\n      revert\n        /* \"#utility.yul\":2212:2275   */\n    tag_348:\n        /* \"#utility.yul\":2159:2281   */\n      pop\n      jump\t// out\n        /* \"#utility.yul\":2287:2426   */\n    tag_279:\n        /* \"#utility.yul\":2333:2338   */\n      0x00\n        /* \"#utility.yul\":2371:2377   */\n      dup2\n        /* \"#utility.yul\":2358:2378   */\n      calldataload\n        /* \"#utility.yul\":2349:2378   */\n      swap1\n      pop\n        /* \"#utility.yul\":2387:2420   */\n      tag_350\n        /* \"#utility.yul\":2414:2419   */\n      dup2\n        /* \"#utility.yul\":2387:2420   */\n      tag_278\n      jump\t// in\n    tag_350:\n        /* \"#utility.yul\":2287:2426   */\n      swap3\n      swap2\n      pop\n      pop\n      jump\t// out\n        /* \"#utility.yul\":2432:2906   */\n    tag_31:\n        /* \"#utility.yul\":2500:2506   */\n      0x00\n        /* \"#utility.yul\":2508:2514   */\n      dup1\n        /* \"#utility.yul\":2557:2559   */\n      0x40\n        /* \"#utility.yul\":2545:2554   */\n      dup4\n        /* \"#utility.yul\":2536:2543   */\n      dup6\n        /* \"#utility.yul\":2532:2555   */\n      sub\n        /* \"#utility.yul\":2528:2560   */\n      slt\n        /* \"#utility.yul\":2525:2644   */\n      iszero\n      tag_352\n      jumpi\n        /* \"#utility.yul\":2563:2642   */\n      tag_353\n      tag_271\n      jump\t// in\n    tag_353:\n        /* \"#utility.yul\":2525:2644   */\n    tag_352:\n        /* \"#utility.yul\":2683:2684   */\n      0x00\n        /* \"#utility.yul\":2708:2761   */\n      tag_354\n        /* \"#utility.yul\":2753:2760   */\n      dup6\n        /* \"#utility.yul\":2744:2750   */\n      dup3\n        /* \"#utility.yul\":2733:2742   */\n      dup7\n        /* \"#utility.yul\":2729:2751   */\n      add\n        /* \"#utility.yul\":2708:2761   */\n      tag_276\n      jump\t// in\n    tag_354:\n        /* \"#utility.yul\":2698:2761   */\n      swap3\n      pop\n        /* \"#utility.yul\":2654:2771   */\n      pop\n        /* \"#utility.yul\":2810:2812   */\n      0x20\n        /* \"#utility.yul\":2836:2889   */\n      tag_355\n        /* \"#utility.yul\":2881:2888   */\n      dup6\n        /* \"#utility.yul\":2872:2878   */\n      dup3\n        /* \"#utility.yul\":2861:2870   */\n      dup7\n        /* \"#utility.yul\":2857:2879   */\n      add\n        /* \"#utility.yul\":2836:2889   */\n      tag_279\n      jump\t// in\n    tag_355:\n        /* \"#utility.yul\":2826:2889   */\n      swap2\n      pop\n        /* \"#utility.yul\":2781:2899   */\n      pop\n        /* \"#utility.yul\":2432:2906   */\n      swap3\n      pop\n      swap3\n      swap1\n      pop\n      jump\t// out\n        /* \"#utility.yul\":2912:3002   */\n    tag_280:\n        /* \"#utility.yul\":2946:2953   */\n      0x00\n        /* \"#utility.yul\":2989:2994   */\n      dup2\n        /* \"#utility.yul\":2982:2995   */\n      iszero\n        /* \"#utility.yul\":2975:2996   */\n      iszero\n        /* \"#utility.yul\":2964:2996   */\n      swap1\n      pop\n        /* \"#utility.yul\":2912:3002   */\n      swap2\n      swap1\n      pop\n      jump\t// out\n        /* \"#utility.yul\":3008:3117   */\n    tag_281:\n        /* \"#utility.yul\":3089:3110   */\n      tag_358\n        /* \"#utility.yul\":3104:3109   */\n      dup2\n        /* \"#utility.yul\":3089:3110   */\n      tag_280\n      jump\t// in\n    tag_358:\n        /* \"#utility.yul\":3084:3087   */\n      dup3\n        /* \"#utility.yul\":3077:3111   */\n      mstore\n        /* \"#utility.yul\":3008:3117   */\n      pop\n      pop\n      jump\t// out\n        /* \"#utility.yul\":3123:3333   */\n    tag_34:\n        /* \"#utility.yul\":3210:3214   */\n      0x00\n        /* \"#utility.yul\":3248:3250   */\n      0x20\n        /* \"#utility.yul\":3237:3246   */\n      dup3\n        /* \"#utility.yul\":3233:3251   */\n      add\n        /* \"#utility.yul\":3225:3251   */\n      swap1\n      pop\n        /* \"#utility.yul\":3261:3326   */\n      tag_360\n        /* \"#utility.yul\":3323:3324   */\n      0x00\n        /* \"#utility.yul\":3312:3321   */\n      dup4\n        /* \"#utility.yul\":3308:3325   */\n      add\n        /* \"#utility.yul\":3299:3305   */\n      dup5\n        /* \"#utility.yul\":3261:3326   */\n      tag_281\n      jump\t// in\n    tag_360:\n        /* \"#utility.yul\":3123:3333   */\n      swap3\n      swap2\n      pop\n      pop\n      jump\t// out\n        /* \"#utility.yul\":3339:3457   */\n    tag_282:\n        /* \"#utility.yul\":3426:3450   */\n      tag_362\n        /* \"#utility.yul\":3444:3449   */\n      dup2\n        /* \"#utility.yul\":3426:3450   */\n      tag_277\n      jump\t// in\n    tag_362:\n        /* \"#utility.yul\":3421:3424   */\n      dup3\n        /* \"#utility.yul\":3414:3451   */\n      mstore\n        /* \"#utility.yul\":3339:3457   */\n      pop\n      pop\n      jump\t// out\n        /* \"#utility.yul\":3463:3685   */\n    tag_38:\n        /* \"#utility.yul\":3556:3560   */\n      0x00\n        /* \"#utility.yul\":3594:3596   */\n      0x20\n        /* \"#utility.yul\":3583:3592   */\n      dup3\n        /* \"#utility.yul\":3579:3597   */\n      add\n        /* \"#utility.yul\":3571:3597   */\n      swap1\n      pop\n        /* \"#utility.yul\":3607:3678   */\n      tag_364\n        /* \"#utility.yul\":3675:3676   */\n      0x00\n        /* \"#utility.yul\":3664:3673   */\n      dup4\n        /* \"#utility.yul\":3660:3677   */\n      add\n        /* \"#utility.yul\":3651:3657   */\n      dup5\n        /* \"#utility.yul\":3607:3678   */\n      tag_282\n      jump\t// in\n    tag_364:\n        /* \"#utility.yul\":3463:3685   */\n      swap3\n      swap2\n      pop\n      pop\n      jump\t// out\n        /* \"#utility.yul\":3691:4310   */\n    tag_41:\n        /* \"#utility.yul\":3768:3774   */\n      0x00\n        /* \"#utility.yul\":3776:3782   */\n      dup1\n        /* \"#utility.yul\":3784:3790   */\n      0x00\n        /* \"#utility.yul\":3833:3835   */\n      0x60\n        /* \"#utility.yul\":3821:3830   */\n      dup5\n        /* \"#utility.yul\":3812:3819   */\n      dup7\n        /* \"#utility.yul\":3808:3831   */\n      sub\n        /* \"#utility.yul\":3804:3836   */\n      slt\n        /* \"#utility.yul\":3801:3920   */\n      iszero\n      tag_366\n      jumpi\n        /* \"#utility.yul\":3839:3918   */\n      tag_367\n      tag_271\n      jump\t// in\n    tag_367:\n        /* \"#utility.yul\":3801:3920   */\n    tag_366:\n        /* \"#utility.yul\":3959:3960   */\n      0x00\n        /* \"#utility.yul\":3984:4037   */\n      tag_368\n        /* \"#utility.yul\":4029:4036   */\n      dup7\n        /* \"#utility.yul\":4020:4026   */\n      dup3\n        /* \"#utility.yul\":4009:4018   */\n      dup8\n        /* \"#utility.yul\":4005:4027   */\n      add\n        /* \"#utility.yul\":3984:4037   */\n      tag_276\n      jump\t// in\n    tag_368:\n        /* \"#utility.yul\":3974:4037   */\n      swap4\n      pop\n        /* \"#utility.yul\":3930:4047   */\n      pop\n        /* \"#utility.yul\":4086:4088   */\n      0x20\n        /* \"#utility.yul\":4112:4165   */\n      tag_369\n        /* \"#utility.yul\":4157:4164   */\n      dup7\n        /* \"#utility.yul\":4148:4154   */\n      dup3\n        /* \"#utility.yul\":4137:4146   */\n      dup8\n        /* \"#utility.yul\":4133:4155   */\n      add\n        /* \"#utility.yul\":4112:4165   */\n      tag_276\n      jump\t// in\n    tag_369:\n        /* \"#utility.yul\":4102:4165   */\n      swap3\n      pop\n        /* \"#utility.yul\":4057:4175   */\n      pop\n        /* \"#utility.yul\":4214:4216   */\n      0x40\n        /* \"#utility.yul\":4240:4293   */\n      tag_370\n        /* \"#utility.yul\":4285:4292   */\n      dup7\n        /* \"#utility.yul\":4276:4282   */\n      dup3\n        /* \"#utility.yul\":4265:4274   */\n      dup8\n        /* \"#utility.yul\":4261:4283   */\n      add\n        /* \"#utility.yul\":4240:4293   */\n      tag_279\n      jump\t// in\n    tag_370:\n        /* \"#utility.yul\":4230:4293   */\n      swap2\n      pop\n        /* \"#utility.yul\":4185:4303   */\n      pop\n        /* \"#utility.yul\":3691:4310   */\n      swap3\n      pop\n      swap3\n      pop\n      swap3\n      jump\t// out\n        /* \"#utility.yul\":4316:4645   */\n    tag_46:\n        /* \"#utility.yul\":4375:4381   */\n      0x00\n        /* \"#utility.yul\":4424:4426   */\n      0x20\n        /* \"#utility.yul\":4412:4421   */\n      dup3\n        /* \"#utility.yul\":4403:4410   */\n      dup5\n        /* \"#utility.yul\":4399:4422   */\n      sub\n        /* \"#utility.yul\":4395:4427   */\n      slt\n        /* \"#utility.yul\":4392:4511   */\n      iszero\n      tag_372\n      jumpi\n        /* \"#utility.yul\":4430:4509   */\n      tag_373\n      tag_271\n      jump\t// in\n    tag_373:\n        /* \"#utility.yul\":4392:4511   */\n    tag_372:\n        /* \"#utility.yul\":4550:4551   */\n      0x00\n        /* \"#utility.yul\":4575:4628   */\n      tag_374\n        /* \"#utility.yul\":4620:4627   */\n      dup5\n        /* \"#utility.yul\":4611:4617   */\n      dup3\n        /* \"#utility.yul\":4600:4609   */\n      dup6\n        /* \"#utility.yul\":4596:4618   */\n      add\n        /* \"#utility.yul\":4575:4628   */\n      tag_279\n      jump\t// in\n    tag_374:\n        /* \"#utility.yul\":4565:4628   */\n      swap2\n      pop\n        /* \"#utility.yul\":4521:4638   */\n      pop\n        /* \"#utility.yul\":4316:4645   */\n      swap3\n      swap2\n      pop\n      pop\n      jump\t// out\n        /* \"#utility.yul\":4651:5074   */\n    tag_49:\n        /* \"#utility.yul\":4792:4796   */\n      0x00\n        /* \"#utility.yul\":4830:4832   */\n      0x40\n        /* \"#utility.yul\":4819:4828   */\n      dup3\n        /* \"#utility.yul\":4815:4833   */\n      add\n        /* \"#utility.yul\":4807:4833   */\n      swap1\n      pop\n        /* \"#utility.yul\":4879:4888   */\n      dup2\n        /* \"#utility.yul\":4873:4877   */\n      dup2\n        /* \"#utility.yul\":4869:4889   */\n      sub\n        /* \"#utility.yul\":4865:4866   */\n      0x00\n        /* \"#utility.yul\":4854:4863   */\n      dup4\n        /* \"#utility.yul\":4850:4867   */\n      add\n        /* \"#utility.yul\":4843:4890   */\n      mstore\n        /* \"#utility.yul\":4907:4985   */\n      tag_376\n        /* \"#utility.yul\":4980:4984   */\n      dup2\n        /* \"#utility.yul\":4971:4977   */\n      dup6\n        /* \"#utility.yul\":4907:4985   */\n      tag_269\n      jump\t// in\n    tag_376:\n        /* \"#utility.yul\":4899:4985   */\n      swap1\n      pop\n        /* \"#utility.yul\":4995:5067   */\n      tag_377\n        /* \"#utility.yul\":5063:5065   */\n      0x20\n        /* \"#utility.yul\":5052:5061   */\n      dup4\n        /* \"#utility.yul\":5048:5066   */\n      add\n        /* \"#utility.yul\":5039:5045   */\n      dup5\n        /* \"#utility.yul\":4995:5067   */\n      tag_282\n      jump\t// in\n    tag_377:\n        /* \"#utility.yul\":4651:5074   */\n      swap4\n      swap3\n      pop\n      pop\n      pop\n      jump\t// out\n        /* \"#utility.yul\":5080:5166   */\n    tag_283:\n        /* \"#utility.yul\":5115:5122   */\n      0x00\n        /* \"#utility.yul\":5155:5159   */\n      0xff\n        /* \"#utility.yul\":5148:5153   */\n      dup3\n        /* \"#utility.yul\":5144:5160   */\n      and\n        /* \"#utility.yul\":5133:5160   */\n      swap1\n      pop\n        /* \"#utility.yul\":5080:5166   */\n      swap2\n      swap1\n      pop\n      jump\t// out\n        /* \"#utility.yul\":5172:5284   */\n    tag_284:\n        /* \"#utility.yul\":5255:5277   */\n      tag_380\n        /* \"#utility.yul\":5271:5276   */\n      dup2\n        /* \"#utility.yul\":5255:5277   */\n      tag_283\n      jump\t// in\n    tag_380:\n        /* \"#utility.yul\":5250:5253   */\n      dup3\n        /* \"#utility.yul\":5243:5278   */\n      mstore\n        /* \"#utility.yul\":5172:5284   */\n      pop\n      pop\n      jump\t// out\n        /* \"#utility.yul\":5290:5504   */\n    tag_53:\n        /* \"#utility.yul\":5379:5383   */\n      0x00\n        /* \"#utility.yul\":5417:5419   */\n      0x20\n        /* \"#utility.yul\":5406:5415   */\n      dup3\n        /* \"#utility.yul\":5402:5420   */\n      add\n        /* \"#utility.yul\":5394:5420   */\n      swap1\n      pop\n        /* \"#utility.yul\":5430:5497   */\n      tag_382\n        /* \"#utility.yul\":5494:5495   */\n      0x00\n        /* \"#utility.yul\":5483:5492   */\n      dup4\n        /* \"#utility.yul\":5479:5496   */\n      add\n        /* \"#utility.yul\":5470:5476   */\n      dup5\n        /* \"#utility.yul\":5430:5497   */\n      tag_284\n      jump\t// in\n    tag_382:\n        /* \"#utility.yul\":5290:5504   */\n      swap3\n      swap2\n      pop\n      pop\n      jump\t// out\n        /* \"#utility.yul\":5510:5839   */\n    tag_63:\n        /* \"#utility.yul\":5569:5575   */\n      0x00\n        /* \"#utility.yul\":5618:5620   */\n      0x20\n        /* \"#utility.yul\":5606:5615   */\n      dup3\n        /* \"#utility.yul\":5597:5604   */\n      dup5\n        /* \"#utility.yul\":5593:5616   */\n      sub\n        /* \"#utility.yul\":5589:5621   */\n      slt\n        /* \"#utility.yul\":5586:5705   */\n      iszero\n      tag_384\n      jumpi\n        /* \"#utility.yul\":5624:5703   */\n      tag_385\n      tag_271\n      jump\t// in\n    tag_385:\n        /* \"#utility.yul\":5586:5705   */\n    tag_384:\n        /* \"#utility.yul\":5744:5745   */\n      0x00\n        /* \"#utility.yul\":5769:5822   */\n      tag_386\n        /* \"#utility.yul\":5814:5821   */\n      dup5\n        /* \"#utility.yul\":5805:5811   */\n      dup3\n        /* \"#utility.yul\":5794:5803   */\n      dup6\n        /* \"#utility.yul\":5790:5812   */\n      add\n        /* \"#utility.yul\":5769:5822   */\n      tag_276\n      jump\t// in\n    tag_386:\n        /* \"#utility.yul\":5759:5822   */\n      swap2\n      pop\n        /* \"#utility.yul\":5715:5832   */\n      pop\n        /* \"#utility.yul\":5510:5839   */\n      swap3\n      swap2\n      pop\n      pop\n      jump\t// out\n        /* \"#utility.yul\":5845:5963   */\n    tag_285:\n        /* \"#utility.yul\":5932:5956   */\n      tag_388\n        /* \"#utility.yul\":5950:5955   */\n      dup2\n        /* \"#utility.yul\":5932:5956   */\n      tag_274\n      jump\t// in\n    tag_388:\n        /* \"#utility.yul\":5927:5930   */\n      dup3\n        /* \"#utility.yul\":5920:5957   */\n      mstore\n        /* \"#utility.yul\":5845:5963   */\n      pop\n      pop\n      jump\t// out\n        /* \"#utility.yul\":5969:6191   */\n    tag_71:\n        /* \"#utility.yul\":6062:6066   */\n      0x00\n        /* \"#utility.yul\":6100:6102   */\n      0x20\n        /* \"#utility.yul\":6089:6098   */\n      dup3\n        /* \"#utility.yul\":6085:6103   */\n      add\n        /* \"#utility.yul\":6077:6103   */\n      swap1\n      pop\n        /* \"#utility.yul\":6113:6184   */\n      tag_390\n        /* \"#utility.yul\":6181:6182   */\n      0x00\n        /* \"#utility.yul\":6170:6179   */\n      dup4\n        /* \"#utility.yul\":6166:6183   */\n      add\n        /* \"#utility.yul\":6157:6163   */\n      dup5\n        /* \"#utility.yul\":6113:6184   */\n      tag_285\n      jump\t// in\n    tag_390:\n        /* \"#utility.yul\":5969:6191   */\n      swap3\n      swap2\n      pop\n      pop\n      jump\t// out\n        /* \"#utility.yul\":6197:6671   */\n    tag_92:\n        /* \"#utility.yul\":6265:6271   */\n      0x00\n        /* \"#utility.yul\":6273:6279   */\n      dup1\n        /* \"#utility.yul\":6322:6324   */\n      0x40\n        /* \"#utility.yul\":6310:6319   */\n      dup4\n        /* \"#utility.yul\":6301:6308   */\n      dup6\n        /* \"#utility.yul\":6297:6320   */\n      sub\n        /* \"#utility.yul\":6293:6325   */\n      slt\n        /* \"#utility.yul\":6290:6409   */\n      iszero\n      tag_392\n      jumpi\n        /* \"#utility.yul\":6328:6407   */\n      tag_393\n      tag_271\n      jump\t// in\n    tag_393:\n        /* \"#utility.yul\":6290:6409   */\n    tag_392:\n        /* \"#utility.yul\":6448:6449   */\n      0x00\n        /* \"#utility.yul\":6473:6526   */\n      tag_394\n        /* \"#utility.yul\":6518:6525   */\n      dup6\n        /* \"#utility.yul\":6509:6515   */\n      dup3\n        /* \"#utility.yul\":6498:6507   */\n      dup7\n        /* \"#utility.yul\":6494:6516   */\n      add\n        /* \"#utility.yul\":6473:6526   */\n      tag_276\n      jump\t// in\n    tag_394:\n        /* \"#utility.yul\":6463:6526   */\n      swap3\n      pop\n        /* \"#utility.yul\":6419:6536   */\n      pop\n        /* \"#utility.yul\":6575:6577   */\n      0x20\n        /* \"#utility.yul\":6601:6654   */\n      tag_395\n        /* \"#utility.yul\":6646:6653   */\n      dup6\n        /* \"#utility.yul\":6637:6643   */\n      dup3\n        /* \"#utility.yul\":6626:6635   */\n      dup7\n        /* \"#utility.yul\":6622:6644   */\n      add\n        /* \"#utility.yul\":6601:6654   */\n      tag_276\n      jump\t// in\n    tag_395:\n        /* \"#utility.yul\":6591:6654   */\n      swap2\n      pop\n        /* \"#utility.yul\":6546:6664   */\n      pop\n        /* \"#utility.yul\":6197:6671   */\n      swap3\n      pop\n      swap3\n      swap1\n      pop\n      jump\t// out\n        /* \"#utility.yul\":6677:6857   */\n    tag_286:\n        /* \"#utility.yul\":6725:6802   */\n      0x4e487b7100000000000000000000000000000000000000000000000000000000\n        /* \"#utility.yul\":6722:6723   */\n      0x00\n        /* \"#utility.yul\":6715:6803   */\n      mstore\n        /* \"#utility.yul\":6822:6826   */\n      0x22\n        /* \"#utility.yul\":6819:6820   */\n      0x04\n        /* \"#utility.yul\":6812:6827   */\n      mstore\n        /* \"#utility.yul\":6846:6850   */\n      0x24\n        /* \"#utility.yul\":6843:6844   */\n      0x00\n        /* \"#utility.yul\":6836:6851   */\n      revert\n        /* \"#utility.yul\":6863:7183   */\n    tag_103:\n        /* \"#utility.yul\":6907:6913   */\n      0x00\n        /* \"#utility.yul\":6944:6945   */\n      0x02\n        /* \"#utility.yul\":6938:6942   */\n      dup3\n        /* \"#utility.yul\":6934:6946   */\n      div\n        /* \"#utility.yul\":6924:6946   */\n      swap1\n      pop\n        /* \"#utility.yul\":6991:6992   */\n      0x01\n        /* \"#utility.yul\":6985:6989   */\n      dup3\n        /* \"#utility.yul\":6981:6993   */\n      and\n        /* \"#utility.yul\":7012:7030   */\n      dup1\n        /* \"#utility.yul\":7002:7083   */\n      tag_398\n      jumpi\n        /* \"#utility.yul\":7068:7072   */\n      0x7f\n        /* \"#utility.yul\":7060:7066   */\n      dup3\n        /* \"#utility.yul\":7056:7073   */\n      and\n        /* \"#utility.yul\":7046:7073   */\n      swap2\n      pop\n        /* \"#utility.yul\":7002:7083   */\n    tag_398:\n        /* \"#utility.yul\":7130:7132   */\n      0x20\n        /* \"#utility.yul\":7122:7128   */\n      dup3\n        /* \"#utility.yul\":7119:7133   */\n      lt\n        /* \"#utility.yul\":7099:7117   */\n      dup2\n        /* \"#utility.yul\":7096:7134   */\n      sub\n        /* \"#utility.yul\":7093:7177   */\n      tag_399\n      jumpi\n        /* \"#utility.yul\":7149:7167   */\n      tag_400\n      tag_286\n      jump\t// in\n    tag_400:\n        /* \"#utility.yul\":7093:7177   */\n    tag_399:\n        /* \"#utility.yul\":6914:7183   */\n      pop\n        /* \"#utility.yul\":6863:7183   */\n      swap2\n      swap1\n      pop\n      jump\t// out\n        /* \"#utility.yul\":7189:7363   */\n    tag_287:\n        /* \"#utility.yul\":7329:7355   */\n      0x4974656d20696e646578206f7574206f6620626f756e64730000000000000000\n        /* \"#utility.yul\":7325:7326   */\n      0x00\n        /* \"#utility.yul\":7317:7323   */\n      dup3\n        /* \"#utility.yul\":7313:7327   */\n      add\n        /* \"#utility.yul\":7306:7356   */\n      mstore\n        /* \"#utility.yul\":7189:7363   */\n      pop\n      jump\t// out\n        /* \"#utility.yul\":7369:7735   */\n    tag_288:\n        /* \"#utility.yul\":7511:7514   */\n      0x00\n        /* \"#utility.yul\":7532:7599   */\n      tag_403\n        /* \"#utility.yul\":7596:7598   */\n      0x18\n        /* \"#utility.yul\":7591:7594   */\n      dup4\n        /* \"#utility.yul\":7532:7599   */\n      tag_266\n      jump\t// in\n    tag_403:\n        /* \"#utility.yul\":7525:7599   */\n      swap2\n      pop\n        /* \"#utility.yul\":7608:7701   */\n      tag_404\n        /* \"#utility.yul\":7697:7700   */\n      dup3\n        /* \"#utility.yul\":7608:7701   */\n      tag_287\n      jump\t// in\n    tag_404:\n        /* \"#utility.yul\":7726:7728   */\n      0x20\n        /* \"#utility.yul\":7721:7724   */\n      dup3\n        /* \"#utility.yul\":7717:7729   */\n      add\n        /* \"#utility.yul\":7710:7729   */\n      swap1\n      pop\n        /* \"#utility.yul\":7369:7735   */\n      swap2\n      swap1\n      pop\n      jump\t// out\n        /* \"#utility.yul\":7741:8160   */\n    tag_123:\n        /* \"#utility.yul\":7907:7911   */\n      0x00\n        /* \"#utility.yul\":7945:7947   */\n      0x20\n        /* \"#utility.yul\":7934:7943   */\n      dup3\n        /* \"#utility.yul\":7930:7948   */\n      add\n        /* \"#utility.yul\":7922:7948   */\n      swap1\n      pop\n        /* \"#utility.yul\":7994:8003   */\n      dup2\n        /* \"#utility.yul\":7988:7992   */\n      dup2\n        /* \"#utility.yul\":7984:8004   */\n      sub\n        /* \"#utility.yul\":7980:7981   */\n      0x00\n        /* \"#utility.yul\":7969:7978   */\n      dup4\n        /* \"#utility.yul\":7965:7982   */\n      add\n        /* \"#utility.yul\":7958:8005   */\n      mstore\n        /* \"#utility.yul\":8022:8153   */\n      tag_406\n        /* \"#utility.yul\":8148:8152   */\n      dup2\n        /* \"#utility.yul\":8022:8153   */\n      tag_288\n      jump\t// in\n    tag_406:\n        /* \"#utility.yul\":8014:8153   */\n      swap1\n      pop\n        /* \"#utility.yul\":7741:8160   */\n      swap2\n      swap1\n      pop\n      jump\t// out\n        /* \"#utility.yul\":8166:8346   */\n    tag_126:\n        /* \"#utility.yul\":8214:8291   */\n      0x4e487b7100000000000000000000000000000000000000000000000000000000\n        /* \"#utility.yul\":8211:8212   */\n      0x00\n        /* \"#utility.yul\":8204:8292   */\n      mstore\n        /* \"#utility.yul\":8311:8315   */\n      0x32\n        /* \"#utility.yul\":8308:8309   */\n      0x04\n        /* \"#utility.yul\":8301:8316   */\n      mstore\n        /* \"#utility.yul\":8335:8339   */\n      0x24\n        /* \"#utility.yul\":8332:8333   */\n      0x00\n        /* \"#utility.yul\":8325:8340   */\n      revert\n        /* \"#utility.yul\":8352:8532   */\n    tag_289:\n        /* \"#utility.yul\":8400:8477   */\n      0x4e487b7100000000000000000000000000000000000000000000000000000000\n        /* \"#utility.yul\":8397:8398   */\n      0x00\n        /* \"#utility.yul\":8390:8478   */\n      mstore\n        /* \"#utility.yul\":8497:8501   */\n      0x11\n        /* \"#utility.yul\":8494:8495   */\n      0x04\n        /* \"#utility.yul\":8487:8502   */\n      mstore\n        /* \"#utility.yul\":8521:8525   */\n      0x24\n        /* \"#utility.yul\":8518:8519   */\n      0x00\n        /* \"#utility.yul\":8511:8526   */\n      revert\n        /* \"#utility.yul\":8538:8729   */\n    tag_139:\n        /* \"#utility.yul\":8578:8581   */\n      0x00\n        /* \"#utility.yul\":8597:8617   */\n      tag_410\n        /* \"#utility.yul\":8615:8616   */\n      dup3\n        /* \"#utility.yul\":8597:8617   */\n      tag_277\n      jump\t// in\n    tag_410:\n        /* \"#utility.yul\":8592:8617   */\n      swap2\n      pop\n        /* \"#utility.yul\":8631:8651   */\n      tag_411\n        /* \"#utility.yul\":8649:8650   */\n      dup4\n        /* \"#utility.yul\":8631:8651   */\n      tag_277\n      jump\t// in\n    tag_411:\n        /* \"#utility.yul\":8626:8651   */\n      swap3\n      pop\n        /* \"#utility.yul\":8674:8675   */\n      dup3\n        /* \"#utility.yul\":8671:8672   */\n      dup3\n        /* \"#utility.yul\":8667:8676   */\n      add\n        /* \"#utility.yul\":8660:8676   */\n      swap1\n      pop\n        /* \"#utility.yul\":8695:8698   */\n      dup1\n        /* \"#utility.yul\":8692:8693   */\n      dup3\n        /* \"#utility.yul\":8689:8699   */\n      gt\n        /* \"#utility.yul\":8686:8722   */\n      iszero\n      tag_412\n      jumpi\n        /* \"#utility.yul\":8702:8720   */\n      tag_413\n      tag_289\n      jump\t// in\n    tag_413:\n        /* \"#utility.yul\":8686:8722   */\n    tag_412:\n        /* \"#utility.yul\":8538:8729   */\n      swap3\n      swap2\n      pop\n      pop\n      jump\t// out\n        /* \"#utility.yul\":8735:8917   */\n    tag_290:\n        /* \"#utility.yul\":8875:8909   */\n      0x416d6f756e742073686f756c642062652067726561746572207468616e203130\n        /* \"#utility.yul\":8871:8872   */\n      0x00\n        /* \"#utility.yul\":8863:8869   */\n      dup3\n        /* \"#utility.yul\":8859:8873   */\n      add\n        /* \"#utility.yul\":8852:8910   */\n      mstore\n        /* \"#utility.yul\":8735:8917   */\n      pop\n      jump\t// out\n        /* \"#utility.yul\":8923:9289   */\n    tag_291:\n        /* \"#utility.yul\":9065:9068   */\n      0x00\n        /* \"#utility.yul\":9086:9153   */\n      tag_416\n        /* \"#utility.yul\":9150:9152   */\n      0x20\n        /* \"#utility.yul\":9145:9148   */\n      dup4\n        /* \"#utility.yul\":9086:9153   */\n      tag_266\n      jump\t// in\n    tag_416:\n        /* \"#utility.yul\":9079:9153   */\n      swap2\n      pop\n        /* \"#utility.yul\":9162:9255   */\n      tag_417\n        /* \"#utility.yul\":9251:9254   */\n      dup3\n        /* \"#utility.yul\":9162:9255   */\n      tag_290\n      jump\t// in\n    tag_417:\n        /* \"#utility.yul\":9280:9282   */\n      0x20\n        /* \"#utility.yul\":9275:9278   */\n      dup3\n        /* \"#utility.yul\":9271:9283   */\n      add\n        /* \"#utility.yul\":9264:9283   */\n      swap1\n      pop\n        /* \"#utility.yul\":8923:9289   */\n      swap2\n      swap1\n      pop\n      jump\t// out\n        /* \"#utility.yul\":9295:9714   */\n    tag_143:\n        /* \"#utility.yul\":9461:9465   */\n      0x00\n        /* \"#utility.yul\":9499:9501   */\n      0x20\n        /* \"#utility.yul\":9488:9497   */\n      dup3\n        /* \"#utility.yul\":9484:9502   */\n      add\n        /* \"#utility.yul\":9476:9502   */\n      swap1\n      pop\n        /* \"#utility.yul\":9548:9557   */\n      dup2\n        /* \"#utility.yul\":9542:9546   */\n      dup2\n        /* \"#utility.yul\":9538:9558   */\n      sub\n        /* \"#utility.yul\":9534:9535   */\n      0x00\n        /* \"#utility.yul\":9523:9532   */\n      dup4\n        /* \"#utility.yul\":9519:9536   */\n      add\n        /* \"#utility.yul\":9512:9559   */\n      mstore\n        /* \"#utility.yul\":9576:9707   */\n      tag_419\n        /* \"#utility.yul\":9702:9706   */\n      dup2\n        /* \"#utility.yul\":9576:9707   */\n      tag_291\n      jump\t// in\n    tag_419:\n        /* \"#utility.yul\":9568:9707   */\n      swap1\n      pop\n        /* \"#utility.yul\":9295:9714   */\n      swap2\n      swap1\n      pop\n      jump\t// out\n        /* \"#utility.yul\":9720:9898   */\n    tag_292:\n        /* \"#utility.yul\":9860:9890   */\n      0x496e73756666696369656e742062616c616e636520746f206275726e00000000\n        /* \"#utility.yul\":9856:9857   */\n      0x00\n        /* \"#utility.yul\":9848:9854   */\n      dup3\n        /* \"#utility.yul\":9844:9858   */\n      add\n        /* \"#utility.yul\":9837:9891   */\n      mstore\n        /* \"#utility.yul\":9720:9898   */\n      pop\n      jump\t// out\n        /* \"#utility.yul\":9904:10270   */\n    tag_293:\n        /* \"#utility.yul\":10046:10049   */\n      0x00\n        /* \"#utility.yul\":10067:10134   */\n      tag_422\n        /* \"#utility.yul\":10131:10133   */\n      0x1c\n        /* \"#utility.yul\":10126:10129   */\n      dup4\n        /* \"#utility.yul\":10067:10134   */\n      tag_266\n      jump\t// in\n    tag_422:\n        /* \"#utility.yul\":10060:10134   */\n      swap2\n      pop\n        /* \"#utility.yul\":10143:10236   */\n      tag_423\n        /* \"#utility.yul\":10232:10235   */\n      dup3\n        /* \"#utility.yul\":10143:10236   */\n      tag_292\n      jump\t// in\n    tag_423:\n        /* \"#utility.yul\":10261:10263   */\n      0x20\n        /* \"#utility.yul\":10256:10259   */\n      dup3\n        /* \"#utility.yul\":10252:10264   */\n      add\n        /* \"#utility.yul\":10245:10264   */\n      swap1\n      pop\n        /* \"#utility.yul\":9904:10270   */\n      swap2\n      swap1\n      pop\n      jump\t// out\n        /* \"#utility.yul\":10276:10695   */\n    tag_147:\n        /* \"#utility.yul\":10442:10446   */\n      0x00\n        /* \"#utility.yul\":10480:10482   */\n      0x20\n        /* \"#utility.yul\":10469:10478   */\n      dup3\n        /* \"#utility.yul\":10465:10483   */\n      add\n        /* \"#utility.yul\":10457:10483   */\n      swap1\n      pop\n        /* \"#utility.yul\":10529:10538   */\n      dup2\n        /* \"#utility.yul\":10523:10527   */\n      dup2\n        /* \"#utility.yul\":10519:10539   */\n      sub\n        /* \"#utility.yul\":10515:10516   */\n      0x00\n        /* \"#utility.yul\":10504:10513   */\n      dup4\n        /* \"#utility.yul\":10500:10517   */\n      add\n        /* \"#utility.yul\":10493:10540   */\n      mstore\n        /* \"#utility.yul\":10557:10688   */\n      tag_425\n        /* \"#utility.yul\":10683:10687   */\n      dup2\n        /* \"#utility.yul\":10557:10688   */\n      tag_293\n      jump\t// in\n    tag_425:\n        /* \"#utility.yul\":10549:10688   */\n      swap1\n      pop\n        /* \"#utility.yul\":10276:10695   */\n      swap2\n      swap1\n      pop\n      jump\t// out\n        /* \"#utility.yul\":10701:10925   */\n    tag_294:\n        /* \"#utility.yul\":10841:10875   */\n      0x45524332303a2064656372656173656420616c6c6f77616e63652062656c6f77\n        /* \"#utility.yul\":10837:10838   */\n      0x00\n        /* \"#utility.yul\":10829:10835   */\n      dup3\n        /* \"#utility.yul\":10825:10839   */\n      add\n        /* \"#utility.yul\":10818:10876   */\n      mstore\n        /* \"#utility.yul\":10910:10917   */\n      0x207a65726f000000000000000000000000000000000000000000000000000000\n        /* \"#utility.yul\":10905:10907   */\n      0x20\n        /* \"#utility.yul\":10897:10903   */\n      dup3\n        /* \"#utility.yul\":10893:10908   */\n      add\n        /* \"#utility.yul\":10886:10918   */\n      mstore\n        /* \"#utility.yul\":10701:10925   */\n      pop\n      jump\t// out\n        /* \"#utility.yul\":10931:11297   */\n    tag_295:\n        /* \"#utility.yul\":11073:11076   */\n      0x00\n        /* \"#utility.yul\":11094:11161   */\n      tag_428\n        /* \"#utility.yul\":11158:11160   */\n      0x25\n        /* \"#utility.yul\":11153:11156   */\n      dup4\n        /* \"#utility.yul\":11094:11161   */\n      tag_266\n      jump\t// in\n    tag_428:\n        /* \"#utility.yul\":11087:11161   */\n      swap2\n      pop\n        /* \"#utility.yul\":11170:11263   */\n      tag_429\n        /* \"#utility.yul\":11259:11262   */\n      dup3\n        /* \"#utility.yul\":11170:11263   */\n      tag_294\n      jump\t// in\n    tag_429:\n        /* \"#utility.yul\":11288:11290   */\n      0x40\n        /* \"#utility.yul\":11283:11286   */\n      dup3\n        /* \"#utility.yul\":11279:11291   */\n      add\n        /* \"#utility.yul\":11272:11291   */\n      swap1\n      pop\n        /* \"#utility.yul\":10931:11297   */\n      swap2\n      swap1\n      pop\n      jump\t// out\n        /* \"#utility.yul\":11303:11722   */\n    tag_174:\n        /* \"#utility.yul\":11469:11473   */\n      0x00\n        /* \"#utility.yul\":11507:11509   */\n      0x20\n        /* \"#utility.yul\":11496:11505   */\n      dup3\n        /* \"#utility.yul\":11492:11510   */\n      add\n        /* \"#utility.yul\":11484:11510   */\n      swap1\n      pop\n        /* \"#utility.yul\":11556:11565   */\n      dup2\n        /* \"#utility.yul\":11550:11554   */\n      dup2\n        /* \"#utility.yul\":11546:11566   */\n      sub\n        /* \"#utility.yul\":11542:11543   */\n      0x00\n        /* \"#utility.yul\":11531:11540   */\n      dup4\n        /* \"#utility.yul\":11527:11544   */\n      add\n        /* \"#utility.yul\":11520:11567   */\n      mstore\n        /* \"#utility.yul\":11584:11715   */\n      tag_431\n        /* \"#utility.yul\":11710:11714   */\n      dup2\n        /* \"#utility.yul\":11584:11715   */\n      tag_295\n      jump\t// in\n    tag_431:\n        /* \"#utility.yul\":11576:11715   */\n      swap1\n      pop\n        /* \"#utility.yul\":11303:11722   */\n      swap2\n      swap1\n      pop\n      jump\t// out\n        /* \"#utility.yul\":11728:11910   */\n    tag_296:\n        /* \"#utility.yul\":11868:11902   */\n      0x496e73756666696369656e742062616c616e636520746f20627579206974656d\n        /* \"#utility.yul\":11864:11865   */\n      0x00\n        /* \"#utility.yul\":11856:11862   */\n      dup3\n        /* \"#utility.yul\":11852:11866   */\n      add\n        /* \"#utility.yul\":11845:11903   */\n      mstore\n        /* \"#utility.yul\":11728:11910   */\n      pop\n      jump\t// out\n        /* \"#utility.yul\":11916:12282   */\n    tag_297:\n        /* \"#utility.yul\":12058:12061   */\n      0x00\n        /* \"#utility.yul\":12079:12146   */\n      tag_434\n        /* \"#utility.yul\":12143:12145   */\n      0x20\n        /* \"#utility.yul\":12138:12141   */\n      dup4\n        /* \"#utility.yul\":12079:12146   */\n      tag_266\n      jump\t// in\n    tag_434:\n        /* \"#utility.yul\":12072:12146   */\n      swap2\n      pop\n        /* \"#utility.yul\":12155:12248   */\n      tag_435\n        /* \"#utility.yul\":12244:12247   */\n      dup3\n        /* \"#utility.yul\":12155:12248   */\n      tag_296\n      jump\t// in\n    tag_435:\n        /* \"#utility.yul\":12273:12275   */\n      0x20\n        /* \"#utility.yul\":12268:12271   */\n      dup3\n        /* \"#utility.yul\":12264:12276   */\n      add\n        /* \"#utility.yul\":12257:12276   */\n      swap1\n      pop\n        /* \"#utility.yul\":11916:12282   */\n      swap2\n      swap1\n      pop\n      jump\t// out\n        /* \"#utility.yul\":12288:12707   */\n    tag_196:\n        /* \"#utility.yul\":12454:12458   */\n      0x00\n        /* \"#utility.yul\":12492:12494   */\n      0x20\n        /* \"#utility.yul\":12481:12490   */\n      dup3\n        /* \"#utility.yul\":12477:12495   */\n      add\n        /* \"#utility.yul\":12469:12495   */\n      swap1\n      pop\n        /* \"#utility.yul\":12541:12550   */\n      dup2\n        /* \"#utility.yul\":12535:12539   */\n      dup2\n        /* \"#utility.yul\":12531:12551   */\n      sub\n        /* \"#utility.yul\":12527:12528   */\n      0x00\n        /* \"#utility.yul\":12516:12525   */\n      dup4\n        /* \"#utility.yul\":12512:12529   */\n      add\n        /* \"#utility.yul\":12505:12552   */\n      mstore\n        /* \"#utility.yul\":12569:12700   */\n      tag_437\n        /* \"#utility.yul\":12695:12699   */\n      dup2\n        /* \"#utility.yul\":12569:12700   */\n      tag_297\n      jump\t// in\n    tag_437:\n        /* \"#utility.yul\":12561:12700   */\n      swap1\n      pop\n        /* \"#utility.yul\":12288:12707   */\n      swap2\n      swap1\n      pop\n      jump\t// out\n        /* \"#utility.yul\":12713:12854   */\n    tag_298:\n        /* \"#utility.yul\":12762:12766   */\n      0x00\n        /* \"#utility.yul\":12785:12788   */\n      dup2\n        /* \"#utility.yul\":12777:12788   */\n      swap1\n      pop\n        /* \"#utility.yul\":12808:12811   */\n      dup2\n        /* \"#utility.yul\":12805:12806   */\n      0x00\n        /* \"#utility.yul\":12798:12812   */\n      mstore\n        /* \"#utility.yul\":12842:12846   */\n      0x20\n        /* \"#utility.yul\":12839:12840   */\n      0x00\n        /* \"#utility.yul\":12829:12847   */\n      keccak256\n        /* \"#utility.yul\":12821:12847   */\n      swap1\n      pop\n        /* \"#utility.yul\":12713:12854   */\n      swap2\n      swap1\n      pop\n      jump\t// out\n        /* \"#utility.yul\":12884:13715   */\n    tag_299:\n        /* \"#utility.yul\":12969:12972   */\n      0x00\n        /* \"#utility.yul\":13006:13011   */\n      dup2\n        /* \"#utility.yul\":13000:13012   */\n      sload\n        /* \"#utility.yul\":13035:13071   */\n      tag_440\n        /* \"#utility.yul\":13061:13070   */\n      dup2\n        /* \"#utility.yul\":13035:13071   */\n      tag_103\n      jump\t// in\n    tag_440:\n        /* \"#utility.yul\":13087:13158   */\n      tag_441\n        /* \"#utility.yul\":13151:13157   */\n      dup2\n        /* \"#utility.yul\":13146:13149   */\n      dup7\n        /* \"#utility.yul\":13087:13158   */\n      tag_266\n      jump\t// in\n    tag_441:\n        /* \"#utility.yul\":13080:13158   */\n      swap5\n      pop\n        /* \"#utility.yul\":13189:13190   */\n      0x01\n        /* \"#utility.yul\":13178:13187   */\n      dup3\n        /* \"#utility.yul\":13174:13191   */\n      and\n        /* \"#utility.yul\":13205:13206   */\n      0x00\n        /* \"#utility.yul\":13200:13364   */\n      dup2\n      eq\n      tag_443\n      jumpi\n        /* \"#utility.yul\":13378:13379   */\n      0x01\n        /* \"#utility.yul\":13373:13709   */\n      dup2\n      eq\n      tag_444\n      jumpi\n        /* \"#utility.yul\":13167:13709   */\n      jump(tag_442)\n        /* \"#utility.yul\":13200:13364   */\n    tag_443:\n        /* \"#utility.yul\":13284:13288   */\n      0xff\n        /* \"#utility.yul\":13280:13289   */\n      not\n        /* \"#utility.yul\":13269:13278   */\n      dup4\n        /* \"#utility.yul\":13265:13290   */\n      and\n        /* \"#utility.yul\":13260:13263   */\n      dup7\n        /* \"#utility.yul\":13253:13291   */\n      mstore\n        /* \"#utility.yul\":13344:13350   */\n      dup2\n        /* \"#utility.yul\":13337:13351   */\n      iszero\n        /* \"#utility.yul\":13330:13352   */\n      iszero\n        /* \"#utility.yul\":13324:13328   */\n      0x20\n        /* \"#utility.yul\":13320:13353   */\n      mul\n        /* \"#utility.yul\":13315:13318   */\n      dup7\n        /* \"#utility.yul\":13311:13354   */\n      add\n        /* \"#utility.yul\":13304:13354   */\n      swap4\n      pop\n        /* \"#utility.yul\":13200:13364   */\n      jump(tag_442)\n        /* \"#utility.yul\":13373:13709   */\n    tag_444:\n        /* \"#utility.yul\":13440:13478   */\n      tag_445\n        /* \"#utility.yul\":13472:13477   */\n      dup6\n        /* \"#utility.yul\":13440:13478   */\n      tag_298\n      jump\t// in\n    tag_445:\n        /* \"#utility.yul\":13500:13501   */\n      0x00\n        /* \"#utility.yul\":13514:13668   */\n    tag_446:\n        /* \"#utility.yul\":13528:13534   */\n      dup4\n        /* \"#utility.yul\":13525:13526   */\n      dup2\n        /* \"#utility.yul\":13522:13535   */\n      lt\n        /* \"#utility.yul\":13514:13668   */\n      iszero\n      tag_448\n      jumpi\n        /* \"#utility.yul\":13602:13609   */\n      dup2\n        /* \"#utility.yul\":13596:13610   */\n      sload\n        /* \"#utility.yul\":13592:13593   */\n      dup2\n        /* \"#utility.yul\":13587:13590   */\n      dup10\n        /* \"#utility.yul\":13583:13594   */\n      add\n        /* \"#utility.yul\":13576:13611   */\n      mstore\n        /* \"#utility.yul\":13652:13653   */\n      0x01\n        /* \"#utility.yul\":13643:13650   */\n      dup3\n        /* \"#utility.yul\":13639:13654   */\n      add\n        /* \"#utility.yul\":13628:13654   */\n      swap2\n      pop\n        /* \"#utility.yul\":13550:13554   */\n      0x20\n        /* \"#utility.yul\":13547:13548   */\n      dup2\n        /* \"#utility.yul\":13543:13555   */\n      add\n        /* \"#utility.yul\":13538:13555   */\n      swap1\n      pop\n        /* \"#utility.yul\":13514:13668   */\n      jump(tag_446)\n    tag_448:\n        /* \"#utility.yul\":13697:13698   */\n      dup1\n        /* \"#utility.yul\":13692:13695   */\n      dup9\n        /* \"#utility.yul\":13688:13699   */\n      add\n        /* \"#utility.yul\":13681:13699   */\n      swap6\n      pop\n        /* \"#utility.yul\":13380:13709   */\n      pop\n      pop\n        /* \"#utility.yul\":13167:13709   */\n    tag_442:\n      pop\n        /* \"#utility.yul\":12973:13715   */\n      pop\n      pop\n        /* \"#utility.yul\":12884:13715   */\n      swap3\n      swap2\n      pop\n      pop\n      jump\t// out\n        /* \"#utility.yul\":13721:14138   */\n    tag_199:\n        /* \"#utility.yul\":13859:13863   */\n      0x00\n        /* \"#utility.yul\":13897:13899   */\n      0x40\n        /* \"#utility.yul\":13886:13895   */\n      dup3\n        /* \"#utility.yul\":13882:13900   */\n      add\n        /* \"#utility.yul\":13874:13900   */\n      swap1\n      pop\n        /* \"#utility.yul\":13946:13955   */\n      dup2\n        /* \"#utility.yul\":13940:13944   */\n      dup2\n        /* \"#utility.yul\":13936:13956   */\n      sub\n        /* \"#utility.yul\":13932:13933   */\n      0x00\n        /* \"#utility.yul\":13921:13930   */\n      dup4\n        /* \"#utility.yul\":13917:13934   */\n      add\n        /* \"#utility.yul\":13910:13957   */\n      mstore\n        /* \"#utility.yul\":13974:14049   */\n      tag_450\n        /* \"#utility.yul\":14044:14048   */\n      dup2\n        /* \"#utility.yul\":14035:14041   */\n      dup6\n        /* \"#utility.yul\":13974:14049   */\n      tag_299\n      jump\t// in\n    tag_450:\n        /* \"#utility.yul\":13966:14049   */\n      swap1\n      pop\n        /* \"#utility.yul\":14059:14131   */\n      tag_451\n        /* \"#utility.yul\":14127:14129   */\n      0x20\n        /* \"#utility.yul\":14116:14125   */\n      dup4\n        /* \"#utility.yul\":14112:14130   */\n      add\n        /* \"#utility.yul\":14103:14109   */\n      dup5\n        /* \"#utility.yul\":14059:14131   */\n      tag_282\n      jump\t// in\n    tag_451:\n        /* \"#utility.yul\":13721:14138   */\n      swap4\n      swap3\n      pop\n      pop\n      pop\n      jump\t// out\n        /* \"#utility.yul\":14144:14369   */\n    tag_300:\n        /* \"#utility.yul\":14284:14318   */\n      0x4f776e61626c653a206e6577206f776e657220697320746865207a65726f2061\n        /* \"#utility.yul\":14280:14281   */\n      0x00\n        /* \"#utility.yul\":14272:14278   */\n      dup3\n        /* \"#utility.yul\":14268:14282   */\n      add\n        /* \"#utility.yul\":14261:14319   */\n      mstore\n        /* \"#utility.yul\":14353:14361   */\n      0x6464726573730000000000000000000000000000000000000000000000000000\n        /* \"#utility.yul\":14348:14350   */\n      0x20\n        /* \"#utility.yul\":14340:14346   */\n      dup3\n        /* \"#utility.yul\":14336:14351   */\n      add\n        /* \"#utility.yul\":14329:14362   */\n      mstore\n        /* \"#utility.yul\":14144:14369   */\n      pop\n      jump\t// out\n        /* \"#utility.yul\":14375:14741   */\n    tag_301:\n        /* \"#utility.yul\":14517:14520   */\n      0x00\n        /* \"#utility.yul\":14538:14605   */\n      tag_454\n        /* \"#utility.yul\":14602:14604   */\n      0x26\n        /* \"#utility.yul\":14597:14600   */\n      dup4\n        /* \"#utility.yul\":14538:14605   */\n      tag_266\n      jump\t// in\n    tag_454:\n        /* \"#utility.yul\":14531:14605   */\n      swap2\n      pop\n        /* \"#utility.yul\":14614:14707   */\n      tag_455\n        /* \"#utility.yul\":14703:14706   */\n      dup3\n        /* \"#utility.yul\":14614:14707   */\n      tag_300\n      jump\t// in\n    tag_455:\n        /* \"#utility.yul\":14732:14734   */\n      0x40\n        /* \"#utility.yul\":14727:14730   */\n      dup3\n        /* \"#utility.yul\":14723:14735   */\n      add\n        /* \"#utility.yul\":14716:14735   */\n      swap1\n      pop\n        /* \"#utility.yul\":14375:14741   */\n      swap2\n      swap1\n      pop\n      jump\t// out\n        /* \"#utility.yul\":14747:15166   */\n    tag_205:\n        /* \"#utility.yul\":14913:14917   */\n      0x00\n        /* \"#utility.yul\":14951:14953   */\n      0x20\n        /* \"#utility.yul\":14940:14949   */\n      dup3\n        /* \"#utility.yul\":14936:14954   */\n      add\n        /* \"#utility.yul\":14928:14954   */\n      swap1\n      pop\n        /* \"#utility.yul\":15000:15009   */\n      dup2\n        /* \"#utility.yul\":14994:14998   */\n      dup2\n        /* \"#utility.yul\":14990:15010   */\n      sub\n        /* \"#utility.yul\":14986:14987   */\n      0x00\n        /* \"#utility.yul\":14975:14984   */\n      dup4\n        /* \"#utility.yul\":14971:14988   */\n      add\n        /* \"#utility.yul\":14964:15011   */\n      mstore\n        /* \"#utility.yul\":15028:15159   */\n      tag_457\n        /* \"#utility.yul\":15154:15158   */\n      dup2\n        /* \"#utility.yul\":15028:15159   */\n      tag_301\n      jump\t// in\n    tag_457:\n        /* \"#utility.yul\":15020:15159   */\n      swap1\n      pop\n        /* \"#utility.yul\":14747:15166   */\n      swap2\n      swap1\n      pop\n      jump\t// out\n        /* \"#utility.yul\":15172:15395   */\n    tag_302:\n        /* \"#utility.yul\":15312:15346   */\n      0x45524332303a20617070726f76652066726f6d20746865207a65726f20616464\n        /* \"#utility.yul\":15308:15309   */\n      0x00\n        /* \"#utility.yul\":15300:15306   */\n      dup3\n        /* \"#utility.yul\":15296:15310   */\n      add\n        /* \"#utility.yul\":15289:15347   */\n      mstore\n        /* \"#utility.yul\":15381:15387   */\n      0x7265737300000000000000000000000000000000000000000000000000000000\n        /* \"#utility.yul\":15376:15378   */\n      0x20\n        /* \"#utility.yul\":15368:15374   */\n      dup3\n        /* \"#utility.yul\":15364:15379   */\n      add\n        /* \"#utility.yul\":15357:15388   */\n      mstore\n        /* \"#utility.yul\":15172:15395   */\n      pop\n      jump\t// out\n        /* \"#utility.yul\":15401:15767   */\n    tag_303:\n        /* \"#utility.yul\":15543:15546   */\n      0x00\n        /* \"#utility.yul\":15564:15631   */\n      tag_460\n        /* \"#utility.yul\":15628:15630   */\n      0x24\n        /* \"#utility.yul\":15623:15626   */\n      dup4\n        /* \"#utility.yul\":15564:15631   */\n      tag_266\n      jump\t// in\n    tag_460:\n        /* \"#utility.yul\":15557:15631   */\n      swap2\n      pop\n        /* \"#utility.yul\":15640:15733   */\n      tag_461\n        /* \"#utility.yul\":15729:15732   */\n      dup3\n        /* \"#utility.yul\":15640:15733   */\n      tag_302\n      jump\t// in\n    tag_461:\n        /* \"#utility.yul\":15758:15760   */\n      0x40\n        /* \"#utility.yul\":15753:15756   */\n      dup3\n        /* \"#utility.yul\":15749:15761   */\n      add\n        /* \"#utility.yul\":15742:15761   */\n      swap1\n      pop\n        /* \"#utility.yul\":15401:15767   */\n      swap2\n      swap1\n      pop\n      jump\t// out\n        /* \"#utility.yul\":15773:16192   */\n    tag_211:\n        /* \"#utility.yul\":15939:15943   */\n      0x00\n        /* \"#utility.yul\":15977:15979   */\n      0x20\n        /* \"#utility.yul\":15966:15975   */\n      dup3\n        /* \"#utility.yul\":15962:15980   */\n      add\n        /* \"#utility.yul\":15954:15980   */\n      swap1\n      pop\n        /* \"#utility.yul\":16026:16035   */\n      dup2\n        /* \"#utility.yul\":16020:16024   */\n      dup2\n        /* \"#utility.yul\":16016:16036   */\n      sub\n        /* \"#utility.yul\":16012:16013   */\n      0x00\n        /* \"#utility.yul\":16001:16010   */\n      dup4\n        /* \"#utility.yul\":15997:16014   */\n      add\n        /* \"#utility.yul\":15990:16037   */\n      mstore\n        /* \"#utility.yul\":16054:16185   */\n      tag_463\n        /* \"#utility.yul\":16180:16184   */\n      dup2\n        /* \"#utility.yul\":16054:16185   */\n      tag_303\n      jump\t// in\n    tag_463:\n        /* \"#utility.yul\":16046:16185   */\n      swap1\n      pop\n        /* \"#utility.yul\":15773:16192   */\n      swap2\n      swap1\n      pop\n      jump\t// out\n        /* \"#utility.yul\":16198:16419   */\n    tag_304:\n        /* \"#utility.yul\":16338:16372   */\n      0x45524332303a20617070726f766520746f20746865207a65726f206164647265\n        /* \"#utility.yul\":16334:16335   */\n      0x00\n        /* \"#utility.yul\":16326:16332   */\n      dup3\n        /* \"#utility.yul\":16322:16336   */\n      add\n        /* \"#utility.yul\":16315:16373   */\n      mstore\n        /* \"#utility.yul\":16407:16411   */\n      0x7373000000000000000000000000000000000000000000000000000000000000\n        /* \"#utility.yul\":16402:16404   */\n      0x20\n        /* \"#utility.yul\":16394:16400   */\n      dup3\n        /* \"#utility.yul\":16390:16405   */\n      add\n        /* \"#utility.yul\":16383:16412   */\n      mstore\n        /* \"#utility.yul\":16198:16419   */\n      pop\n      jump\t// out\n        /* \"#utility.yul\":16425:16791   */\n    tag_305:\n        /* \"#utility.yul\":16567:16570   */\n      0x00\n        /* \"#utility.yul\":16588:16655   */\n      tag_466\n        /* \"#utility.yul\":16652:16654   */\n      0x22\n        /* \"#utility.yul\":16647:16650   */\n      dup4\n        /* \"#utility.yul\":16588:16655   */\n      tag_266\n      jump\t// in\n    tag_466:\n        /* \"#utility.yul\":16581:16655   */\n      swap2\n      pop\n        /* \"#utility.yul\":16664:16757   */\n      tag_467\n        /* \"#utility.yul\":16753:16756   */\n      dup3\n        /* \"#utility.yul\":16664:16757   */\n      tag_304\n      jump\t// in\n    tag_467:\n        /* \"#utility.yul\":16782:16784   */\n      0x40\n        /* \"#utility.yul\":16777:16780   */\n      dup3\n        /* \"#utility.yul\":16773:16785   */\n      add\n        /* \"#utility.yul\":16766:16785   */\n      swap1\n      pop\n        /* \"#utility.yul\":16425:16791   */\n      swap2\n      swap1\n      pop\n      jump\t// out\n        /* \"#utility.yul\":16797:17216   */\n    tag_214:\n        /* \"#utility.yul\":16963:16967   */\n      0x00\n        /* \"#utility.yul\":17001:17003   */\n      0x20\n        /* \"#utility.yul\":16990:16999   */\n      dup3\n        /* \"#utility.yul\":16986:17004   */\n      add\n        /* \"#utility.yul\":16978:17004   */\n      swap1\n      pop\n        /* \"#utility.yul\":17050:17059   */\n      dup2\n        /* \"#utility.yul\":17044:17048   */\n      dup2\n        /* \"#utility.yul\":17040:17060   */\n      sub\n        /* \"#utility.yul\":17036:17037   */\n      0x00\n        /* \"#utility.yul\":17025:17034   */\n      dup4\n        /* \"#utility.yul\":17021:17038   */\n      add\n        /* \"#utility.yul\":17014:17061   */\n      mstore\n        /* \"#utility.yul\":17078:17209   */\n      tag_469\n        /* \"#utility.yul\":17204:17208   */\n      dup2\n        /* \"#utility.yul\":17078:17209   */\n      tag_305\n      jump\t// in\n    tag_469:\n        /* \"#utility.yul\":17070:17209   */\n      swap1\n      pop\n        /* \"#utility.yul\":16797:17216   */\n      swap2\n      swap1\n      pop\n      jump\t// out\n        /* \"#utility.yul\":17222:17401   */\n    tag_306:\n        /* \"#utility.yul\":17362:17393   */\n      0x45524332303a20696e73756666696369656e7420616c6c6f77616e6365000000\n        /* \"#utility.yul\":17358:17359   */\n      0x00\n        /* \"#utility.yul\":17350:17356   */\n      dup3\n        /* \"#utility.yul\":17346:17360   */\n      add\n        /* \"#utility.yul\":17339:17394   */\n      mstore\n        /* \"#utility.yul\":17222:17401   */\n      pop\n      jump\t// out\n        /* \"#utility.yul\":17407:17773   */\n    tag_307:\n        /* \"#utility.yul\":17549:17552   */\n      0x00\n        /* \"#utility.yul\":17570:17637   */\n      tag_472\n        /* \"#utility.yul\":17634:17636   */\n      0x1d\n        /* \"#utility.yul\":17629:17632   */\n      dup4\n        /* \"#utility.yul\":17570:17637   */\n      tag_266\n      jump\t// in\n    tag_472:\n        /* \"#utility.yul\":17563:17637   */\n      swap2\n      pop\n        /* \"#utility.yul\":17646:17739   */\n      tag_473\n        /* \"#utility.yul\":17735:17738   */\n      dup3\n        /* \"#utility.yul\":17646:17739   */\n      tag_306\n      jump\t// in\n    tag_473:\n        /* \"#utility.yul\":17764:17766   */\n      0x20\n        /* \"#utility.yul\":17759:17762   */\n      dup3\n        /* \"#utility.yul\":17755:17767   */\n      add\n        /* \"#utility.yul\":17748:17767   */\n      swap1\n      pop\n        /* \"#utility.yul\":17407:17773   */\n      swap2\n      swap1\n      pop\n      jump\t// out\n        /* \"#utility.yul\":17779:18198   */\n    tag_221:\n        /* \"#utility.yul\":17945:17949   */\n      0x00\n        /* \"#utility.yul\":17983:17985   */\n      0x20\n        /* \"#utility.yul\":17972:17981   */\n      dup3\n        /* \"#utility.yul\":17968:17986   */\n      add\n        /* \"#utility.yul\":17960:17986   */\n      swap1\n      pop\n        /* \"#utility.yul\":18032:18041   */\n      dup2\n        /* \"#utility.yul\":18026:18030   */\n      dup2\n        /* \"#utility.yul\":18022:18042   */\n      sub\n        /* \"#utility.yul\":18018:18019   */\n      0x00\n        /* \"#utility.yul\":18007:18016   */\n      dup4\n        /* \"#utility.yul\":18003:18020   */\n      add\n        /* \"#utility.yul\":17996:18043   */\n      mstore\n        /* \"#utility.yul\":18060:18191   */\n      tag_475\n        /* \"#utility.yul\":18186:18190   */\n      dup2\n        /* \"#utility.yul\":18060:18191   */\n      tag_307\n      jump\t// in\n    tag_475:\n        /* \"#utility.yul\":18052:18191   */\n      swap1\n      pop\n        /* \"#utility.yul\":17779:18198   */\n      swap2\n      swap1\n      pop\n      jump\t// out\n        /* \"#utility.yul\":18204:18428   */\n    tag_308:\n        /* \"#utility.yul\":18344:18378   */\n      0x45524332303a207472616e736665722066726f6d20746865207a65726f206164\n        /* \"#utility.yul\":18340:18341   */\n      0x00\n        /* \"#utility.yul\":18332:18338   */\n      dup3\n        /* \"#utility.yul\":18328:18342   */\n      add\n        /* \"#utility.yul\":18321:18379   */\n      mstore\n        /* \"#utility.yul\":18413:18420   */\n      0x6472657373000000000000000000000000000000000000000000000000000000\n        /* \"#utility.yul\":18408:18410   */\n      0x20\n        /* \"#utility.yul\":18400:18406   */\n      dup3\n        /* \"#utility.yul\":18396:18411   */\n      add\n        /* \"#utility.yul\":18389:18421   */\n      mstore\n        /* \"#utility.yul\":18204:18428   */\n      pop\n      jump\t// out\n        /* \"#utility.yul\":18434:18800   */\n    tag_309:\n        /* \"#utility.yul\":18576:18579   */\n      0x00\n        /* \"#utility.yul\":18597:18664   */\n      tag_478\n        /* \"#utility.yul\":18661:18663   */\n      0x25\n        /* \"#utility.yul\":18656:18659   */\n      dup4\n        /* \"#utility.yul\":18597:18664   */\n      tag_266\n      jump\t// in\n    tag_478:\n        /* \"#utility.yul\":18590:18664   */\n      swap2\n      pop\n        /* \"#utility.yul\":18673:18766   */\n      tag_479\n        /* \"#utility.yul\":18762:18765   */\n      dup3\n        /* \"#utility.yul\":18673:18766   */\n      tag_308\n      jump\t// in\n    tag_479:\n        /* \"#utility.yul\":18791:18793   */\n      0x40\n        /* \"#utility.yul\":18786:18789   */\n      dup3\n        /* \"#utility.yul\":18782:18794   */\n      add\n        /* \"#utility.yul\":18775:18794   */\n      swap1\n      pop\n        /* \"#utility.yul\":18434:18800   */\n      swap2\n      swap1\n      pop\n      jump\t// out\n        /* \"#utility.yul\":18806:19225   */\n    tag_226:\n        /* \"#utility.yul\":18972:18976   */\n      0x00\n        /* \"#utility.yul\":19010:19012   */\n      0x20\n        /* \"#utility.yul\":18999:19008   */\n      dup3\n        /* \"#utility.yul\":18995:19013   */\n      add\n        /* \"#utility.yul\":18987:19013   */\n      swap1\n      pop\n        /* \"#utility.yul\":19059:19068   */\n      dup2\n        /* \"#utility.yul\":19053:19057   */\n      dup2\n        /* \"#utility.yul\":19049:19069   */\n      sub\n        /* \"#utility.yul\":19045:19046   */\n      0x00\n        /* \"#utility.yul\":19034:19043   */\n      dup4\n        /* \"#utility.yul\":19030:19047   */\n      add\n        /* \"#utility.yul\":19023:19070   */\n      mstore\n        /* \"#utility.yul\":19087:19218   */\n      tag_481\n        /* \"#utility.yul\":19213:19217   */\n      dup2\n        /* \"#utility.yul\":19087:19218   */\n      tag_309\n      jump\t// in\n    tag_481:\n        /* \"#utility.yul\":19079:19218   */\n      swap1\n      pop\n        /* \"#utility.yul\":18806:19225   */\n      swap2\n      swap1\n      pop\n      jump\t// out\n        /* \"#utility.yul\":19231:19453   */\n    tag_310:\n        /* \"#utility.yul\":19371:19405   */\n      0x45524332303a207472616e7366657220746f20746865207a65726f2061646472\n        /* \"#utility.yul\":19367:19368   */\n      0x00\n        /* \"#utility.yul\":19359:19365   */\n      dup3\n        /* \"#utility.yul\":19355:19369   */\n      add\n        /* \"#utility.yul\":19348:19406   */\n      mstore\n        /* \"#utility.yul\":19440:19445   */\n      0x6573730000000000000000000000000000000000000000000000000000000000\n        /* \"#utility.yul\":19435:19437   */\n      0x20\n        /* \"#utility.yul\":19427:19433   */\n      dup3\n        /* \"#utility.yul\":19423:19438   */\n      add\n        /* \"#utility.yul\":19416:19446   */\n      mstore\n        /* \"#utility.yul\":19231:19453   */\n      pop\n      jump\t// out\n        /* \"#utility.yul\":19459:19825   */\n    tag_311:\n        /* \"#utility.yul\":19601:19604   */\n      0x00\n        /* \"#utility.yul\":19622:19689   */\n      tag_484\n        /* \"#utility.yul\":19686:19688   */\n      0x23\n        /* \"#utility.yul\":19681:19684   */\n      dup4\n        /* \"#utility.yul\":19622:19689   */\n      tag_266\n      jump\t// in\n    tag_484:\n        /* \"#utility.yul\":19615:19689   */\n      swap2\n      pop\n        /* \"#utility.yul\":19698:19791   */\n      tag_485\n        /* \"#utility.yul\":19787:19790   */\n      dup3\n        /* \"#utility.yul\":19698:19791   */\n      tag_310\n      jump\t// in\n    tag_485:\n        /* \"#utility.yul\":19816:19818   */\n      0x40\n        /* \"#utility.yul\":19811:19814   */\n      dup3\n        /* \"#utility.yul\":19807:19819   */\n      add\n        /* \"#utility.yul\":19800:19819   */\n      swap1\n      pop\n        /* \"#utility.yul\":19459:19825   */\n      swap2\n      swap1\n      pop\n      jump\t// out\n        /* \"#utility.yul\":19831:20250   */\n    tag_229:\n        /* \"#utility.yul\":19997:20001   */\n      0x00\n        /* \"#utility.yul\":20035:20037   */\n      0x20\n        /* \"#utility.yul\":20024:20033   */\n      dup3\n        /* \"#utility.yul\":20020:20038   */\n      add\n        /* \"#utility.yul\":20012:20038   */\n      swap1\n      pop\n        /* \"#utility.yul\":20084:20093   */\n      dup2\n        /* \"#utility.yul\":20078:20082   */\n      dup2\n        /* \"#utility.yul\":20074:20094   */\n      sub\n        /* \"#utility.yul\":20070:20071   */\n      0x00\n        /* \"#utility.yul\":20059:20068   */\n      dup4\n        /* \"#utility.yul\":20055:20072   */\n      add\n        /* \"#utility.yul\":20048:20095   */\n      mstore\n        /* \"#utility.yul\":20112:20243   */\n      tag_487\n        /* \"#utility.yul\":20238:20242   */\n      dup2\n        /* \"#utility.yul\":20112:20243   */\n      tag_311\n      jump\t// in\n    tag_487:\n        /* \"#utility.yul\":20104:20243   */\n      swap1\n      pop\n        /* \"#utility.yul\":19831:20250   */\n      swap2\n      swap1\n      pop\n      jump\t// out\n        /* \"#utility.yul\":20256:20481   */\n    tag_312:\n        /* \"#utility.yul\":20396:20430   */\n      0x45524332303a207472616e7366657220616d6f756e7420657863656564732062\n        /* \"#utility.yul\":20392:20393   */\n      0x00\n        /* \"#utility.yul\":20384:20390   */\n      dup3\n        /* \"#utility.yul\":20380:20394   */\n      add\n        /* \"#utility.yul\":20373:20431   */\n      mstore\n        /* \"#utility.yul\":20465:20473   */\n      0x616c616e63650000000000000000000000000000000000000000000000000000\n        /* \"#utility.yul\":20460:20462   */\n      0x20\n        /* \"#utility.yul\":20452:20458   */\n      dup3\n        /* \"#utility.yul\":20448:20463   */\n      add\n        /* \"#utility.yul\":20441:20474   */\n      mstore\n        /* \"#utility.yul\":20256:20481   */\n      pop\n      jump\t// out\n        /* \"#utility.yul\":20487:20853   */\n    tag_313:\n        /* \"#utility.yul\":20629:20632   */\n      0x00\n        /* \"#utility.yul\":20650:20717   */\n      tag_490\n        /* \"#utility.yul\":20714:20716   */\n      0x26\n        /* \"#utility.yul\":20709:20712   */\n      dup4\n        /* \"#utility.yul\":20650:20717   */\n      tag_266\n      jump\t// in\n    tag_490:\n        /* \"#utility.yul\":20643:20717   */\n      swap2\n      pop\n        /* \"#utility.yul\":20726:20819   */\n      tag_491\n        /* \"#utility.yul\":20815:20818   */\n      dup3\n        /* \"#utility.yul\":20726:20819   */\n      tag_312\n      jump\t// in\n    tag_491:\n        /* \"#utility.yul\":20844:20846   */\n      0x40\n        /* \"#utility.yul\":20839:20842   */\n      dup3\n        /* \"#utility.yul\":20835:20847   */\n      add\n        /* \"#utility.yul\":20828:20847   */\n      swap1\n      pop\n        /* \"#utility.yul\":20487:20853   */\n      swap2\n      swap1\n      pop\n      jump\t// out\n        /* \"#utility.yul\":20859:21278   */\n    tag_234:\n        /* \"#utility.yul\":21025:21029   */\n      0x00\n        /* \"#utility.yul\":21063:21065   */\n      0x20\n        /* \"#utility.yul\":21052:21061   */\n      dup3\n        /* \"#utility.yul\":21048:21066   */\n      add\n        /* \"#utility.yul\":21040:21066   */\n      swap1\n      pop\n        /* \"#utility.yul\":21112:21121   */\n      dup2\n        /* \"#utility.yul\":21106:21110   */\n      dup2\n        /* \"#utility.yul\":21102:21122   */\n      sub\n        /* \"#utility.yul\":21098:21099   */\n      0x00\n        /* \"#utility.yul\":21087:21096   */\n      dup4\n        /* \"#utility.yul\":21083:21100   */\n      add\n        /* \"#utility.yul\":21076:21123   */\n      mstore\n        /* \"#utility.yul\":21140:21271   */\n      tag_493\n        /* \"#utility.yul\":21266:21270   */\n      dup2\n        /* \"#utility.yul\":21140:21271   */\n      tag_313\n      jump\t// in\n    tag_493:\n        /* \"#utility.yul\":21132:21271   */\n      swap1\n      pop\n        /* \"#utility.yul\":20859:21278   */\n      swap2\n      swap1\n      pop\n      jump\t// out\n        /* \"#utility.yul\":21284:21504   */\n    tag_314:\n        /* \"#utility.yul\":21424:21458   */\n      0x45524332303a206275726e2066726f6d20746865207a65726f20616464726573\n        /* \"#utility.yul\":21420:21421   */\n      0x00\n        /* \"#utility.yul\":21412:21418   */\n      dup3\n        /* \"#utility.yul\":21408:21422   */\n      add\n        /* \"#utility.yul\":21401:21459   */\n      mstore\n        /* \"#utility.yul\":21493:21496   */\n      0x7300000000000000000000000000000000000000000000000000000000000000\n        /* \"#utility.yul\":21488:21490   */\n      0x20\n        /* \"#utility.yul\":21480:21486   */\n      dup3\n        /* \"#utility.yul\":21476:21491   */\n      add\n        /* \"#utility.yul\":21469:21497   */\n      mstore\n        /* \"#utility.yul\":21284:21504   */\n      pop\n      jump\t// out\n        /* \"#utility.yul\":21510:21876   */\n    tag_315:\n        /* \"#utility.yul\":21652:21655   */\n      0x00\n        /* \"#utility.yul\":21673:21740   */\n      tag_496\n        /* \"#utility.yul\":21737:21739   */\n      0x21\n        /* \"#utility.yul\":21732:21735   */\n      dup4\n        /* \"#utility.yul\":21673:21740   */\n      tag_266\n      jump\t// in\n    tag_496:\n        /* \"#utility.yul\":21666:21740   */\n      swap2\n      pop\n        /* \"#utility.yul\":21749:21842   */\n      tag_497\n        /* \"#utility.yul\":21838:21841   */\n      dup3\n        /* \"#utility.yul\":21749:21842   */\n      tag_314\n      jump\t// in\n    tag_497:\n        /* \"#utility.yul\":21867:21869   */\n      0x40\n        /* \"#utility.yul\":21862:21865   */\n      dup3\n        /* \"#utility.yul\":21858:21870   */\n      add\n        /* \"#utility.yul\":21851:21870   */\n      swap1\n      pop\n        /* \"#utility.yul\":21510:21876   */\n      swap2\n      swap1\n      pop\n      jump\t// out\n        /* \"#utility.yul\":21882:22301   */\n    tag_241:\n        /* \"#utility.yul\":22048:22052   */\n      0x00\n        /* \"#utility.yul\":22086:22088   */\n      0x20\n        /* \"#utility.yul\":22075:22084   */\n      dup3\n        /* \"#utility.yul\":22071:22089   */\n      add\n        /* \"#utility.yul\":22063:22089   */\n      swap1\n      pop\n        /* \"#utility.yul\":22135:22144   */\n      dup2\n        /* \"#utility.yul\":22129:22133   */\n      dup2\n        /* \"#utility.yul\":22125:22145   */\n      sub\n        /* \"#utility.yul\":22121:22122   */\n      0x00\n        /* \"#utility.yul\":22110:22119   */\n      dup4\n        /* \"#utility.yul\":22106:22123   */\n      add\n        /* \"#utility.yul\":22099:22146   */\n      mstore\n        /* \"#utility.yul\":22163:22294   */\n      tag_499\n        /* \"#utility.yul\":22289:22293   */\n      dup2\n        /* \"#utility.yul\":22163:22294   */\n      tag_315\n      jump\t// in\n    tag_499:\n        /* \"#utility.yul\":22155:22294   */\n      swap1\n      pop\n        /* \"#utility.yul\":21882:22301   */\n      swap2\n      swap1\n      pop\n      jump\t// out\n        /* \"#utility.yul\":22307:22528   */\n    tag_316:\n        /* \"#utility.yul\":22447:22481   */\n      0x45524332303a206275726e20616d6f756e7420657863656564732062616c616e\n        /* \"#utility.yul\":22443:22444   */\n      0x00\n        /* \"#utility.yul\":22435:22441   */\n      dup3\n        /* \"#utility.yul\":22431:22445   */\n      add\n        /* \"#utility.yul\":22424:22482   */\n      mstore\n        /* \"#utility.yul\":22516:22520   */\n      0x6365000000000000000000000000000000000000000000000000000000000000\n        /* \"#utility.yul\":22511:22513   */\n      0x20\n        /* \"#utility.yul\":22503:22509   */\n      dup3\n        /* \"#utility.yul\":22499:22514   */\n      add\n        /* \"#utility.yul\":22492:22521   */\n      mstore\n        /* \"#utility.yul\":22307:22528   */\n      pop\n      jump\t// out\n        /* \"#utility.yul\":22534:22900   */\n    tag_317:\n        /* \"#utility.yul\":22676:22679   */\n      0x00\n        /* \"#utility.yul\":22697:22764   */\n      tag_502\n        /* \"#utility.yul\":22761:22763   */\n      0x22\n        /* \"#utility.yul\":22756:22759   */\n      dup4\n        /* \"#utility.yul\":22697:22764   */\n      tag_266\n      jump\t// in\n    tag_502:\n        /* \"#utility.yul\":22690:22764   */\n      swap2\n      pop\n        /* \"#utility.yul\":22773:22866   */\n      tag_503\n        /* \"#utility.yul\":22862:22865   */\n      dup3\n        /* \"#utility.yul\":22773:22866   */\n      tag_316\n      jump\t// in\n    tag_503:\n        /* \"#utility.yul\":22891:22893   */\n      0x40\n        /* \"#utility.yul\":22886:22889   */\n      dup3\n        /* \"#utility.yul\":22882:22894   */\n      add\n        /* \"#utility.yul\":22875:22894   */\n      swap1\n      pop\n        /* \"#utility.yul\":22534:22900   */\n      swap2\n      swap1\n      pop\n      jump\t// out\n        /* \"#utility.yul\":22906:23325   */\n    tag_245:\n        /* \"#utility.yul\":23072:23076   */\n      0x00\n        /* \"#utility.yul\":23110:23112   */\n      0x20\n        /* \"#utility.yul\":23099:23108   */\n      dup3\n        /* \"#utility.yul\":23095:23113   */\n      add\n        /* \"#utility.yul\":23087:23113   */\n      swap1\n      pop\n        /* \"#utility.yul\":23159:23168   */\n      dup2\n        /* \"#utility.yul\":23153:23157   */\n      dup2\n        /* \"#utility.yul\":23149:23169   */\n      sub\n        /* \"#utility.yul\":23145:23146   */\n      0x00\n        /* \"#utility.yul\":23134:23143   */\n      dup4\n        /* \"#utility.yul\":23130:23147   */\n      add\n        /* \"#utility.yul\":23123:23170   */\n      mstore\n        /* \"#utility.yul\":23187:23318   */\n      tag_505\n        /* \"#utility.yul\":23313:23317   */\n      dup2\n        /* \"#utility.yul\":23187:23318   */\n      tag_317\n      jump\t// in\n    tag_505:\n        /* \"#utility.yul\":23179:23318   */\n      swap1\n      pop\n        /* \"#utility.yul\":22906:23325   */\n      swap2\n      swap1\n      pop\n      jump\t// out\n        /* \"#utility.yul\":23331:23513   */\n    tag_318:\n        /* \"#utility.yul\":23471:23505   */\n      0x4f776e61626c653a2063616c6c6572206973206e6f7420746865206f776e6572\n        /* \"#utility.yul\":23467:23468   */\n      0x00\n        /* \"#utility.yul\":23459:23465   */\n      dup3\n        /* \"#utility.yul\":23455:23469   */\n      add\n        /* \"#utility.yul\":23448:23506   */\n      mstore\n        /* \"#utility.yul\":23331:23513   */\n      pop\n      jump\t// out\n        /* \"#utility.yul\":23519:23885   */\n    tag_319:\n        /* \"#utility.yul\":23661:23664   */\n      0x00\n        /* \"#utility.yul\":23682:23749   */\n      tag_508\n        /* \"#utility.yul\":23746:23748   */\n      0x20\n        /* \"#utility.yul\":23741:23744   */\n      dup4\n        /* \"#utility.yul\":23682:23749   */\n      tag_266\n      jump\t// in\n    tag_508:\n        /* \"#utility.yul\":23675:23749   */\n      swap2\n      pop\n        /* \"#utility.yul\":23758:23851   */\n      tag_509\n        /* \"#utility.yul\":23847:23850   */\n      dup3\n        /* \"#utility.yul\":23758:23851   */\n      tag_318\n      jump\t// in\n    tag_509:\n        /* \"#utility.yul\":23876:23878   */\n      0x20\n        /* \"#utility.yul\":23871:23874   */\n      dup3\n        /* \"#utility.yul\":23867:23879   */\n      add\n        /* \"#utility.yul\":23860:23879   */\n      swap1\n      pop\n        /* \"#utility.yul\":23519:23885   */\n      swap2\n      swap1\n      pop\n      jump\t// out\n        /* \"#utility.yul\":23891:24310   */\n    tag_253:\n        /* \"#utility.yul\":24057:24061   */\n      0x00\n        /* \"#utility.yul\":24095:24097   */\n      0x20\n        /* \"#utility.yul\":24084:24093   */\n      dup3\n        /* \"#utility.yul\":24080:24098   */\n      add\n        /* \"#utility.yul\":24072:24098   */\n      swap1\n      pop\n        /* \"#utility.yul\":24144:24153   */\n      dup2\n        /* \"#utility.yul\":24138:24142   */\n      dup2\n        /* \"#utility.yul\":24134:24154   */\n      sub\n        /* \"#utility.yul\":24130:24131   */\n      0x00\n        /* \"#utility.yul\":24119:24128   */\n      dup4\n        /* \"#utility.yul\":24115:24132   */\n      add\n        /* \"#utility.yul\":24108:24155   */\n      mstore\n        /* \"#utility.yul\":24172:24303   */\n      tag_511\n        /* \"#utility.yul\":24298:24302   */\n      dup2\n        /* \"#utility.yul\":24172:24303   */\n      tag_319\n      jump\t// in\n    tag_511:\n        /* \"#utility.yul\":24164:24303   */\n      swap1\n      pop\n        /* \"#utility.yul\":23891:24310   */\n      swap2\n      swap1\n      pop\n      jump\t// out\n        /* \"#utility.yul\":24316:24497   */\n    tag_320:\n        /* \"#utility.yul\":24456:24489   */\n      0x45524332303a206d696e7420746f20746865207a65726f206164647265737300\n        /* \"#utility.yul\":24452:24453   */\n      0x00\n        /* \"#utility.yul\":24444:24450   */\n      dup3\n        /* \"#utility.yul\":24440:24454   */\n      add\n        /* \"#utility.yul\":24433:24490   */\n      mstore\n        /* \"#utility.yul\":24316:24497   */\n      pop\n      jump\t// out\n        /* \"#utility.yul\":24503:24869   */\n    tag_321:\n        /* \"#utility.yul\":24645:24648   */\n      0x00\n        /* \"#utility.yul\":24666:24733   */\n      tag_514\n        /* \"#utility.yul\":24730:24732   */\n      0x1f\n        /* \"#utility.yul\":24725:24728   */\n      dup4\n        /* \"#utility.yul\":24666:24733   */\n      tag_266\n      jump\t// in\n    tag_514:\n        /* \"#utility.yul\":24659:24733   */\n      swap2\n      pop\n        /* \"#utility.yul\":24742:24835   */\n      tag_515\n        /* \"#utility.yul\":24831:24834   */\n      dup3\n        /* \"#utility.yul\":24742:24835   */\n      tag_320\n      jump\t// in\n    tag_515:\n        /* \"#utility.yul\":24860:24862   */\n      0x20\n        /* \"#utility.yul\":24855:24858   */\n      dup3\n        /* \"#utility.yul\":24851:24863   */\n      add\n        /* \"#utility.yul\":24844:24863   */\n      swap1\n      pop\n        /* \"#utility.yul\":24503:24869   */\n      swap2\n      swap1\n      pop\n      jump\t// out\n        /* \"#utility.yul\":24875:25294   */\n    tag_258:\n        /* \"#utility.yul\":25041:25045   */\n      0x00\n        /* \"#utility.yul\":25079:25081   */\n      0x20\n        /* \"#utility.yul\":25068:25077   */\n      dup3\n        /* \"#utility.yul\":25064:25082   */\n      add\n        /* \"#utility.yul\":25056:25082   */\n      swap1\n      pop\n        /* \"#utility.yul\":25128:25137   */\n      dup2\n        /* \"#utility.yul\":25122:25126   */\n      dup2\n        /* \"#utility.yul\":25118:25138   */\n      sub\n        /* \"#utility.yul\":25114:25115   */\n      0x00\n        /* \"#utility.yul\":25103:25112   */\n      dup4\n        /* \"#utility.yul\":25099:25116   */\n      add\n        /* \"#utility.yul\":25092:25139   */\n      mstore\n        /* \"#utility.yul\":25156:25287   */\n      tag_517\n        /* \"#utility.yul\":25282:25286   */\n      dup2\n        /* \"#utility.yul\":25156:25287   */\n      tag_321\n      jump\t// in\n    tag_517:\n        /* \"#utility.yul\":25148:25287   */\n      swap1\n      pop\n        /* \"#utility.yul\":24875:25294   */\n      swap2\n      swap1\n      pop\n      jump\t// out\n\n    auxdata: 0xa2646970667358221220ed95e3d72fe2d85025764200101287c5321143cd5e1d05f17389237ceecd1f9b64736f6c634300081a0033\n}\n",
				"bytecode": {
					"linkReferences": {},
					"object": "608060405234801561000f575f80fd5b50604051612b26380380612b2683398181016040528101906100319190610549565b6040518060400160405280600581526020017f446567656e0000000000000000000000000000000000000000000000000000008152506040518060400160405280600381526020017f44474e000000000000000000000000000000000000000000000000000000000081525081600390816100ac91906107a5565b5080600490816100bc91906107a5565b5050506100db6100d06101c360201b60201c565b6101ca60201b60201c565b6100eb338261028d60201b60201c565b6101316040518060400160405280600681526020017f547368697274000000000000000000000000000000000000000000000000000081525060146103e760201b60201c565b6101776040518060400160405280600581526020017f50616e747300000000000000000000000000000000000000000000000000000081525060326103e760201b60201c565b6101bd6040518060400160405280600981526020017f556e64657277656172000000000000000000000000000000000000000000000081525060646103e760201b60201c565b506109dc565b5f33905090565b5f60055f9054906101000a900473ffffffffffffffffffffffffffffffffffffffff1690508160055f6101000a81548173ffffffffffffffffffffffffffffffffffffffff021916908373ffffffffffffffffffffffffffffffffffffffff1602179055508173ffffffffffffffffffffffffffffffffffffffff168173ffffffffffffffffffffffffffffffffffffffff167f8be0079c531659141344cd1fd0a4f28419497f9722a3daafe3b4186f6b6457e060405160405180910390a35050565b5f73ffffffffffffffffffffffffffffffffffffffff168273ffffffffffffffffffffffffffffffffffffffff16036102fb576040517f08c379a00000000000000000000000000000000000000000000000000000000081526004016102f2906108ce565b60405180910390fd5b61030c5f838361045660201b60201c565b8060025f82825461031d9190610919565b92505081905550805f808473ffffffffffffffffffffffffffffffffffffffff1673ffffffffffffffffffffffffffffffffffffffff1681526020019081526020015f205f82825401925050819055508173ffffffffffffffffffffffffffffffffffffffff165f73ffffffffffffffffffffffffffffffffffffffff167fddf252ad1be2c89b69c2b068fc378daa952ba7f163c4a11628f55a4df523b3ef836040516103ca919061095b565b60405180910390a36103e35f838361045b60201b60201c565b5050565b6103f561046060201b60201c565b6006604051806040016040528084815260200183815250908060018154018082558091505060019003905f5260205f2090600202015f909190919091505f820151815f01908161044591906107a5565b506020820151816001015550505050565b505050565b505050565b61046e6101c360201b60201c565b73ffffffffffffffffffffffffffffffffffffffff166104926104ea60201b60201c565b73ffffffffffffffffffffffffffffffffffffffff16146104e8576040517f08c379a00000000000000000000000000000000000000000000000000000000081526004016104df906109be565b60405180910390fd5b565b5f60055f9054906101000a900473ffffffffffffffffffffffffffffffffffffffff16905090565b5f80fd5b5f819050919050565b61052881610516565b8114610532575f80fd5b50565b5f815190506105438161051f565b92915050565b5f6020828403121561055e5761055d610512565b5b5f61056b84828501610535565b91505092915050565b5f81519050919050565b7f4e487b71000000000000000000000000000000000000000000000000000000005f52604160045260245ffd5b7f4e487b71000000000000000000000000000000000000000000000000000000005f52602260045260245ffd5b5f60028204905060018216806105ef57607f821691505b602082108103610602576106016105ab565b5b50919050565b5f819050815f5260205f209050919050565b5f6020601f8301049050919050565b5f82821b905092915050565b5f600883026106647fffffffffffffffffffffffffffffffffffffffffffffffffffffffffffffffff82610629565b61066e8683610629565b95508019841693508086168417925050509392505050565b5f819050919050565b5f6106a96106a461069f84610516565b610686565b610516565b9050919050565b5f819050919050565b6106c28361068f565b6106d66106ce826106b0565b848454610635565b825550505050565b5f90565b6106ea6106de565b6106f58184846106b9565b505050565b5b818110156107185761070d5f826106e2565b6001810190506106fb565b5050565b601f82111561075d5761072e81610608565b6107378461061a565b81016020851015610746578190505b61075a6107528561061a565b8301826106fa565b50505b505050565b5f82821c905092915050565b5f61077d5f1984600802610762565b1980831691505092915050565b5f610795838361076e565b9150826002028217905092915050565b6107ae82610574565b67ffffffffffffffff8111156107c7576107c661057e565b5b6107d182546105d8565b6107dc82828561071c565b5f60209050601f83116001811461080d575f84156107fb578287015190505b610805858261078a565b86555061086c565b601f19841661081b86610608565b5f5b828110156108425784890151825560018201915060208501945060208101905061081d565b8683101561085f578489015161085b601f89168261076e565b8355505b6001600288020188555050505b505050505050565b5f82825260208201905092915050565b7f45524332303a206d696e7420746f20746865207a65726f2061646472657373005f82015250565b5f6108b8601f83610874565b91506108c382610884565b602082019050919050565b5f6020820190508181035f8301526108e5816108ac565b9050919050565b7f4e487b71000000000000000000000000000000000000000000000000000000005f52601160045260245ffd5b5f61092382610516565b915061092e83610516565b9250828201905080821115610946576109456108ec565b5b92915050565b61095581610516565b82525050565b5f60208201905061096e5f83018461094c565b92915050565b7f4f776e61626c653a2063616c6c6572206973206e6f7420746865206f776e65725f82015250565b5f6109a8602083610874565b91506109b382610974565b602082019050919050565b5f6020820190508181035f8301526109d58161099c565b9050919050565b61213d806109e95f395ff3fe608060405234801561000f575f80fd5b506004361061011f575f3560e01c8063715018a6116100ab578063a9059cbb1161006f578063a9059cbb1461031c578063bfb231d21461034c578063dd62ed3e1461037d578063e7fb74c7146103ad578063f2fde38b146103c95761011f565b8063715018a61461028a5780638da5cb5b1461029457806395d89b41146102b2578063a0712d68146102d0578063a457c2d7146102ec5761011f565b80633129e773116100f25780633129e773146101bf578063313ce567146101f0578063395093511461020e57806342966c681461023e57806370a082311461025a5761011f565b806306fdde0314610123578063095ea7b31461014157806318160ddd1461017157806323b872dd1461018f575b5f80fd5b61012b6103e5565b60405161013891906114ce565b60405180910390f35b61015b6004803603810190610156919061157f565b610475565b60405161016891906115d7565b60405180910390f35b610179610497565b60405161018691906115ff565b60405180910390f35b6101a960048036038101906101a49190611618565b6104a0565b6040516101b691906115d7565b60405180910390f35b6101d960048036038101906101d49190611668565b6104ce565b6040516101e7929190611693565b60405180910390f35b6101f86105d7565b60405161020591906116dc565b60405180910390f35b6102286004803603810190610223919061157f565b6105df565b60405161023591906115d7565b60405180910390f35b61025860048036038101906102539190611668565b610615565b005b610274600480360381019061026f91906116f5565b6106b0565b60405161028191906115ff565b60405180910390f35b6102926106f5565b005b61029c610708565b6040516102a9919061172f565b60405180910390f35b6102ba610730565b6040516102c791906114ce565b60405180910390f35b6102ea60048036038101906102e59190611668565b6107c0565b005b6103066004803603810190610301919061157f565b6107d5565b60405161031391906115d7565b60405180910390f35b6103366004803603810190610331919061157f565b61084a565b60405161034391906115d7565b60405180910390f35b61036660048036038101906103619190611668565b610867565b604051610374929190611693565b60405180910390f35b61039760048036038101906103929190611748565b61091c565b6040516103a491906115ff565b60405180910390f35b6103c760048036038101906103c29190611668565b61099e565b005b6103e360048036038101906103de91906116f5565b610abf565b005b6060600380546103f4906117b3565b80601f0160208091040260200160405190810160405280929190818152602001828054610420906117b3565b801561046b5780601f106104425761010080835404028352916020019161046b565b820191905f5260205f20905b81548152906001019060200180831161044e57829003601f168201915b5050505050905090565b5f8061047f610b41565b905061048c818585610b48565b600191505092915050565b5f600254905090565b5f806104aa610b41565b90506104b7858285610d0b565b6104c2858585610d96565b60019150509392505050565b60605f6006805490508310610518576040517f08c379a000000000000000000000000000000000000000000000000000000000815260040161050f9061182d565b60405180910390fd5b5f6006848154811061052d5761052c61184b565b5b905f5260205f2090600202019050805f01816001015481805461054f906117b3565b80601f016020809104026020016040519081016040528092919081815260200182805461057b906117b3565b80156105c65780601f1061059d576101008083540402835291602001916105c6565b820191905f5260205f20905b8154815290600101906020018083116105a957829003601f168201915b505050505091509250925050915091565b5f6012905090565b5f806105e9610b41565b905061060a8185856105fb858961091c565b61060591906118a5565b610b48565b600191505092915050565b600a8111610658576040517f08c379a000000000000000000000000000000000000000000000000000000000815260040161064f90611922565b60405180910390fd5b610661336106b0565b8111156106a3576040517f08c379a000000000000000000000000000000000000000000000000000000000815260040161069a9061198a565b60405180910390fd5b6106ad3382611002565b50565b5f805f8373ffffffffffffffffffffffffffffffffffffffff1673ffffffffffffffffffffffffffffffffffffffff1681526020019081526020015f20549050919050565b6106fd6111c5565b6107065f611243565b565b5f60055f9054906101000a900473ffffffffffffffffffffffffffffffffffffffff16905090565b60606004805461073f906117b3565b80601f016020809104026020016040519081016040528092919081815260200182805461076b906117b3565b80156107b65780601f1061078d576101008083540402835291602001916107b6565b820191905f5260205f20905b81548152906001019060200180831161079957829003601f168201915b5050505050905090565b6107c86111c5565b6107d23382611306565b50565b5f806107df610b41565b90505f6107ec828661091c565b905083811015610831576040517f08c379a000000000000000000000000000000000000000000000000000000000815260040161082890611a18565b60405180910390fd5b61083e8286868403610b48565b60019250505092915050565b5f61085d610856610b41565b8484610d96565b6001905092915050565b60068181548110610876575f80fd5b905f5260205f2090600202015f91509050805f018054610895906117b3565b80601f01602080910402602001604051908101604052809291908181526020018280546108c1906117b3565b801561090c5780601f106108e35761010080835404028352916020019161090c565b820191905f5260205f20905b8154815290600101906020018083116108ef57829003601f168201915b5050505050908060010154905082565b5f60015f8473ffffffffffffffffffffffffffffffffffffffff1673ffffffffffffffffffffffffffffffffffffffff1681526020019081526020015f205f8373ffffffffffffffffffffffffffffffffffffffff1673ffffffffffffffffffffffffffffffffffffffff1681526020019081526020015f2054905092915050565b60068054905081106109e5576040517f08c379a00000000000000000000000000000000000000000000000000000000081526004016109dc9061182d565b60405180910390fd5b5f600682815481106109fa576109f961184b565b5b905f5260205f20906002020190508060010154610a16336106b0565b1015610a57576040517f08c379a0000000000000000000000000000000000000000000000000000000008152600401610a4e90611a80565b60405180910390fd5b610a65338260010154611002565b3373ffffffffffffffffffffffffffffffffffffffff167fb7cdc79e3be573b5b8b9df08b9f1d71b09b7604268bf72602622feb5de87da48825f018360010154604051610ab3929190611b31565b60405180910390a25050565b610ac76111c5565b5f73ffffffffffffffffffffffffffffffffffffffff168173ffffffffffffffffffffffffffffffffffffffff1603610b35576040517f08c379a0000000000000000000000000000000000000000000000000000000008152600401610b2c90611bcf565b60405180910390fd5b610b3e81611243565b50565b5f33905090565b5f73ffffffffffffffffffffffffffffffffffffffff168373ffffffffffffffffffffffffffffffffffffffff1603610bb6576040517f08c379a0000000000000000000000000000000000000000000000000000000008152600401610bad90611c5d565b60405180910390fd5b5f73ffffffffffffffffffffffffffffffffffffffff168273ffffffffffffffffffffffffffffffffffffffff1603610c24576040517f08c379a0000000000000000000000000000000000000000000000000000000008152600401610c1b90611ceb565b60405180910390fd5b8060015f8573ffffffffffffffffffffffffffffffffffffffff1673ffffffffffffffffffffffffffffffffffffffff1681526020019081526020015f205f8473ffffffffffffffffffffffffffffffffffffffff1673ffffffffffffffffffffffffffffffffffffffff1681526020019081526020015f20819055508173ffffffffffffffffffffffffffffffffffffffff168373ffffffffffffffffffffffffffffffffffffffff167f8c5be1e5ebec7d5bd14f71427d1e84f3dd0314c0f7b2291e5b200ac8c7c3b92583604051610cfe91906115ff565b60405180910390a3505050565b5f610d16848461091c565b90507fffffffffffffffffffffffffffffffffffffffffffffffffffffffffffffffff8114610d905781811015610d82576040517f08c379a0000000000000000000000000000000000000000000000000000000008152600401610d7990611d53565b60405180910390fd5b610d8f8484848403610b48565b5b50505050565b5f73ffffffffffffffffffffffffffffffffffffffff168373ffffffffffffffffffffffffffffffffffffffff1603610e04576040517f08c379a0000000000000000000000000000000000000000000000000000000008152600401610dfb90611de1565b60405180910390fd5b5f73ffffffffffffffffffffffffffffffffffffffff168273ffffffffffffffffffffffffffffffffffffffff1603610e72576040517f08c379a0000000000000000000000000000000000000000000000000000000008152600401610e6990611e6f565b60405180910390fd5b610e7d838383611454565b5f805f8573ffffffffffffffffffffffffffffffffffffffff1673ffffffffffffffffffffffffffffffffffffffff1681526020019081526020015f2054905081811015610f00576040517f08c379a0000000000000000000000000000000000000000000000000000000008152600401610ef790611efd565b60405180910390fd5b8181035f808673ffffffffffffffffffffffffffffffffffffffff1673ffffffffffffffffffffffffffffffffffffffff1681526020019081526020015f2081905550815f808573ffffffffffffffffffffffffffffffffffffffff1673ffffffffffffffffffffffffffffffffffffffff1681526020019081526020015f205f82825401925050819055508273ffffffffffffffffffffffffffffffffffffffff168473ffffffffffffffffffffffffffffffffffffffff167fddf252ad1be2c89b69c2b068fc378daa952ba7f163c4a11628f55a4df523b3ef84604051610fe991906115ff565b60405180910390a3610ffc848484611459565b50505050565b5f73ffffffffffffffffffffffffffffffffffffffff168273ffffffffffffffffffffffffffffffffffffffff1603611070576040517f08c379a000000000000000000000000000000000000000000000000000000000815260040161106790611f8b565b60405180910390fd5b61107b825f83611454565b5f805f8473ffffffffffffffffffffffffffffffffffffffff1673ffffffffffffffffffffffffffffffffffffffff1681526020019081526020015f20549050818110156110fe576040517f08c379a00000000000000000000000000000000000000000000000000000000081526004016110f590612019565b60405180910390fd5b8181035f808573ffffffffffffffffffffffffffffffffffffffff1673ffffffffffffffffffffffffffffffffffffffff1681526020019081526020015f20819055508160025f82825403925050819055505f73ffffffffffffffffffffffffffffffffffffffff168373ffffffffffffffffffffffffffffffffffffffff167fddf252ad1be2c89b69c2b068fc378daa952ba7f163c4a11628f55a4df523b3ef846040516111ad91906115ff565b60405180910390a36111c0835f84611459565b505050565b6111cd610b41565b73ffffffffffffffffffffffffffffffffffffffff166111eb610708565b73ffffffffffffffffffffffffffffffffffffffff1614611241576040517f08c379a000000000000000000000000000000000000000000000000000000000815260040161123890612081565b60405180910390fd5b565b5f60055f9054906101000a900473ffffffffffffffffffffffffffffffffffffffff1690508160055f6101000a81548173ffffffffffffffffffffffffffffffffffffffff021916908373ffffffffffffffffffffffffffffffffffffffff1602179055508173ffffffffffffffffffffffffffffffffffffffff168173ffffffffffffffffffffffffffffffffffffffff167f8be0079c531659141344cd1fd0a4f28419497f9722a3daafe3b4186f6b6457e060405160405180910390a35050565b5f73ffffffffffffffffffffffffffffffffffffffff168273ffffffffffffffffffffffffffffffffffffffff1603611374576040517f08c379a000000000000000000000000000000000000000000000000000000000815260040161136b906120e9565b60405180910390fd5b61137f5f8383611454565b8060025f82825461139091906118a5565b92505081905550805f808473ffffffffffffffffffffffffffffffffffffffff1673ffffffffffffffffffffffffffffffffffffffff1681526020019081526020015f205f82825401925050819055508173ffffffffffffffffffffffffffffffffffffffff165f73ffffffffffffffffffffffffffffffffffffffff167fddf252ad1be2c89b69c2b068fc378daa952ba7f163c4a11628f55a4df523b3ef8360405161143d91906115ff565b60405180910390a36114505f8383611459565b5050565b505050565b505050565b5f81519050919050565b5f82825260208201905092915050565b8281835e5f83830152505050565b5f601f19601f8301169050919050565b5f6114a08261145e565b6114aa8185611468565b93506114ba818560208601611478565b6114c381611486565b840191505092915050565b5f6020820190508181035f8301526114e68184611496565b905092915050565b5f80fd5b5f73ffffffffffffffffffffffffffffffffffffffff82169050919050565b5f61151b826114f2565b9050919050565b61152b81611511565b8114611535575f80fd5b50565b5f8135905061154681611522565b92915050565b5f819050919050565b61155e8161154c565b8114611568575f80fd5b50565b5f8135905061157981611555565b92915050565b5f8060408385031215611595576115946114ee565b5b5f6115a285828601611538565b92505060206115b38582860161156b565b9150509250929050565b5f8115159050919050565b6115d1816115bd565b82525050565b5f6020820190506115ea5f8301846115c8565b92915050565b6115f98161154c565b82525050565b5f6020820190506116125f8301846115f0565b92915050565b5f805f6060848603121561162f5761162e6114ee565b5b5f61163c86828701611538565b935050602061164d86828701611538565b925050604061165e8682870161156b565b9150509250925092565b5f6020828403121561167d5761167c6114ee565b5b5f61168a8482850161156b565b91505092915050565b5f6040820190508181035f8301526116ab8185611496565b90506116ba60208301846115f0565b9392505050565b5f60ff82169050919050565b6116d6816116c1565b82525050565b5f6020820190506116ef5f8301846116cd565b92915050565b5f6020828403121561170a576117096114ee565b5b5f61171784828501611538565b91505092915050565b61172981611511565b82525050565b5f6020820190506117425f830184611720565b92915050565b5f806040838503121561175e5761175d6114ee565b5b5f61176b85828601611538565b925050602061177c85828601611538565b9150509250929050565b7f4e487b71000000000000000000000000000000000000000000000000000000005f52602260045260245ffd5b5f60028204905060018216806117ca57607f821691505b6020821081036117dd576117dc611786565b5b50919050565b7f4974656d20696e646578206f7574206f6620626f756e647300000000000000005f82015250565b5f611817601883611468565b9150611822826117e3565b602082019050919050565b5f6020820190508181035f8301526118448161180b565b9050919050565b7f4e487b71000000000000000000000000000000000000000000000000000000005f52603260045260245ffd5b7f4e487b71000000000000000000000000000000000000000000000000000000005f52601160045260245ffd5b5f6118af8261154c565b91506118ba8361154c565b92508282019050808211156118d2576118d1611878565b5b92915050565b7f416d6f756e742073686f756c642062652067726561746572207468616e2031305f82015250565b5f61190c602083611468565b9150611917826118d8565b602082019050919050565b5f6020820190508181035f83015261193981611900565b9050919050565b7f496e73756666696369656e742062616c616e636520746f206275726e000000005f82015250565b5f611974601c83611468565b915061197f82611940565b602082019050919050565b5f6020820190508181035f8301526119a181611968565b9050919050565b7f45524332303a2064656372656173656420616c6c6f77616e63652062656c6f775f8201527f207a65726f000000000000000000000000000000000000000000000000000000602082015250565b5f611a02602583611468565b9150611a0d826119a8565b604082019050919050565b5f6020820190508181035f830152611a2f816119f6565b9050919050565b7f496e73756666696369656e742062616c616e636520746f20627579206974656d5f82015250565b5f611a6a602083611468565b9150611a7582611a36565b602082019050919050565b5f6020820190508181035f830152611a9781611a5e565b9050919050565b5f819050815f5260205f209050919050565b5f8154611abc816117b3565b611ac68186611468565b9450600182165f8114611ae05760018114611af657611b28565b60ff198316865281151560200286019350611b28565b611aff85611a9e565b5f5b83811015611b2057815481890152600182019150602081019050611b01565b808801955050505b50505092915050565b5f6040820190508181035f830152611b498185611ab0565b9050611b5860208301846115f0565b9392505050565b7f4f776e61626c653a206e6577206f776e657220697320746865207a65726f20615f8201527f6464726573730000000000000000000000000000000000000000000000000000602082015250565b5f611bb9602683611468565b9150611bc482611b5f565b604082019050919050565b5f6020820190508181035f830152611be681611bad565b9050919050565b7f45524332303a20617070726f76652066726f6d20746865207a65726f206164645f8201527f7265737300000000000000000000000000000000000000000000000000000000602082015250565b5f611c47602483611468565b9150611c5282611bed565b604082019050919050565b5f6020820190508181035f830152611c7481611c3b565b9050919050565b7f45524332303a20617070726f766520746f20746865207a65726f2061646472655f8201527f7373000000000000000000000000000000000000000000000000000000000000602082015250565b5f611cd5602283611468565b9150611ce082611c7b565b604082019050919050565b5f6020820190508181035f830152611d0281611cc9565b9050919050565b7f45524332303a20696e73756666696369656e7420616c6c6f77616e63650000005f82015250565b5f611d3d601d83611468565b9150611d4882611d09565b602082019050919050565b5f6020820190508181035f830152611d6a81611d31565b9050919050565b7f45524332303a207472616e736665722066726f6d20746865207a65726f2061645f8201527f6472657373000000000000000000000000000000000000000000000000000000602082015250565b5f611dcb602583611468565b9150611dd682611d71565b604082019050919050565b5f6020820190508181035f830152611df881611dbf565b9050919050565b7f45524332303a207472616e7366657220746f20746865207a65726f20616464725f8201527f6573730000000000000000000000000000000000000000000000000000000000602082015250565b5f611e59602383611468565b9150611e6482611dff565b604082019050919050565b5f6020820190508181035f830152611e8681611e4d565b9050919050565b7f45524332303a207472616e7366657220616d6f756e74206578636565647320625f8201527f616c616e63650000000000000000000000000000000000000000000000000000602082015250565b5f611ee7602683611468565b9150611ef282611e8d565b604082019050919050565b5f6020820190508181035f830152611f1481611edb565b9050919050565b7f45524332303a206275726e2066726f6d20746865207a65726f206164647265735f8201527f7300000000000000000000000000000000000000000000000000000000000000602082015250565b5f611f75602183611468565b9150611f8082611f1b565b604082019050919050565b5f6020820190508181035f830152611fa281611f69565b9050919050565b7f45524332303a206275726e20616d6f756e7420657863656564732062616c616e5f8201527f6365000000000000000000000000000000000000000000000000000000000000602082015250565b5f612003602283611468565b915061200e82611fa9565b604082019050919050565b5f6020820190508181035f83015261203081611ff7565b9050919050565b7f4f776e61626c653a2063616c6c6572206973206e6f7420746865206f776e65725f82015250565b5f61206b602083611468565b915061207682612037565b602082019050919050565b5f6020820190508181035f8301526120988161205f565b9050919050565b7f45524332303a206d696e7420746f20746865207a65726f2061646472657373005f82015250565b5f6120d3601f83611468565b91506120de8261209f565b602082019050919050565b5f6020820190508181035f830152612100816120c7565b905091905056fea2646970667358221220ed95e3d72fe2d85025764200101287c5321143cd5e1d05f17389237ceecd1f9b64736f6c634300081a0033",
					"opcodes": "PUSH1 0x80 PUSH1 0x40 MSTORE CALLVALUE DUP1 ISZERO PUSH2 0xF JUMPI PUSH0 DUP1 REVERT JUMPDEST POP PUSH1 0x40 MLOAD PUSH2 0x2B26 CODESIZE SUB DUP1 PUSH2 0x2B26 DUP4 CODECOPY DUP2 DUP2 ADD PUSH1 0x40 MSTORE DUP2 ADD SWAP1 PUSH2 0x31 SWAP2 SWAP1 PUSH2 0x549 JUMP JUMPDEST PUSH1 0x40 MLOAD DUP1 PUSH1 0x40 ADD PUSH1 0x40 MSTORE DUP1 PUSH1 0x5 DUP2 MSTORE PUSH1 0x20 ADD PUSH32 0x446567656E000000000000000000000000000000000000000000000000000000 DUP2 MSTORE POP PUSH1 0x40 MLOAD DUP1 PUSH1 0x40 ADD PUSH1 0x40 MSTORE DUP1 PUSH1 0x3 DUP2 MSTORE PUSH1 0x20 ADD PUSH32 0x44474E0000000000000000000000000000000000000000000000000000000000 DUP2 MSTORE POP DUP2 PUSH1 0x3 SWAP1 DUP2 PUSH2 0xAC SWAP2 SWAP1 PUSH2 0x7A5 JUMP JUMPDEST POP DUP1 PUSH1 0x4 SWAP1 DUP2 PUSH2 0xBC SWAP2 SWAP1 PUSH2 0x7A5 JUMP JUMPDEST POP POP POP PUSH2 0xDB PUSH2 0xD0 PUSH2 0x1C3 PUSH1 0x20 SHL PUSH1 0x20 SHR JUMP JUMPDEST PUSH2 0x1CA PUSH1 0x20 SHL PUSH1 0x20 SHR JUMP JUMPDEST PUSH2 0xEB CALLER DUP3 PUSH2 0x28D PUSH1 0x20 SHL PUSH1 0x20 SHR JUMP JUMPDEST PUSH2 0x131 PUSH1 0x40 MLOAD DUP1 PUSH1 0x40 ADD PUSH1 0x40 MSTORE DUP1 PUSH1 0x6 DUP2 MSTORE PUSH1 0x20 ADD PUSH32 0x5473686972740000000000000000000000000000000000000000000000000000 DUP2 MSTORE POP PUSH1 0x14 PUSH2 0x3E7 PUSH1 0x20 SHL PUSH1 0x20 SHR JUMP JUMPDEST PUSH2 0x177 PUSH1 0x40 MLOAD DUP1 PUSH1 0x40 ADD PUSH1 0x40 MSTORE DUP1 PUSH1 0x5 DUP2 MSTORE PUSH1 0x20 ADD PUSH32 0x50616E7473000000000000000000000000000000000000000000000000000000 DUP2 MSTORE POP PUSH1 0x32 PUSH2 0x3E7 PUSH1 0x20 SHL PUSH1 0x20 SHR JUMP JUMPDEST PUSH2 0x1BD PUSH1 0x40 MLOAD DUP1 PUSH1 0x40 ADD PUSH1 0x40 MSTORE DUP1 PUSH1 0x9 DUP2 MSTORE PUSH1 0x20 ADD PUSH32 0x556E646572776561720000000000000000000000000000000000000000000000 DUP2 MSTORE POP PUSH1 0x64 PUSH2 0x3E7 PUSH1 0x20 SHL PUSH1 0x20 SHR JUMP JUMPDEST POP PUSH2 0x9DC JUMP JUMPDEST PUSH0 CALLER SWAP1 POP SWAP1 JUMP JUMPDEST PUSH0 PUSH1 0x5 PUSH0 SWAP1 SLOAD SWAP1 PUSH2 0x100 EXP SWAP1 DIV PUSH20 0xFFFFFFFFFFFFFFFFFFFFFFFFFFFFFFFFFFFFFFFF AND SWAP1 POP DUP2 PUSH1 0x5 PUSH0 PUSH2 0x100 EXP DUP2 SLOAD DUP2 PUSH20 0xFFFFFFFFFFFFFFFFFFFFFFFFFFFFFFFFFFFFFFFF MUL NOT AND SWAP1 DUP4 PUSH20 0xFFFFFFFFFFFFFFFFFFFFFFFFFFFFFFFFFFFFFFFF AND MUL OR SWAP1 SSTORE POP DUP2 PUSH20 0xFFFFFFFFFFFFFFFFFFFFFFFFFFFFFFFFFFFFFFFF AND DUP2 PUSH20 0xFFFFFFFFFFFFFFFFFFFFFFFFFFFFFFFFFFFFFFFF AND PUSH32 0x8BE0079C531659141344CD1FD0A4F28419497F9722A3DAAFE3B4186F6B6457E0 PUSH1 0x40 MLOAD PUSH1 0x40 MLOAD DUP1 SWAP2 SUB SWAP1 LOG3 POP POP JUMP JUMPDEST PUSH0 PUSH20 0xFFFFFFFFFFFFFFFFFFFFFFFFFFFFFFFFFFFFFFFF AND DUP3 PUSH20 0xFFFFFFFFFFFFFFFFFFFFFFFFFFFFFFFFFFFFFFFF AND SUB PUSH2 0x2FB JUMPI PUSH1 0x40 MLOAD PUSH32 0x8C379A000000000000000000000000000000000000000000000000000000000 DUP2 MSTORE PUSH1 0x4 ADD PUSH2 0x2F2 SWAP1 PUSH2 0x8CE JUMP JUMPDEST PUSH1 0x40 MLOAD DUP1 SWAP2 SUB SWAP1 REVERT JUMPDEST PUSH2 0x30C PUSH0 DUP4 DUP4 PUSH2 0x456 PUSH1 0x20 SHL PUSH1 0x20 SHR JUMP JUMPDEST DUP1 PUSH1 0x2 PUSH0 DUP3 DUP3 SLOAD PUSH2 0x31D SWAP2 SWAP1 PUSH2 0x919 JUMP JUMPDEST SWAP3 POP POP DUP2 SWAP1 SSTORE POP DUP1 PUSH0 DUP1 DUP5 PUSH20 0xFFFFFFFFFFFFFFFFFFFFFFFFFFFFFFFFFFFFFFFF AND PUSH20 0xFFFFFFFFFFFFFFFFFFFFFFFFFFFFFFFFFFFFFFFF AND DUP2 MSTORE PUSH1 0x20 ADD SWAP1 DUP2 MSTORE PUSH1 0x20 ADD PUSH0 KECCAK256 PUSH0 DUP3 DUP3 SLOAD ADD SWAP3 POP POP DUP2 SWAP1 SSTORE POP DUP2 PUSH20 0xFFFFFFFFFFFFFFFFFFFFFFFFFFFFFFFFFFFFFFFF AND PUSH0 PUSH20 0xFFFFFFFFFFFFFFFFFFFFFFFFFFFFFFFFFFFFFFFF AND PUSH32 0xDDF252AD1BE2C89B69C2B068FC378DAA952BA7F163C4A11628F55A4DF523B3EF DUP4 PUSH1 0x40 MLOAD PUSH2 0x3CA SWAP2 SWAP1 PUSH2 0x95B JUMP JUMPDEST PUSH1 0x40 MLOAD DUP1 SWAP2 SUB SWAP1 LOG3 PUSH2 0x3E3 PUSH0 DUP4 DUP4 PUSH2 0x45B PUSH1 0x20 SHL PUSH1 0x20 SHR JUMP JUMPDEST POP POP JUMP JUMPDEST PUSH2 0x3F5 PUSH2 0x460 PUSH1 0x20 SHL PUSH1 0x20 SHR JUMP JUMPDEST PUSH1 0x6 PUSH1 0x40 MLOAD DUP1 PUSH1 0x40 ADD PUSH1 0x40 MSTORE DUP1 DUP5 DUP2 MSTORE PUSH1 0x20 ADD DUP4 DUP2 MSTORE POP SWAP1 DUP1 PUSH1 0x1 DUP2 SLOAD ADD DUP1 DUP3 SSTORE DUP1 SWAP2 POP POP PUSH1 0x1 SWAP1 SUB SWAP1 PUSH0 MSTORE PUSH1 0x20 PUSH0 KECCAK256 SWAP1 PUSH1 0x2 MUL ADD PUSH0 SWAP1 SWAP2 SWAP1 SWAP2 SWAP1 SWAP2 POP PUSH0 DUP3 ADD MLOAD DUP2 PUSH0 ADD SWAP1 DUP2 PUSH2 0x445 SWAP2 SWAP1 PUSH2 0x7A5 JUMP JUMPDEST POP PUSH1 0x20 DUP3 ADD MLOAD DUP2 PUSH1 0x1 ADD SSTORE POP POP POP POP JUMP JUMPDEST POP POP POP JUMP JUMPDEST POP POP POP JUMP JUMPDEST PUSH2 0x46E PUSH2 0x1C3 PUSH1 0x20 SHL PUSH1 0x20 SHR JUMP JUMPDEST PUSH20 0xFFFFFFFFFFFFFFFFFFFFFFFFFFFFFFFFFFFFFFFF AND PUSH2 0x492 PUSH2 0x4EA PUSH1 0x20 SHL PUSH1 0x20 SHR JUMP JUMPDEST PUSH20 0xFFFFFFFFFFFFFFFFFFFFFFFFFFFFFFFFFFFFFFFF AND EQ PUSH2 0x4E8 JUMPI PUSH1 0x40 MLOAD PUSH32 0x8C379A000000000000000000000000000000000000000000000000000000000 DUP2 MSTORE PUSH1 0x4 ADD PUSH2 0x4DF SWAP1 PUSH2 0x9BE JUMP JUMPDEST PUSH1 0x40 MLOAD DUP1 SWAP2 SUB SWAP1 REVERT JUMPDEST JUMP JUMPDEST PUSH0 PUSH1 0x5 PUSH0 SWAP1 SLOAD SWAP1 PUSH2 0x100 EXP SWAP1 DIV PUSH20 0xFFFFFFFFFFFFFFFFFFFFFFFFFFFFFFFFFFFFFFFF AND SWAP1 POP SWAP1 JUMP JUMPDEST PUSH0 DUP1 REVERT JUMPDEST PUSH0 DUP2 SWAP1 POP SWAP2 SWAP1 POP JUMP JUMPDEST PUSH2 0x528 DUP2 PUSH2 0x516 JUMP JUMPDEST DUP2 EQ PUSH2 0x532 JUMPI PUSH0 DUP1 REVERT JUMPDEST POP JUMP JUMPDEST PUSH0 DUP2 MLOAD SWAP1 POP PUSH2 0x543 DUP2 PUSH2 0x51F JUMP JUMPDEST SWAP3 SWAP2 POP POP JUMP JUMPDEST PUSH0 PUSH1 0x20 DUP3 DUP5 SUB SLT ISZERO PUSH2 0x55E JUMPI PUSH2 0x55D PUSH2 0x512 JUMP JUMPDEST JUMPDEST PUSH0 PUSH2 0x56B DUP5 DUP3 DUP6 ADD PUSH2 0x535 JUMP JUMPDEST SWAP2 POP POP SWAP3 SWAP2 POP POP JUMP JUMPDEST PUSH0 DUP2 MLOAD SWAP1 POP SWAP2 SWAP1 POP JUMP JUMPDEST PUSH32 0x4E487B7100000000000000000000000000000000000000000000000000000000 PUSH0 MSTORE PUSH1 0x41 PUSH1 0x4 MSTORE PUSH1 0x24 PUSH0 REVERT JUMPDEST PUSH32 0x4E487B7100000000000000000000000000000000000000000000000000000000 PUSH0 MSTORE PUSH1 0x22 PUSH1 0x4 MSTORE PUSH1 0x24 PUSH0 REVERT JUMPDEST PUSH0 PUSH1 0x2 DUP3 DIV SWAP1 POP PUSH1 0x1 DUP3 AND DUP1 PUSH2 0x5EF JUMPI PUSH1 0x7F DUP3 AND SWAP2 POP JUMPDEST PUSH1 0x20 DUP3 LT DUP2 SUB PUSH2 0x602 JUMPI PUSH2 0x601 PUSH2 0x5AB JUMP JUMPDEST JUMPDEST POP SWAP2 SWAP1 POP JUMP JUMPDEST PUSH0 DUP2 SWAP1 POP DUP2 PUSH0 MSTORE PUSH1 0x20 PUSH0 KECCAK256 SWAP1 POP SWAP2 SWAP1 POP JUMP JUMPDEST PUSH0 PUSH1 0x20 PUSH1 0x1F DUP4 ADD DIV SWAP1 POP SWAP2 SWAP1 POP JUMP JUMPDEST PUSH0 DUP3 DUP3 SHL SWAP1 POP SWAP3 SWAP2 POP POP JUMP JUMPDEST PUSH0 PUSH1 0x8 DUP4 MUL PUSH2 0x664 PUSH32 0xFFFFFFFFFFFFFFFFFFFFFFFFFFFFFFFFFFFFFFFFFFFFFFFFFFFFFFFFFFFFFFFF DUP3 PUSH2 0x629 JUMP JUMPDEST PUSH2 0x66E DUP7 DUP4 PUSH2 0x629 JUMP JUMPDEST SWAP6 POP DUP1 NOT DUP5 AND SWAP4 POP DUP1 DUP7 AND DUP5 OR SWAP3 POP POP POP SWAP4 SWAP3 POP POP POP JUMP JUMPDEST PUSH0 DUP2 SWAP1 POP SWAP2 SWAP1 POP JUMP JUMPDEST PUSH0 PUSH2 0x6A9 PUSH2 0x6A4 PUSH2 0x69F DUP5 PUSH2 0x516 JUMP JUMPDEST PUSH2 0x686 JUMP JUMPDEST PUSH2 0x516 JUMP JUMPDEST SWAP1 POP SWAP2 SWAP1 POP JUMP JUMPDEST PUSH0 DUP2 SWAP1 POP SWAP2 SWAP1 POP JUMP JUMPDEST PUSH2 0x6C2 DUP4 PUSH2 0x68F JUMP JUMPDEST PUSH2 0x6D6 PUSH2 0x6CE DUP3 PUSH2 0x6B0 JUMP JUMPDEST DUP5 DUP5 SLOAD PUSH2 0x635 JUMP JUMPDEST DUP3 SSTORE POP POP POP POP JUMP JUMPDEST PUSH0 SWAP1 JUMP JUMPDEST PUSH2 0x6EA PUSH2 0x6DE JUMP JUMPDEST PUSH2 0x6F5 DUP2 DUP5 DUP5 PUSH2 0x6B9 JUMP JUMPDEST POP POP POP JUMP JUMPDEST JUMPDEST DUP2 DUP2 LT ISZERO PUSH2 0x718 JUMPI PUSH2 0x70D PUSH0 DUP3 PUSH2 0x6E2 JUMP JUMPDEST PUSH1 0x1 DUP2 ADD SWAP1 POP PUSH2 0x6FB JUMP JUMPDEST POP POP JUMP JUMPDEST PUSH1 0x1F DUP3 GT ISZERO PUSH2 0x75D JUMPI PUSH2 0x72E DUP2 PUSH2 0x608 JUMP JUMPDEST PUSH2 0x737 DUP5 PUSH2 0x61A JUMP JUMPDEST DUP2 ADD PUSH1 0x20 DUP6 LT ISZERO PUSH2 0x746 JUMPI DUP2 SWAP1 POP JUMPDEST PUSH2 0x75A PUSH2 0x752 DUP6 PUSH2 0x61A JUMP JUMPDEST DUP4 ADD DUP3 PUSH2 0x6FA JUMP JUMPDEST POP POP JUMPDEST POP POP POP JUMP JUMPDEST PUSH0 DUP3 DUP3 SHR SWAP1 POP SWAP3 SWAP2 POP POP JUMP JUMPDEST PUSH0 PUSH2 0x77D PUSH0 NOT DUP5 PUSH1 0x8 MUL PUSH2 0x762 JUMP JUMPDEST NOT DUP1 DUP4 AND SWAP2 POP POP SWAP3 SWAP2 POP POP JUMP JUMPDEST PUSH0 PUSH2 0x795 DUP4 DUP4 PUSH2 0x76E JUMP JUMPDEST SWAP2 POP DUP3 PUSH1 0x2 MUL DUP3 OR SWAP1 POP SWAP3 SWAP2 POP POP JUMP JUMPDEST PUSH2 0x7AE DUP3 PUSH2 0x574 JUMP JUMPDEST PUSH8 0xFFFFFFFFFFFFFFFF DUP2 GT ISZERO PUSH2 0x7C7 JUMPI PUSH2 0x7C6 PUSH2 0x57E JUMP JUMPDEST JUMPDEST PUSH2 0x7D1 DUP3 SLOAD PUSH2 0x5D8 JUMP JUMPDEST PUSH2 0x7DC DUP3 DUP3 DUP6 PUSH2 0x71C JUMP JUMPDEST PUSH0 PUSH1 0x20 SWAP1 POP PUSH1 0x1F DUP4 GT PUSH1 0x1 DUP2 EQ PUSH2 0x80D JUMPI PUSH0 DUP5 ISZERO PUSH2 0x7FB JUMPI DUP3 DUP8 ADD MLOAD SWAP1 POP JUMPDEST PUSH2 0x805 DUP6 DUP3 PUSH2 0x78A JUMP JUMPDEST DUP7 SSTORE POP PUSH2 0x86C JUMP JUMPDEST PUSH1 0x1F NOT DUP5 AND PUSH2 0x81B DUP7 PUSH2 0x608 JUMP JUMPDEST PUSH0 JUMPDEST DUP3 DUP2 LT ISZERO PUSH2 0x842 JUMPI DUP5 DUP10 ADD MLOAD DUP3 SSTORE PUSH1 0x1 DUP3 ADD SWAP2 POP PUSH1 0x20 DUP6 ADD SWAP5 POP PUSH1 0x20 DUP2 ADD SWAP1 POP PUSH2 0x81D JUMP JUMPDEST DUP7 DUP4 LT ISZERO PUSH2 0x85F JUMPI DUP5 DUP10 ADD MLOAD PUSH2 0x85B PUSH1 0x1F DUP10 AND DUP3 PUSH2 0x76E JUMP JUMPDEST DUP4 SSTORE POP JUMPDEST PUSH1 0x1 PUSH1 0x2 DUP9 MUL ADD DUP9 SSTORE POP POP POP JUMPDEST POP POP POP POP POP POP JUMP JUMPDEST PUSH0 DUP3 DUP3 MSTORE PUSH1 0x20 DUP3 ADD SWAP1 POP SWAP3 SWAP2 POP POP JUMP JUMPDEST PUSH32 0x45524332303A206D696E7420746F20746865207A65726F206164647265737300 PUSH0 DUP3 ADD MSTORE POP JUMP JUMPDEST PUSH0 PUSH2 0x8B8 PUSH1 0x1F DUP4 PUSH2 0x874 JUMP JUMPDEST SWAP2 POP PUSH2 0x8C3 DUP3 PUSH2 0x884 JUMP JUMPDEST PUSH1 0x20 DUP3 ADD SWAP1 POP SWAP2 SWAP1 POP JUMP JUMPDEST PUSH0 PUSH1 0x20 DUP3 ADD SWAP1 POP DUP2 DUP2 SUB PUSH0 DUP4 ADD MSTORE PUSH2 0x8E5 DUP2 PUSH2 0x8AC JUMP JUMPDEST SWAP1 POP SWAP2 SWAP1 POP JUMP JUMPDEST PUSH32 0x4E487B7100000000000000000000000000000000000000000000000000000000 PUSH0 MSTORE PUSH1 0x11 PUSH1 0x4 MSTORE PUSH1 0x24 PUSH0 REVERT JUMPDEST PUSH0 PUSH2 0x923 DUP3 PUSH2 0x516 JUMP JUMPDEST SWAP2 POP PUSH2 0x92E DUP4 PUSH2 0x516 JUMP JUMPDEST SWAP3 POP DUP3 DUP3 ADD SWAP1 POP DUP1 DUP3 GT ISZERO PUSH2 0x946 JUMPI PUSH2 0x945 PUSH2 0x8EC JUMP JUMPDEST JUMPDEST SWAP3 SWAP2 POP POP JUMP JUMPDEST PUSH2 0x955 DUP2 PUSH2 0x516 JUMP JUMPDEST DUP3 MSTORE POP POP JUMP JUMPDEST PUSH0 PUSH1 0x20 DUP3 ADD SWAP1 POP PUSH2 0x96E PUSH0 DUP4 ADD DUP5 PUSH2 0x94C JUMP JUMPDEST SWAP3 SWAP2 POP POP JUMP JUMPDEST PUSH32 0x4F776E61626C653A2063616C6C6572206973206E6F7420746865206F776E6572 PUSH0 DUP3 ADD MSTORE POP JUMP JUMPDEST PUSH0 PUSH2 0x9A8 PUSH1 0x20 DUP4 PUSH2 0x874 JUMP JUMPDEST SWAP2 POP PUSH2 0x9B3 DUP3 PUSH2 0x974 JUMP JUMPDEST PUSH1 0x20 DUP3 ADD SWAP1 POP SWAP2 SWAP1 POP JUMP JUMPDEST PUSH0 PUSH1 0x20 DUP3 ADD SWAP1 POP DUP2 DUP2 SUB PUSH0 DUP4 ADD MSTORE PUSH2 0x9D5 DUP2 PUSH2 0x99C JUMP JUMPDEST SWAP1 POP SWAP2 SWAP1 POP JUMP JUMPDEST PUSH2 0x213D DUP1 PUSH2 0x9E9 PUSH0 CODECOPY PUSH0 RETURN INVALID PUSH1 0x80 PUSH1 0x40 MSTORE CALLVALUE DUP1 ISZERO PUSH2 0xF JUMPI PUSH0 DUP1 REVERT JUMPDEST POP PUSH1 0x4 CALLDATASIZE LT PUSH2 0x11F JUMPI PUSH0 CALLDATALOAD PUSH1 0xE0 SHR DUP1 PUSH4 0x715018A6 GT PUSH2 0xAB JUMPI DUP1 PUSH4 0xA9059CBB GT PUSH2 0x6F JUMPI DUP1 PUSH4 0xA9059CBB EQ PUSH2 0x31C JUMPI DUP1 PUSH4 0xBFB231D2 EQ PUSH2 0x34C JUMPI DUP1 PUSH4 0xDD62ED3E EQ PUSH2 0x37D JUMPI DUP1 PUSH4 0xE7FB74C7 EQ PUSH2 0x3AD JUMPI DUP1 PUSH4 0xF2FDE38B EQ PUSH2 0x3C9 JUMPI PUSH2 0x11F JUMP JUMPDEST DUP1 PUSH4 0x715018A6 EQ PUSH2 0x28A JUMPI DUP1 PUSH4 0x8DA5CB5B EQ PUSH2 0x294 JUMPI DUP1 PUSH4 0x95D89B41 EQ PUSH2 0x2B2 JUMPI DUP1 PUSH4 0xA0712D68 EQ PUSH2 0x2D0 JUMPI DUP1 PUSH4 0xA457C2D7 EQ PUSH2 0x2EC JUMPI PUSH2 0x11F JUMP JUMPDEST DUP1 PUSH4 0x3129E773 GT PUSH2 0xF2 JUMPI DUP1 PUSH4 0x3129E773 EQ PUSH2 0x1BF JUMPI DUP1 PUSH4 0x313CE567 EQ PUSH2 0x1F0 JUMPI DUP1 PUSH4 0x39509351 EQ PUSH2 0x20E JUMPI DUP1 PUSH4 0x42966C68 EQ PUSH2 0x23E JUMPI DUP1 PUSH4 0x70A08231 EQ PUSH2 0x25A JUMPI PUSH2 0x11F JUMP JUMPDEST DUP1 PUSH4 0x6FDDE03 EQ PUSH2 0x123 JUMPI DUP1 PUSH4 0x95EA7B3 EQ PUSH2 0x141 JUMPI DUP1 PUSH4 0x18160DDD EQ PUSH2 0x171 JUMPI DUP1 PUSH4 0x23B872DD EQ PUSH2 0x18F JUMPI JUMPDEST PUSH0 DUP1 REVERT JUMPDEST PUSH2 0x12B PUSH2 0x3E5 JUMP JUMPDEST PUSH1 0x40 MLOAD PUSH2 0x138 SWAP2 SWAP1 PUSH2 0x14CE JUMP JUMPDEST PUSH1 0x40 MLOAD DUP1 SWAP2 SUB SWAP1 RETURN JUMPDEST PUSH2 0x15B PUSH1 0x4 DUP1 CALLDATASIZE SUB DUP2 ADD SWAP1 PUSH2 0x156 SWAP2 SWAP1 PUSH2 0x157F JUMP JUMPDEST PUSH2 0x475 JUMP JUMPDEST PUSH1 0x40 MLOAD PUSH2 0x168 SWAP2 SWAP1 PUSH2 0x15D7 JUMP JUMPDEST PUSH1 0x40 MLOAD DUP1 SWAP2 SUB SWAP1 RETURN JUMPDEST PUSH2 0x179 PUSH2 0x497 JUMP JUMPDEST PUSH1 0x40 MLOAD PUSH2 0x186 SWAP2 SWAP1 PUSH2 0x15FF JUMP JUMPDEST PUSH1 0x40 MLOAD DUP1 SWAP2 SUB SWAP1 RETURN JUMPDEST PUSH2 0x1A9 PUSH1 0x4 DUP1 CALLDATASIZE SUB DUP2 ADD SWAP1 PUSH2 0x1A4 SWAP2 SWAP1 PUSH2 0x1618 JUMP JUMPDEST PUSH2 0x4A0 JUMP JUMPDEST PUSH1 0x40 MLOAD PUSH2 0x1B6 SWAP2 SWAP1 PUSH2 0x15D7 JUMP JUMPDEST PUSH1 0x40 MLOAD DUP1 SWAP2 SUB SWAP1 RETURN JUMPDEST PUSH2 0x1D9 PUSH1 0x4 DUP1 CALLDATASIZE SUB DUP2 ADD SWAP1 PUSH2 0x1D4 SWAP2 SWAP1 PUSH2 0x1668 JUMP JUMPDEST PUSH2 0x4CE JUMP JUMPDEST PUSH1 0x40 MLOAD PUSH2 0x1E7 SWAP3 SWAP2 SWAP1 PUSH2 0x1693 JUMP JUMPDEST PUSH1 0x40 MLOAD DUP1 SWAP2 SUB SWAP1 RETURN JUMPDEST PUSH2 0x1F8 PUSH2 0x5D7 JUMP JUMPDEST PUSH1 0x40 MLOAD PUSH2 0x205 SWAP2 SWAP1 PUSH2 0x16DC JUMP JUMPDEST PUSH1 0x40 MLOAD DUP1 SWAP2 SUB SWAP1 RETURN JUMPDEST PUSH2 0x228 PUSH1 0x4 DUP1 CALLDATASIZE SUB DUP2 ADD SWAP1 PUSH2 0x223 SWAP2 SWAP1 PUSH2 0x157F JUMP JUMPDEST PUSH2 0x5DF JUMP JUMPDEST PUSH1 0x40 MLOAD PUSH2 0x235 SWAP2 SWAP1 PUSH2 0x15D7 JUMP JUMPDEST PUSH1 0x40 MLOAD DUP1 SWAP2 SUB SWAP1 RETURN JUMPDEST PUSH2 0x258 PUSH1 0x4 DUP1 CALLDATASIZE SUB DUP2 ADD SWAP1 PUSH2 0x253 SWAP2 SWAP1 PUSH2 0x1668 JUMP JUMPDEST PUSH2 0x615 JUMP JUMPDEST STOP JUMPDEST PUSH2 0x274 PUSH1 0x4 DUP1 CALLDATASIZE SUB DUP2 ADD SWAP1 PUSH2 0x26F SWAP2 SWAP1 PUSH2 0x16F5 JUMP JUMPDEST PUSH2 0x6B0 JUMP JUMPDEST PUSH1 0x40 MLOAD PUSH2 0x281 SWAP2 SWAP1 PUSH2 0x15FF JUMP JUMPDEST PUSH1 0x40 MLOAD DUP1 SWAP2 SUB SWAP1 RETURN JUMPDEST PUSH2 0x292 PUSH2 0x6F5 JUMP JUMPDEST STOP JUMPDEST PUSH2 0x29C PUSH2 0x708 JUMP JUMPDEST PUSH1 0x40 MLOAD PUSH2 0x2A9 SWAP2 SWAP1 PUSH2 0x172F JUMP JUMPDEST PUSH1 0x40 MLOAD DUP1 SWAP2 SUB SWAP1 RETURN JUMPDEST PUSH2 0x2BA PUSH2 0x730 JUMP JUMPDEST PUSH1 0x40 MLOAD PUSH2 0x2C7 SWAP2 SWAP1 PUSH2 0x14CE JUMP JUMPDEST PUSH1 0x40 MLOAD DUP1 SWAP2 SUB SWAP1 RETURN JUMPDEST PUSH2 0x2EA PUSH1 0x4 DUP1 CALLDATASIZE SUB DUP2 ADD SWAP1 PUSH2 0x2E5 SWAP2 SWAP1 PUSH2 0x1668 JUMP JUMPDEST PUSH2 0x7C0 JUMP JUMPDEST STOP JUMPDEST PUSH2 0x306 PUSH1 0x4 DUP1 CALLDATASIZE SUB DUP2 ADD SWAP1 PUSH2 0x301 SWAP2 SWAP1 PUSH2 0x157F JUMP JUMPDEST PUSH2 0x7D5 JUMP JUMPDEST PUSH1 0x40 MLOAD PUSH2 0x313 SWAP2 SWAP1 PUSH2 0x15D7 JUMP JUMPDEST PUSH1 0x40 MLOAD DUP1 SWAP2 SUB SWAP1 RETURN JUMPDEST PUSH2 0x336 PUSH1 0x4 DUP1 CALLDATASIZE SUB DUP2 ADD SWAP1 PUSH2 0x331 SWAP2 SWAP1 PUSH2 0x157F JUMP JUMPDEST PUSH2 0x84A JUMP JUMPDEST PUSH1 0x40 MLOAD PUSH2 0x343 SWAP2 SWAP1 PUSH2 0x15D7 JUMP JUMPDEST PUSH1 0x40 MLOAD DUP1 SWAP2 SUB SWAP1 RETURN JUMPDEST PUSH2 0x366 PUSH1 0x4 DUP1 CALLDATASIZE SUB DUP2 ADD SWAP1 PUSH2 0x361 SWAP2 SWAP1 PUSH2 0x1668 JUMP JUMPDEST PUSH2 0x867 JUMP JUMPDEST PUSH1 0x40 MLOAD PUSH2 0x374 SWAP3 SWAP2 SWAP1 PUSH2 0x1693 JUMP JUMPDEST PUSH1 0x40 MLOAD DUP1 SWAP2 SUB SWAP1 RETURN JUMPDEST PUSH2 0x397 PUSH1 0x4 DUP1 CALLDATASIZE SUB DUP2 ADD SWAP1 PUSH2 0x392 SWAP2 SWAP1 PUSH2 0x1748 JUMP JUMPDEST PUSH2 0x91C JUMP JUMPDEST PUSH1 0x40 MLOAD PUSH2 0x3A4 SWAP2 SWAP1 PUSH2 0x15FF JUMP JUMPDEST PUSH1 0x40 MLOAD DUP1 SWAP2 SUB SWAP1 RETURN JUMPDEST PUSH2 0x3C7 PUSH1 0x4 DUP1 CALLDATASIZE SUB DUP2 ADD SWAP1 PUSH2 0x3C2 SWAP2 SWAP1 PUSH2 0x1668 JUMP JUMPDEST PUSH2 0x99E JUMP JUMPDEST STOP JUMPDEST PUSH2 0x3E3 PUSH1 0x4 DUP1 CALLDATASIZE SUB DUP2 ADD SWAP1 PUSH2 0x3DE SWAP2 SWAP1 PUSH2 0x16F5 JUMP JUMPDEST PUSH2 0xABF JUMP JUMPDEST STOP JUMPDEST PUSH1 0x60 PUSH1 0x3 DUP1 SLOAD PUSH2 0x3F4 SWAP1 PUSH2 0x17B3 JUMP JUMPDEST DUP1 PUSH1 0x1F ADD PUSH1 0x20 DUP1 SWAP2 DIV MUL PUSH1 0x20 ADD PUSH1 0x40 MLOAD SWAP1 DUP2 ADD PUSH1 0x40 MSTORE DUP1 SWAP3 SWAP2 SWAP1 DUP2 DUP2 MSTORE PUSH1 0x20 ADD DUP3 DUP1 SLOAD PUSH2 0x420 SWAP1 PUSH2 0x17B3 JUMP JUMPDEST DUP1 ISZERO PUSH2 0x46B JUMPI DUP1 PUSH1 0x1F LT PUSH2 0x442 JUMPI PUSH2 0x100 DUP1 DUP4 SLOAD DIV MUL DUP4 MSTORE SWAP2 PUSH1 0x20 ADD SWAP2 PUSH2 0x46B JUMP JUMPDEST DUP3 ADD SWAP2 SWAP1 PUSH0 MSTORE PUSH1 0x20 PUSH0 KECCAK256 SWAP1 JUMPDEST DUP2 SLOAD DUP2 MSTORE SWAP1 PUSH1 0x1 ADD SWAP1 PUSH1 0x20 ADD DUP1 DUP4 GT PUSH2 0x44E JUMPI DUP3 SWAP1 SUB PUSH1 0x1F AND DUP3 ADD SWAP2 JUMPDEST POP POP POP POP POP SWAP1 POP SWAP1 JUMP JUMPDEST PUSH0 DUP1 PUSH2 0x47F PUSH2 0xB41 JUMP JUMPDEST SWAP1 POP PUSH2 0x48C DUP2 DUP6 DUP6 PUSH2 0xB48 JUMP JUMPDEST PUSH1 0x1 SWAP2 POP POP SWAP3 SWAP2 POP POP JUMP JUMPDEST PUSH0 PUSH1 0x2 SLOAD SWAP1 POP SWAP1 JUMP JUMPDEST PUSH0 DUP1 PUSH2 0x4AA PUSH2 0xB41 JUMP JUMPDEST SWAP1 POP PUSH2 0x4B7 DUP6 DUP3 DUP6 PUSH2 0xD0B JUMP JUMPDEST PUSH2 0x4C2 DUP6 DUP6 DUP6 PUSH2 0xD96 JUMP JUMPDEST PUSH1 0x1 SWAP2 POP POP SWAP4 SWAP3 POP POP POP JUMP JUMPDEST PUSH1 0x60 PUSH0 PUSH1 0x6 DUP1 SLOAD SWAP1 POP DUP4 LT PUSH2 0x518 JUMPI PUSH1 0x40 MLOAD PUSH32 0x8C379A000000000000000000000000000000000000000000000000000000000 DUP2 MSTORE PUSH1 0x4 ADD PUSH2 0x50F SWAP1 PUSH2 0x182D JUMP JUMPDEST PUSH1 0x40 MLOAD DUP1 SWAP2 SUB SWAP1 REVERT JUMPDEST PUSH0 PUSH1 0x6 DUP5 DUP2 SLOAD DUP2 LT PUSH2 0x52D JUMPI PUSH2 0x52C PUSH2 0x184B JUMP JUMPDEST JUMPDEST SWAP1 PUSH0 MSTORE PUSH1 0x20 PUSH0 KECCAK256 SWAP1 PUSH1 0x2 MUL ADD SWAP1 POP DUP1 PUSH0 ADD DUP2 PUSH1 0x1 ADD SLOAD DUP2 DUP1 SLOAD PUSH2 0x54F SWAP1 PUSH2 0x17B3 JUMP JUMPDEST DUP1 PUSH1 0x1F ADD PUSH1 0x20 DUP1 SWAP2 DIV MUL PUSH1 0x20 ADD PUSH1 0x40 MLOAD SWAP1 DUP2 ADD PUSH1 0x40 MSTORE DUP1 SWAP3 SWAP2 SWAP1 DUP2 DUP2 MSTORE PUSH1 0x20 ADD DUP3 DUP1 SLOAD PUSH2 0x57B SWAP1 PUSH2 0x17B3 JUMP JUMPDEST DUP1 ISZERO PUSH2 0x5C6 JUMPI DUP1 PUSH1 0x1F LT PUSH2 0x59D JUMPI PUSH2 0x100 DUP1 DUP4 SLOAD DIV MUL DUP4 MSTORE SWAP2 PUSH1 0x20 ADD SWAP2 PUSH2 0x5C6 JUMP JUMPDEST DUP3 ADD SWAP2 SWAP1 PUSH0 MSTORE PUSH1 0x20 PUSH0 KECCAK256 SWAP1 JUMPDEST DUP2 SLOAD DUP2 MSTORE SWAP1 PUSH1 0x1 ADD SWAP1 PUSH1 0x20 ADD DUP1 DUP4 GT PUSH2 0x5A9 JUMPI DUP3 SWAP1 SUB PUSH1 0x1F AND DUP3 ADD SWAP2 JUMPDEST POP POP POP POP POP SWAP2 POP SWAP3 POP SWAP3 POP POP SWAP2 POP SWAP2 JUMP JUMPDEST PUSH0 PUSH1 0x12 SWAP1 POP SWAP1 JUMP JUMPDEST PUSH0 DUP1 PUSH2 0x5E9 PUSH2 0xB41 JUMP JUMPDEST SWAP1 POP PUSH2 0x60A DUP2 DUP6 DUP6 PUSH2 0x5FB DUP6 DUP10 PUSH2 0x91C JUMP JUMPDEST PUSH2 0x605 SWAP2 SWAP1 PUSH2 0x18A5 JUMP JUMPDEST PUSH2 0xB48 JUMP JUMPDEST PUSH1 0x1 SWAP2 POP POP SWAP3 SWAP2 POP POP JUMP JUMPDEST PUSH1 0xA DUP2 GT PUSH2 0x658 JUMPI PUSH1 0x40 MLOAD PUSH32 0x8C379A000000000000000000000000000000000000000000000000000000000 DUP2 MSTORE PUSH1 0x4 ADD PUSH2 0x64F SWAP1 PUSH2 0x1922 JUMP JUMPDEST PUSH1 0x40 MLOAD DUP1 SWAP2 SUB SWAP1 REVERT JUMPDEST PUSH2 0x661 CALLER PUSH2 0x6B0 JUMP JUMPDEST DUP2 GT ISZERO PUSH2 0x6A3 JUMPI PUSH1 0x40 MLOAD PUSH32 0x8C379A000000000000000000000000000000000000000000000000000000000 DUP2 MSTORE PUSH1 0x4 ADD PUSH2 0x69A SWAP1 PUSH2 0x198A JUMP JUMPDEST PUSH1 0x40 MLOAD DUP1 SWAP2 SUB SWAP1 REVERT JUMPDEST PUSH2 0x6AD CALLER DUP3 PUSH2 0x1002 JUMP JUMPDEST POP JUMP JUMPDEST PUSH0 DUP1 PUSH0 DUP4 PUSH20 0xFFFFFFFFFFFFFFFFFFFFFFFFFFFFFFFFFFFFFFFF AND PUSH20 0xFFFFFFFFFFFFFFFFFFFFFFFFFFFFFFFFFFFFFFFF AND DUP2 MSTORE PUSH1 0x20 ADD SWAP1 DUP2 MSTORE PUSH1 0x20 ADD PUSH0 KECCAK256 SLOAD SWAP1 POP SWAP2 SWAP1 POP JUMP JUMPDEST PUSH2 0x6FD PUSH2 0x11C5 JUMP JUMPDEST PUSH2 0x706 PUSH0 PUSH2 0x1243 JUMP JUMPDEST JUMP JUMPDEST PUSH0 PUSH1 0x5 PUSH0 SWAP1 SLOAD SWAP1 PUSH2 0x100 EXP SWAP1 DIV PUSH20 0xFFFFFFFFFFFFFFFFFFFFFFFFFFFFFFFFFFFFFFFF AND SWAP1 POP SWAP1 JUMP JUMPDEST PUSH1 0x60 PUSH1 0x4 DUP1 SLOAD PUSH2 0x73F SWAP1 PUSH2 0x17B3 JUMP JUMPDEST DUP1 PUSH1 0x1F ADD PUSH1 0x20 DUP1 SWAP2 DIV MUL PUSH1 0x20 ADD PUSH1 0x40 MLOAD SWAP1 DUP2 ADD PUSH1 0x40 MSTORE DUP1 SWAP3 SWAP2 SWAP1 DUP2 DUP2 MSTORE PUSH1 0x20 ADD DUP3 DUP1 SLOAD PUSH2 0x76B SWAP1 PUSH2 0x17B3 JUMP JUMPDEST DUP1 ISZERO PUSH2 0x7B6 JUMPI DUP1 PUSH1 0x1F LT PUSH2 0x78D JUMPI PUSH2 0x100 DUP1 DUP4 SLOAD DIV MUL DUP4 MSTORE SWAP2 PUSH1 0x20 ADD SWAP2 PUSH2 0x7B6 JUMP JUMPDEST DUP3 ADD SWAP2 SWAP1 PUSH0 MSTORE PUSH1 0x20 PUSH0 KECCAK256 SWAP1 JUMPDEST DUP2 SLOAD DUP2 MSTORE SWAP1 PUSH1 0x1 ADD SWAP1 PUSH1 0x20 ADD DUP1 DUP4 GT PUSH2 0x799 JUMPI DUP3 SWAP1 SUB PUSH1 0x1F AND DUP3 ADD SWAP2 JUMPDEST POP POP POP POP POP SWAP1 POP SWAP1 JUMP JUMPDEST PUSH2 0x7C8 PUSH2 0x11C5 JUMP JUMPDEST PUSH2 0x7D2 CALLER DUP3 PUSH2 0x1306 JUMP JUMPDEST POP JUMP JUMPDEST PUSH0 DUP1 PUSH2 0x7DF PUSH2 0xB41 JUMP JUMPDEST SWAP1 POP PUSH0 PUSH2 0x7EC DUP3 DUP7 PUSH2 0x91C JUMP JUMPDEST SWAP1 POP DUP4 DUP2 LT ISZERO PUSH2 0x831 JUMPI PUSH1 0x40 MLOAD PUSH32 0x8C379A000000000000000000000000000000000000000000000000000000000 DUP2 MSTORE PUSH1 0x4 ADD PUSH2 0x828 SWAP1 PUSH2 0x1A18 JUMP JUMPDEST PUSH1 0x40 MLOAD DUP1 SWAP2 SUB SWAP1 REVERT JUMPDEST PUSH2 0x83E DUP3 DUP7 DUP7 DUP5 SUB PUSH2 0xB48 JUMP JUMPDEST PUSH1 0x1 SWAP3 POP POP POP SWAP3 SWAP2 POP POP JUMP JUMPDEST PUSH0 PUSH2 0x85D PUSH2 0x856 PUSH2 0xB41 JUMP JUMPDEST DUP5 DUP5 PUSH2 0xD96 JUMP JUMPDEST PUSH1 0x1 SWAP1 POP SWAP3 SWAP2 POP POP JUMP JUMPDEST PUSH1 0x6 DUP2 DUP2 SLOAD DUP2 LT PUSH2 0x876 JUMPI PUSH0 DUP1 REVERT JUMPDEST SWAP1 PUSH0 MSTORE PUSH1 0x20 PUSH0 KECCAK256 SWAP1 PUSH1 0x2 MUL ADD PUSH0 SWAP2 POP SWAP1 POP DUP1 PUSH0 ADD DUP1 SLOAD PUSH2 0x895 SWAP1 PUSH2 0x17B3 JUMP JUMPDEST DUP1 PUSH1 0x1F ADD PUSH1 0x20 DUP1 SWAP2 DIV MUL PUSH1 0x20 ADD PUSH1 0x40 MLOAD SWAP1 DUP2 ADD PUSH1 0x40 MSTORE DUP1 SWAP3 SWAP2 SWAP1 DUP2 DUP2 MSTORE PUSH1 0x20 ADD DUP3 DUP1 SLOAD PUSH2 0x8C1 SWAP1 PUSH2 0x17B3 JUMP JUMPDEST DUP1 ISZERO PUSH2 0x90C JUMPI DUP1 PUSH1 0x1F LT PUSH2 0x8E3 JUMPI PUSH2 0x100 DUP1 DUP4 SLOAD DIV MUL DUP4 MSTORE SWAP2 PUSH1 0x20 ADD SWAP2 PUSH2 0x90C JUMP JUMPDEST DUP3 ADD SWAP2 SWAP1 PUSH0 MSTORE PUSH1 0x20 PUSH0 KECCAK256 SWAP1 JUMPDEST DUP2 SLOAD DUP2 MSTORE SWAP1 PUSH1 0x1 ADD SWAP1 PUSH1 0x20 ADD DUP1 DUP4 GT PUSH2 0x8EF JUMPI DUP3 SWAP1 SUB PUSH1 0x1F AND DUP3 ADD SWAP2 JUMPDEST POP POP POP POP POP SWAP1 DUP1 PUSH1 0x1 ADD SLOAD SWAP1 POP DUP3 JUMP JUMPDEST PUSH0 PUSH1 0x1 PUSH0 DUP5 PUSH20 0xFFFFFFFFFFFFFFFFFFFFFFFFFFFFFFFFFFFFFFFF AND PUSH20 0xFFFFFFFFFFFFFFFFFFFFFFFFFFFFFFFFFFFFFFFF AND DUP2 MSTORE PUSH1 0x20 ADD SWAP1 DUP2 MSTORE PUSH1 0x20 ADD PUSH0 KECCAK256 PUSH0 DUP4 PUSH20 0xFFFFFFFFFFFFFFFFFFFFFFFFFFFFFFFFFFFFFFFF AND PUSH20 0xFFFFFFFFFFFFFFFFFFFFFFFFFFFFFFFFFFFFFFFF AND DUP2 MSTORE PUSH1 0x20 ADD SWAP1 DUP2 MSTORE PUSH1 0x20 ADD PUSH0 KECCAK256 SLOAD SWAP1 POP SWAP3 SWAP2 POP POP JUMP JUMPDEST PUSH1 0x6 DUP1 SLOAD SWAP1 POP DUP2 LT PUSH2 0x9E5 JUMPI PUSH1 0x40 MLOAD PUSH32 0x8C379A000000000000000000000000000000000000000000000000000000000 DUP2 MSTORE PUSH1 0x4 ADD PUSH2 0x9DC SWAP1 PUSH2 0x182D JUMP JUMPDEST PUSH1 0x40 MLOAD DUP1 SWAP2 SUB SWAP1 REVERT JUMPDEST PUSH0 PUSH1 0x6 DUP3 DUP2 SLOAD DUP2 LT PUSH2 0x9FA JUMPI PUSH2 0x9F9 PUSH2 0x184B JUMP JUMPDEST JUMPDEST SWAP1 PUSH0 MSTORE PUSH1 0x20 PUSH0 KECCAK256 SWAP1 PUSH1 0x2 MUL ADD SWAP1 POP DUP1 PUSH1 0x1 ADD SLOAD PUSH2 0xA16 CALLER PUSH2 0x6B0 JUMP JUMPDEST LT ISZERO PUSH2 0xA57 JUMPI PUSH1 0x40 MLOAD PUSH32 0x8C379A000000000000000000000000000000000000000000000000000000000 DUP2 MSTORE PUSH1 0x4 ADD PUSH2 0xA4E SWAP1 PUSH2 0x1A80 JUMP JUMPDEST PUSH1 0x40 MLOAD DUP1 SWAP2 SUB SWAP1 REVERT JUMPDEST PUSH2 0xA65 CALLER DUP3 PUSH1 0x1 ADD SLOAD PUSH2 0x1002 JUMP JUMPDEST CALLER PUSH20 0xFFFFFFFFFFFFFFFFFFFFFFFFFFFFFFFFFFFFFFFF AND PUSH32 0xB7CDC79E3BE573B5B8B9DF08B9F1D71B09B7604268BF72602622FEB5DE87DA48 DUP3 PUSH0 ADD DUP4 PUSH1 0x1 ADD SLOAD PUSH1 0x40 MLOAD PUSH2 0xAB3 SWAP3 SWAP2 SWAP1 PUSH2 0x1B31 JUMP JUMPDEST PUSH1 0x40 MLOAD DUP1 SWAP2 SUB SWAP1 LOG2 POP POP JUMP JUMPDEST PUSH2 0xAC7 PUSH2 0x11C5 JUMP JUMPDEST PUSH0 PUSH20 0xFFFFFFFFFFFFFFFFFFFFFFFFFFFFFFFFFFFFFFFF AND DUP2 PUSH20 0xFFFFFFFFFFFFFFFFFFFFFFFFFFFFFFFFFFFFFFFF AND SUB PUSH2 0xB35 JUMPI PUSH1 0x40 MLOAD PUSH32 0x8C379A000000000000000000000000000000000000000000000000000000000 DUP2 MSTORE PUSH1 0x4 ADD PUSH2 0xB2C SWAP1 PUSH2 0x1BCF JUMP JUMPDEST PUSH1 0x40 MLOAD DUP1 SWAP2 SUB SWAP1 REVERT JUMPDEST PUSH2 0xB3E DUP2 PUSH2 0x1243 JUMP JUMPDEST POP JUMP JUMPDEST PUSH0 CALLER SWAP1 POP SWAP1 JUMP JUMPDEST PUSH0 PUSH20 0xFFFFFFFFFFFFFFFFFFFFFFFFFFFFFFFFFFFFFFFF AND DUP4 PUSH20 0xFFFFFFFFFFFFFFFFFFFFFFFFFFFFFFFFFFFFFFFF AND SUB PUSH2 0xBB6 JUMPI PUSH1 0x40 MLOAD PUSH32 0x8C379A000000000000000000000000000000000000000000000000000000000 DUP2 MSTORE PUSH1 0x4 ADD PUSH2 0xBAD SWAP1 PUSH2 0x1C5D JUMP JUMPDEST PUSH1 0x40 MLOAD DUP1 SWAP2 SUB SWAP1 REVERT JUMPDEST PUSH0 PUSH20 0xFFFFFFFFFFFFFFFFFFFFFFFFFFFFFFFFFFFFFFFF AND DUP3 PUSH20 0xFFFFFFFFFFFFFFFFFFFFFFFFFFFFFFFFFFFFFFFF AND SUB PUSH2 0xC24 JUMPI PUSH1 0x40 MLOAD PUSH32 0x8C379A000000000000000000000000000000000000000000000000000000000 DUP2 MSTORE PUSH1 0x4 ADD PUSH2 0xC1B SWAP1 PUSH2 0x1CEB JUMP JUMPDEST PUSH1 0x40 MLOAD DUP1 SWAP2 SUB SWAP1 REVERT JUMPDEST DUP1 PUSH1 0x1 PUSH0 DUP6 PUSH20 0xFFFFFFFFFFFFFFFFFFFFFFFFFFFFFFFFFFFFFFFF AND PUSH20 0xFFFFFFFFFFFFFFFFFFFFFFFFFFFFFFFFFFFFFFFF AND DUP2 MSTORE PUSH1 0x20 ADD SWAP1 DUP2 MSTORE PUSH1 0x20 ADD PUSH0 KECCAK256 PUSH0 DUP5 PUSH20 0xFFFFFFFFFFFFFFFFFFFFFFFFFFFFFFFFFFFFFFFF AND PUSH20 0xFFFFFFFFFFFFFFFFFFFFFFFFFFFFFFFFFFFFFFFF AND DUP2 MSTORE PUSH1 0x20 ADD SWAP1 DUP2 MSTORE PUSH1 0x20 ADD PUSH0 KECCAK256 DUP2 SWAP1 SSTORE POP DUP2 PUSH20 0xFFFFFFFFFFFFFFFFFFFFFFFFFFFFFFFFFFFFFFFF AND DUP4 PUSH20 0xFFFFFFFFFFFFFFFFFFFFFFFFFFFFFFFFFFFFFFFF AND PUSH32 0x8C5BE1E5EBEC7D5BD14F71427D1E84F3DD0314C0F7B2291E5B200AC8C7C3B925 DUP4 PUSH1 0x40 MLOAD PUSH2 0xCFE SWAP2 SWAP1 PUSH2 0x15FF JUMP JUMPDEST PUSH1 0x40 MLOAD DUP1 SWAP2 SUB SWAP1 LOG3 POP POP POP JUMP JUMPDEST PUSH0 PUSH2 0xD16 DUP5 DUP5 PUSH2 0x91C JUMP JUMPDEST SWAP1 POP PUSH32 0xFFFFFFFFFFFFFFFFFFFFFFFFFFFFFFFFFFFFFFFFFFFFFFFFFFFFFFFFFFFFFFFF DUP2 EQ PUSH2 0xD90 JUMPI DUP2 DUP2 LT ISZERO PUSH2 0xD82 JUMPI PUSH1 0x40 MLOAD PUSH32 0x8C379A000000000000000000000000000000000000000000000000000000000 DUP2 MSTORE PUSH1 0x4 ADD PUSH2 0xD79 SWAP1 PUSH2 0x1D53 JUMP JUMPDEST PUSH1 0x40 MLOAD DUP1 SWAP2 SUB SWAP1 REVERT JUMPDEST PUSH2 0xD8F DUP5 DUP5 DUP5 DUP5 SUB PUSH2 0xB48 JUMP JUMPDEST JUMPDEST POP POP POP POP JUMP JUMPDEST PUSH0 PUSH20 0xFFFFFFFFFFFFFFFFFFFFFFFFFFFFFFFFFFFFFFFF AND DUP4 PUSH20 0xFFFFFFFFFFFFFFFFFFFFFFFFFFFFFFFFFFFFFFFF AND SUB PUSH2 0xE04 JUMPI PUSH1 0x40 MLOAD PUSH32 0x8C379A000000000000000000000000000000000000000000000000000000000 DUP2 MSTORE PUSH1 0x4 ADD PUSH2 0xDFB SWAP1 PUSH2 0x1DE1 JUMP JUMPDEST PUSH1 0x40 MLOAD DUP1 SWAP2 SUB SWAP1 REVERT JUMPDEST PUSH0 PUSH20 0xFFFFFFFFFFFFFFFFFFFFFFFFFFFFFFFFFFFFFFFF AND DUP3 PUSH20 0xFFFFFFFFFFFFFFFFFFFFFFFFFFFFFFFFFFFFFFFF AND SUB PUSH2 0xE72 JUMPI PUSH1 0x40 MLOAD PUSH32 0x8C379A000000000000000000000000000000000000000000000000000000000 DUP2 MSTORE PUSH1 0x4 ADD PUSH2 0xE69 SWAP1 PUSH2 0x1E6F JUMP JUMPDEST PUSH1 0x40 MLOAD DUP1 SWAP2 SUB SWAP1 REVERT JUMPDEST PUSH2 0xE7D DUP4 DUP4 DUP4 PUSH2 0x1454 JUMP JUMPDEST PUSH0 DUP1 PUSH0 DUP6 PUSH20 0xFFFFFFFFFFFFFFFFFFFFFFFFFFFFFFFFFFFFFFFF AND PUSH20 0xFFFFFFFFFFFFFFFFFFFFFFFFFFFFFFFFFFFFFFFF AND DUP2 MSTORE PUSH1 0x20 ADD SWAP1 DUP2 MSTORE PUSH1 0x20 ADD PUSH0 KECCAK256 SLOAD SWAP1 POP DUP2 DUP2 LT ISZERO PUSH2 0xF00 JUMPI PUSH1 0x40 MLOAD PUSH32 0x8C379A000000000000000000000000000000000000000000000000000000000 DUP2 MSTORE PUSH1 0x4 ADD PUSH2 0xEF7 SWAP1 PUSH2 0x1EFD JUMP JUMPDEST PUSH1 0x40 MLOAD DUP1 SWAP2 SUB SWAP1 REVERT JUMPDEST DUP2 DUP2 SUB PUSH0 DUP1 DUP7 PUSH20 0xFFFFFFFFFFFFFFFFFFFFFFFFFFFFFFFFFFFFFFFF AND PUSH20 0xFFFFFFFFFFFFFFFFFFFFFFFFFFFFFFFFFFFFFFFF AND DUP2 MSTORE PUSH1 0x20 ADD SWAP1 DUP2 MSTORE PUSH1 0x20 ADD PUSH0 KECCAK256 DUP2 SWAP1 SSTORE POP DUP2 PUSH0 DUP1 DUP6 PUSH20 0xFFFFFFFFFFFFFFFFFFFFFFFFFFFFFFFFFFFFFFFF AND PUSH20 0xFFFFFFFFFFFFFFFFFFFFFFFFFFFFFFFFFFFFFFFF AND DUP2 MSTORE PUSH1 0x20 ADD SWAP1 DUP2 MSTORE PUSH1 0x20 ADD PUSH0 KECCAK256 PUSH0 DUP3 DUP3 SLOAD ADD SWAP3 POP POP DUP2 SWAP1 SSTORE POP DUP3 PUSH20 0xFFFFFFFFFFFFFFFFFFFFFFFFFFFFFFFFFFFFFFFF AND DUP5 PUSH20 0xFFFFFFFFFFFFFFFFFFFFFFFFFFFFFFFFFFFFFFFF AND PUSH32 0xDDF252AD1BE2C89B69C2B068FC378DAA952BA7F163C4A11628F55A4DF523B3EF DUP5 PUSH1 0x40 MLOAD PUSH2 0xFE9 SWAP2 SWAP1 PUSH2 0x15FF JUMP JUMPDEST PUSH1 0x40 MLOAD DUP1 SWAP2 SUB SWAP1 LOG3 PUSH2 0xFFC DUP5 DUP5 DUP5 PUSH2 0x1459 JUMP JUMPDEST POP POP POP POP JUMP JUMPDEST PUSH0 PUSH20 0xFFFFFFFFFFFFFFFFFFFFFFFFFFFFFFFFFFFFFFFF AND DUP3 PUSH20 0xFFFFFFFFFFFFFFFFFFFFFFFFFFFFFFFFFFFFFFFF AND SUB PUSH2 0x1070 JUMPI PUSH1 0x40 MLOAD PUSH32 0x8C379A000000000000000000000000000000000000000000000000000000000 DUP2 MSTORE PUSH1 0x4 ADD PUSH2 0x1067 SWAP1 PUSH2 0x1F8B JUMP JUMPDEST PUSH1 0x40 MLOAD DUP1 SWAP2 SUB SWAP1 REVERT JUMPDEST PUSH2 0x107B DUP3 PUSH0 DUP4 PUSH2 0x1454 JUMP JUMPDEST PUSH0 DUP1 PUSH0 DUP5 PUSH20 0xFFFFFFFFFFFFFFFFFFFFFFFFFFFFFFFFFFFFFFFF AND PUSH20 0xFFFFFFFFFFFFFFFFFFFFFFFFFFFFFFFFFFFFFFFF AND DUP2 MSTORE PUSH1 0x20 ADD SWAP1 DUP2 MSTORE PUSH1 0x20 ADD PUSH0 KECCAK256 SLOAD SWAP1 POP DUP2 DUP2 LT ISZERO PUSH2 0x10FE JUMPI PUSH1 0x40 MLOAD PUSH32 0x8C379A000000000000000000000000000000000000000000000000000000000 DUP2 MSTORE PUSH1 0x4 ADD PUSH2 0x10F5 SWAP1 PUSH2 0x2019 JUMP JUMPDEST PUSH1 0x40 MLOAD DUP1 SWAP2 SUB SWAP1 REVERT JUMPDEST DUP2 DUP2 SUB PUSH0 DUP1 DUP6 PUSH20 0xFFFFFFFFFFFFFFFFFFFFFFFFFFFFFFFFFFFFFFFF AND PUSH20 0xFFFFFFFFFFFFFFFFFFFFFFFFFFFFFFFFFFFFFFFF AND DUP2 MSTORE PUSH1 0x20 ADD SWAP1 DUP2 MSTORE PUSH1 0x20 ADD PUSH0 KECCAK256 DUP2 SWAP1 SSTORE POP DUP2 PUSH1 0x2 PUSH0 DUP3 DUP3 SLOAD SUB SWAP3 POP POP DUP2 SWAP1 SSTORE POP PUSH0 PUSH20 0xFFFFFFFFFFFFFFFFFFFFFFFFFFFFFFFFFFFFFFFF AND DUP4 PUSH20 0xFFFFFFFFFFFFFFFFFFFFFFFFFFFFFFFFFFFFFFFF AND PUSH32 0xDDF252AD1BE2C89B69C2B068FC378DAA952BA7F163C4A11628F55A4DF523B3EF DUP5 PUSH1 0x40 MLOAD PUSH2 0x11AD SWAP2 SWAP1 PUSH2 0x15FF JUMP JUMPDEST PUSH1 0x40 MLOAD DUP1 SWAP2 SUB SWAP1 LOG3 PUSH2 0x11C0 DUP4 PUSH0 DUP5 PUSH2 0x1459 JUMP JUMPDEST POP POP POP JUMP JUMPDEST PUSH2 0x11CD PUSH2 0xB41 JUMP JUMPDEST PUSH20 0xFFFFFFFFFFFFFFFFFFFFFFFFFFFFFFFFFFFFFFFF AND PUSH2 0x11EB PUSH2 0x708 JUMP JUMPDEST PUSH20 0xFFFFFFFFFFFFFFFFFFFFFFFFFFFFFFFFFFFFFFFF AND EQ PUSH2 0x1241 JUMPI PUSH1 0x40 MLOAD PUSH32 0x8C379A000000000000000000000000000000000000000000000000000000000 DUP2 MSTORE PUSH1 0x4 ADD PUSH2 0x1238 SWAP1 PUSH2 0x2081 JUMP JUMPDEST PUSH1 0x40 MLOAD DUP1 SWAP2 SUB SWAP1 REVERT JUMPDEST JUMP JUMPDEST PUSH0 PUSH1 0x5 PUSH0 SWAP1 SLOAD SWAP1 PUSH2 0x100 EXP SWAP1 DIV PUSH20 0xFFFFFFFFFFFFFFFFFFFFFFFFFFFFFFFFFFFFFFFF AND SWAP1 POP DUP2 PUSH1 0x5 PUSH0 PUSH2 0x100 EXP DUP2 SLOAD DUP2 PUSH20 0xFFFFFFFFFFFFFFFFFFFFFFFFFFFFFFFFFFFFFFFF MUL NOT AND SWAP1 DUP4 PUSH20 0xFFFFFFFFFFFFFFFFFFFFFFFFFFFFFFFFFFFFFFFF AND MUL OR SWAP1 SSTORE POP DUP2 PUSH20 0xFFFFFFFFFFFFFFFFFFFFFFFFFFFFFFFFFFFFFFFF AND DUP2 PUSH20 0xFFFFFFFFFFFFFFFFFFFFFFFFFFFFFFFFFFFFFFFF AND PUSH32 0x8BE0079C531659141344CD1FD0A4F28419497F9722A3DAAFE3B4186F6B6457E0 PUSH1 0x40 MLOAD PUSH1 0x40 MLOAD DUP1 SWAP2 SUB SWAP1 LOG3 POP POP JUMP JUMPDEST PUSH0 PUSH20 0xFFFFFFFFFFFFFFFFFFFFFFFFFFFFFFFFFFFFFFFF AND DUP3 PUSH20 0xFFFFFFFFFFFFFFFFFFFFFFFFFFFFFFFFFFFFFFFF AND SUB PUSH2 0x1374 JUMPI PUSH1 0x40 MLOAD PUSH32 0x8C379A000000000000000000000000000000000000000000000000000000000 DUP2 MSTORE PUSH1 0x4 ADD PUSH2 0x136B SWAP1 PUSH2 0x20E9 JUMP JUMPDEST PUSH1 0x40 MLOAD DUP1 SWAP2 SUB SWAP1 REVERT JUMPDEST PUSH2 0x137F PUSH0 DUP4 DUP4 PUSH2 0x1454 JUMP JUMPDEST DUP1 PUSH1 0x2 PUSH0 DUP3 DUP3 SLOAD PUSH2 0x1390 SWAP2 SWAP1 PUSH2 0x18A5 JUMP JUMPDEST SWAP3 POP POP DUP2 SWAP1 SSTORE POP DUP1 PUSH0 DUP1 DUP5 PUSH20 0xFFFFFFFFFFFFFFFFFFFFFFFFFFFFFFFFFFFFFFFF AND PUSH20 0xFFFFFFFFFFFFFFFFFFFFFFFFFFFFFFFFFFFFFFFF AND DUP2 MSTORE PUSH1 0x20 ADD SWAP1 DUP2 MSTORE PUSH1 0x20 ADD PUSH0 KECCAK256 PUSH0 DUP3 DUP3 SLOAD ADD SWAP3 POP POP DUP2 SWAP1 SSTORE POP DUP2 PUSH20 0xFFFFFFFFFFFFFFFFFFFFFFFFFFFFFFFFFFFFFFFF AND PUSH0 PUSH20 0xFFFFFFFFFFFFFFFFFFFFFFFFFFFFFFFFFFFFFFFF AND PUSH32 0xDDF252AD1BE2C89B69C2B068FC378DAA952BA7F163C4A11628F55A4DF523B3EF DUP4 PUSH1 0x40 MLOAD PUSH2 0x143D SWAP2 SWAP1 PUSH2 0x15FF JUMP JUMPDEST PUSH1 0x40 MLOAD DUP1 SWAP2 SUB SWAP1 LOG3 PUSH2 0x1450 PUSH0 DUP4 DUP4 PUSH2 0x1459 JUMP JUMPDEST POP POP JUMP JUMPDEST POP POP POP JUMP JUMPDEST POP POP POP JUMP JUMPDEST PUSH0 DUP2 MLOAD SWAP1 POP SWAP2 SWAP1 POP JUMP JUMPDEST PUSH0 DUP3 DUP3 MSTORE PUSH1 0x20 DUP3 ADD SWAP1 POP SWAP3 SWAP2 POP POP JUMP JUMPDEST DUP3 DUP2 DUP4 MCOPY PUSH0 DUP4 DUP4 ADD MSTORE POP POP POP JUMP JUMPDEST PUSH0 PUSH1 0x1F NOT PUSH1 0x1F DUP4 ADD AND SWAP1 POP SWAP2 SWAP1 POP JUMP JUMPDEST PUSH0 PUSH2 0x14A0 DUP3 PUSH2 0x145E JUMP JUMPDEST PUSH2 0x14AA DUP2 DUP6 PUSH2 0x1468 JUMP JUMPDEST SWAP4 POP PUSH2 0x14BA DUP2 DUP6 PUSH1 0x20 DUP7 ADD PUSH2 0x1478 JUMP JUMPDEST PUSH2 0x14C3 DUP2 PUSH2 0x1486 JUMP JUMPDEST DUP5 ADD SWAP2 POP POP SWAP3 SWAP2 POP POP JUMP JUMPDEST PUSH0 PUSH1 0x20 DUP3 ADD SWAP1 POP DUP2 DUP2 SUB PUSH0 DUP4 ADD MSTORE PUSH2 0x14E6 DUP2 DUP5 PUSH2 0x1496 JUMP JUMPDEST SWAP1 POP SWAP3 SWAP2 POP POP JUMP JUMPDEST PUSH0 DUP1 REVERT JUMPDEST PUSH0 PUSH20 0xFFFFFFFFFFFFFFFFFFFFFFFFFFFFFFFFFFFFFFFF DUP3 AND SWAP1 POP SWAP2 SWAP1 POP JUMP JUMPDEST PUSH0 PUSH2 0x151B DUP3 PUSH2 0x14F2 JUMP JUMPDEST SWAP1 POP SWAP2 SWAP1 POP JUMP JUMPDEST PUSH2 0x152B DUP2 PUSH2 0x1511 JUMP JUMPDEST DUP2 EQ PUSH2 0x1535 JUMPI PUSH0 DUP1 REVERT JUMPDEST POP JUMP JUMPDEST PUSH0 DUP2 CALLDATALOAD SWAP1 POP PUSH2 0x1546 DUP2 PUSH2 0x1522 JUMP JUMPDEST SWAP3 SWAP2 POP POP JUMP JUMPDEST PUSH0 DUP2 SWAP1 POP SWAP2 SWAP1 POP JUMP JUMPDEST PUSH2 0x155E DUP2 PUSH2 0x154C JUMP JUMPDEST DUP2 EQ PUSH2 0x1568 JUMPI PUSH0 DUP1 REVERT JUMPDEST POP JUMP JUMPDEST PUSH0 DUP2 CALLDATALOAD SWAP1 POP PUSH2 0x1579 DUP2 PUSH2 0x1555 JUMP JUMPDEST SWAP3 SWAP2 POP POP JUMP JUMPDEST PUSH0 DUP1 PUSH1 0x40 DUP4 DUP6 SUB SLT ISZERO PUSH2 0x1595 JUMPI PUSH2 0x1594 PUSH2 0x14EE JUMP JUMPDEST JUMPDEST PUSH0 PUSH2 0x15A2 DUP6 DUP3 DUP7 ADD PUSH2 0x1538 JUMP JUMPDEST SWAP3 POP POP PUSH1 0x20 PUSH2 0x15B3 DUP6 DUP3 DUP7 ADD PUSH2 0x156B JUMP JUMPDEST SWAP2 POP POP SWAP3 POP SWAP3 SWAP1 POP JUMP JUMPDEST PUSH0 DUP2 ISZERO ISZERO SWAP1 POP SWAP2 SWAP1 POP JUMP JUMPDEST PUSH2 0x15D1 DUP2 PUSH2 0x15BD JUMP JUMPDEST DUP3 MSTORE POP POP JUMP JUMPDEST PUSH0 PUSH1 0x20 DUP3 ADD SWAP1 POP PUSH2 0x15EA PUSH0 DUP4 ADD DUP5 PUSH2 0x15C8 JUMP JUMPDEST SWAP3 SWAP2 POP POP JUMP JUMPDEST PUSH2 0x15F9 DUP2 PUSH2 0x154C JUMP JUMPDEST DUP3 MSTORE POP POP JUMP JUMPDEST PUSH0 PUSH1 0x20 DUP3 ADD SWAP1 POP PUSH2 0x1612 PUSH0 DUP4 ADD DUP5 PUSH2 0x15F0 JUMP JUMPDEST SWAP3 SWAP2 POP POP JUMP JUMPDEST PUSH0 DUP1 PUSH0 PUSH1 0x60 DUP5 DUP7 SUB SLT ISZERO PUSH2 0x162F JUMPI PUSH2 0x162E PUSH2 0x14EE JUMP JUMPDEST JUMPDEST PUSH0 PUSH2 0x163C DUP7 DUP3 DUP8 ADD PUSH2 0x1538 JUMP JUMPDEST SWAP4 POP POP PUSH1 0x20 PUSH2 0x164D DUP7 DUP3 DUP8 ADD PUSH2 0x1538 JUMP JUMPDEST SWAP3 POP POP PUSH1 0x40 PUSH2 0x165E DUP7 DUP3 DUP8 ADD PUSH2 0x156B JUMP JUMPDEST SWAP2 POP POP SWAP3 POP SWAP3 POP SWAP3 JUMP JUMPDEST PUSH0 PUSH1 0x20 DUP3 DUP5 SUB SLT ISZERO PUSH2 0x167D JUMPI PUSH2 0x167C PUSH2 0x14EE JUMP JUMPDEST JUMPDEST PUSH0 PUSH2 0x168A DUP5 DUP3 DUP6 ADD PUSH2 0x156B JUMP JUMPDEST SWAP2 POP POP SWAP3 SWAP2 POP POP JUMP JUMPDEST PUSH0 PUSH1 0x40 DUP3 ADD SWAP1 POP DUP2 DUP2 SUB PUSH0 DUP4 ADD MSTORE PUSH2 0x16AB DUP2 DUP6 PUSH2 0x1496 JUMP JUMPDEST SWAP1 POP PUSH2 0x16BA PUSH1 0x20 DUP4 ADD DUP5 PUSH2 0x15F0 JUMP JUMPDEST SWAP4 SWAP3 POP POP POP JUMP JUMPDEST PUSH0 PUSH1 0xFF DUP3 AND SWAP1 POP SWAP2 SWAP1 POP JUMP JUMPDEST PUSH2 0x16D6 DUP2 PUSH2 0x16C1 JUMP JUMPDEST DUP3 MSTORE POP POP JUMP JUMPDEST PUSH0 PUSH1 0x20 DUP3 ADD SWAP1 POP PUSH2 0x16EF PUSH0 DUP4 ADD DUP5 PUSH2 0x16CD JUMP JUMPDEST SWAP3 SWAP2 POP POP JUMP JUMPDEST PUSH0 PUSH1 0x20 DUP3 DUP5 SUB SLT ISZERO PUSH2 0x170A JUMPI PUSH2 0x1709 PUSH2 0x14EE JUMP JUMPDEST JUMPDEST PUSH0 PUSH2 0x1717 DUP5 DUP3 DUP6 ADD PUSH2 0x1538 JUMP JUMPDEST SWAP2 POP POP SWAP3 SWAP2 POP POP JUMP JUMPDEST PUSH2 0x1729 DUP2 PUSH2 0x1511 JUMP JUMPDEST DUP3 MSTORE POP POP JUMP JUMPDEST PUSH0 PUSH1 0x20 DUP3 ADD SWAP1 POP PUSH2 0x1742 PUSH0 DUP4 ADD DUP5 PUSH2 0x1720 JUMP JUMPDEST SWAP3 SWAP2 POP POP JUMP JUMPDEST PUSH0 DUP1 PUSH1 0x40 DUP4 DUP6 SUB SLT ISZERO PUSH2 0x175E JUMPI PUSH2 0x175D PUSH2 0x14EE JUMP JUMPDEST JUMPDEST PUSH0 PUSH2 0x176B DUP6 DUP3 DUP7 ADD PUSH2 0x1538 JUMP JUMPDEST SWAP3 POP POP PUSH1 0x20 PUSH2 0x177C DUP6 DUP3 DUP7 ADD PUSH2 0x1538 JUMP JUMPDEST SWAP2 POP POP SWAP3 POP SWAP3 SWAP1 POP JUMP JUMPDEST PUSH32 0x4E487B7100000000000000000000000000000000000000000000000000000000 PUSH0 MSTORE PUSH1 0x22 PUSH1 0x4 MSTORE PUSH1 0x24 PUSH0 REVERT JUMPDEST PUSH0 PUSH1 0x2 DUP3 DIV SWAP1 POP PUSH1 0x1 DUP3 AND DUP1 PUSH2 0x17CA JUMPI PUSH1 0x7F DUP3 AND SWAP2 POP JUMPDEST PUSH1 0x20 DUP3 LT DUP2 SUB PUSH2 0x17DD JUMPI PUSH2 0x17DC PUSH2 0x1786 JUMP JUMPDEST JUMPDEST POP SWAP2 SWAP1 POP JUMP JUMPDEST PUSH32 0x4974656D20696E646578206F7574206F6620626F756E64730000000000000000 PUSH0 DUP3 ADD MSTORE POP JUMP JUMPDEST PUSH0 PUSH2 0x1817 PUSH1 0x18 DUP4 PUSH2 0x1468 JUMP JUMPDEST SWAP2 POP PUSH2 0x1822 DUP3 PUSH2 0x17E3 JUMP JUMPDEST PUSH1 0x20 DUP3 ADD SWAP1 POP SWAP2 SWAP1 POP JUMP JUMPDEST PUSH0 PUSH1 0x20 DUP3 ADD SWAP1 POP DUP2 DUP2 SUB PUSH0 DUP4 ADD MSTORE PUSH2 0x1844 DUP2 PUSH2 0x180B JUMP JUMPDEST SWAP1 POP SWAP2 SWAP1 POP JUMP JUMPDEST PUSH32 0x4E487B7100000000000000000000000000000000000000000000000000000000 PUSH0 MSTORE PUSH1 0x32 PUSH1 0x4 MSTORE PUSH1 0x24 PUSH0 REVERT JUMPDEST PUSH32 0x4E487B7100000000000000000000000000000000000000000000000000000000 PUSH0 MSTORE PUSH1 0x11 PUSH1 0x4 MSTORE PUSH1 0x24 PUSH0 REVERT JUMPDEST PUSH0 PUSH2 0x18AF DUP3 PUSH2 0x154C JUMP JUMPDEST SWAP2 POP PUSH2 0x18BA DUP4 PUSH2 0x154C JUMP JUMPDEST SWAP3 POP DUP3 DUP3 ADD SWAP1 POP DUP1 DUP3 GT ISZERO PUSH2 0x18D2 JUMPI PUSH2 0x18D1 PUSH2 0x1878 JUMP JUMPDEST JUMPDEST SWAP3 SWAP2 POP POP JUMP JUMPDEST PUSH32 0x416D6F756E742073686F756C642062652067726561746572207468616E203130 PUSH0 DUP3 ADD MSTORE POP JUMP JUMPDEST PUSH0 PUSH2 0x190C PUSH1 0x20 DUP4 PUSH2 0x1468 JUMP JUMPDEST SWAP2 POP PUSH2 0x1917 DUP3 PUSH2 0x18D8 JUMP JUMPDEST PUSH1 0x20 DUP3 ADD SWAP1 POP SWAP2 SWAP1 POP JUMP JUMPDEST PUSH0 PUSH1 0x20 DUP3 ADD SWAP1 POP DUP2 DUP2 SUB PUSH0 DUP4 ADD MSTORE PUSH2 0x1939 DUP2 PUSH2 0x1900 JUMP JUMPDEST SWAP1 POP SWAP2 SWAP1 POP JUMP JUMPDEST PUSH32 0x496E73756666696369656E742062616C616E636520746F206275726E00000000 PUSH0 DUP3 ADD MSTORE POP JUMP JUMPDEST PUSH0 PUSH2 0x1974 PUSH1 0x1C DUP4 PUSH2 0x1468 JUMP JUMPDEST SWAP2 POP PUSH2 0x197F DUP3 PUSH2 0x1940 JUMP JUMPDEST PUSH1 0x20 DUP3 ADD SWAP1 POP SWAP2 SWAP1 POP JUMP JUMPDEST PUSH0 PUSH1 0x20 DUP3 ADD SWAP1 POP DUP2 DUP2 SUB PUSH0 DUP4 ADD MSTORE PUSH2 0x19A1 DUP2 PUSH2 0x1968 JUMP JUMPDEST SWAP1 POP SWAP2 SWAP1 POP JUMP JUMPDEST PUSH32 0x45524332303A2064656372656173656420616C6C6F77616E63652062656C6F77 PUSH0 DUP3 ADD MSTORE PUSH32 0x207A65726F000000000000000000000000000000000000000000000000000000 PUSH1 0x20 DUP3 ADD MSTORE POP JUMP JUMPDEST PUSH0 PUSH2 0x1A02 PUSH1 0x25 DUP4 PUSH2 0x1468 JUMP JUMPDEST SWAP2 POP PUSH2 0x1A0D DUP3 PUSH2 0x19A8 JUMP JUMPDEST PUSH1 0x40 DUP3 ADD SWAP1 POP SWAP2 SWAP1 POP JUMP JUMPDEST PUSH0 PUSH1 0x20 DUP3 ADD SWAP1 POP DUP2 DUP2 SUB PUSH0 DUP4 ADD MSTORE PUSH2 0x1A2F DUP2 PUSH2 0x19F6 JUMP JUMPDEST SWAP1 POP SWAP2 SWAP1 POP JUMP JUMPDEST PUSH32 0x496E73756666696369656E742062616C616E636520746F20627579206974656D PUSH0 DUP3 ADD MSTORE POP JUMP JUMPDEST PUSH0 PUSH2 0x1A6A PUSH1 0x20 DUP4 PUSH2 0x1468 JUMP JUMPDEST SWAP2 POP PUSH2 0x1A75 DUP3 PUSH2 0x1A36 JUMP JUMPDEST PUSH1 0x20 DUP3 ADD SWAP1 POP SWAP2 SWAP1 POP JUMP JUMPDEST PUSH0 PUSH1 0x20 DUP3 ADD SWAP1 POP DUP2 DUP2 SUB PUSH0 DUP4 ADD MSTORE PUSH2 0x1A97 DUP2 PUSH2 0x1A5E JUMP JUMPDEST SWAP1 POP SWAP2 SWAP1 POP JUMP JUMPDEST PUSH0 DUP2 SWAP1 POP DUP2 PUSH0 MSTORE PUSH1 0x20 PUSH0 KECCAK256 SWAP1 POP SWAP2 SWAP1 POP JUMP JUMPDEST PUSH0 DUP2 SLOAD PUSH2 0x1ABC DUP2 PUSH2 0x17B3 JUMP JUMPDEST PUSH2 0x1AC6 DUP2 DUP7 PUSH2 0x1468 JUMP JUMPDEST SWAP5 POP PUSH1 0x1 DUP3 AND PUSH0 DUP2 EQ PUSH2 0x1AE0 JUMPI PUSH1 0x1 DUP2 EQ PUSH2 0x1AF6 JUMPI PUSH2 0x1B28 JUMP JUMPDEST PUSH1 0xFF NOT DUP4 AND DUP7 MSTORE DUP2 ISZERO ISZERO PUSH1 0x20 MUL DUP7 ADD SWAP4 POP PUSH2 0x1B28 JUMP JUMPDEST PUSH2 0x1AFF DUP6 PUSH2 0x1A9E JUMP JUMPDEST PUSH0 JUMPDEST DUP4 DUP2 LT ISZERO PUSH2 0x1B20 JUMPI DUP2 SLOAD DUP2 DUP10 ADD MSTORE PUSH1 0x1 DUP3 ADD SWAP2 POP PUSH1 0x20 DUP2 ADD SWAP1 POP PUSH2 0x1B01 JUMP JUMPDEST DUP1 DUP9 ADD SWAP6 POP POP POP JUMPDEST POP POP POP SWAP3 SWAP2 POP POP JUMP JUMPDEST PUSH0 PUSH1 0x40 DUP3 ADD SWAP1 POP DUP2 DUP2 SUB PUSH0 DUP4 ADD MSTORE PUSH2 0x1B49 DUP2 DUP6 PUSH2 0x1AB0 JUMP JUMPDEST SWAP1 POP PUSH2 0x1B58 PUSH1 0x20 DUP4 ADD DUP5 PUSH2 0x15F0 JUMP JUMPDEST SWAP4 SWAP3 POP POP POP JUMP JUMPDEST PUSH32 0x4F776E61626C653A206E6577206F776E657220697320746865207A65726F2061 PUSH0 DUP3 ADD MSTORE PUSH32 0x6464726573730000000000000000000000000000000000000000000000000000 PUSH1 0x20 DUP3 ADD MSTORE POP JUMP JUMPDEST PUSH0 PUSH2 0x1BB9 PUSH1 0x26 DUP4 PUSH2 0x1468 JUMP JUMPDEST SWAP2 POP PUSH2 0x1BC4 DUP3 PUSH2 0x1B5F JUMP JUMPDEST PUSH1 0x40 DUP3 ADD SWAP1 POP SWAP2 SWAP1 POP JUMP JUMPDEST PUSH0 PUSH1 0x20 DUP3 ADD SWAP1 POP DUP2 DUP2 SUB PUSH0 DUP4 ADD MSTORE PUSH2 0x1BE6 DUP2 PUSH2 0x1BAD JUMP JUMPDEST SWAP1 POP SWAP2 SWAP1 POP JUMP JUMPDEST PUSH32 0x45524332303A20617070726F76652066726F6D20746865207A65726F20616464 PUSH0 DUP3 ADD MSTORE PUSH32 0x7265737300000000000000000000000000000000000000000000000000000000 PUSH1 0x20 DUP3 ADD MSTORE POP JUMP JUMPDEST PUSH0 PUSH2 0x1C47 PUSH1 0x24 DUP4 PUSH2 0x1468 JUMP JUMPDEST SWAP2 POP PUSH2 0x1C52 DUP3 PUSH2 0x1BED JUMP JUMPDEST PUSH1 0x40 DUP3 ADD SWAP1 POP SWAP2 SWAP1 POP JUMP JUMPDEST PUSH0 PUSH1 0x20 DUP3 ADD SWAP1 POP DUP2 DUP2 SUB PUSH0 DUP4 ADD MSTORE PUSH2 0x1C74 DUP2 PUSH2 0x1C3B JUMP JUMPDEST SWAP1 POP SWAP2 SWAP1 POP JUMP JUMPDEST PUSH32 0x45524332303A20617070726F766520746F20746865207A65726F206164647265 PUSH0 DUP3 ADD MSTORE PUSH32 0x7373000000000000000000000000000000000000000000000000000000000000 PUSH1 0x20 DUP3 ADD MSTORE POP JUMP JUMPDEST PUSH0 PUSH2 0x1CD5 PUSH1 0x22 DUP4 PUSH2 0x1468 JUMP JUMPDEST SWAP2 POP PUSH2 0x1CE0 DUP3 PUSH2 0x1C7B JUMP JUMPDEST PUSH1 0x40 DUP3 ADD SWAP1 POP SWAP2 SWAP1 POP JUMP JUMPDEST PUSH0 PUSH1 0x20 DUP3 ADD SWAP1 POP DUP2 DUP2 SUB PUSH0 DUP4 ADD MSTORE PUSH2 0x1D02 DUP2 PUSH2 0x1CC9 JUMP JUMPDEST SWAP1 POP SWAP2 SWAP1 POP JUMP JUMPDEST PUSH32 0x45524332303A20696E73756666696369656E7420616C6C6F77616E6365000000 PUSH0 DUP3 ADD MSTORE POP JUMP JUMPDEST PUSH0 PUSH2 0x1D3D PUSH1 0x1D DUP4 PUSH2 0x1468 JUMP JUMPDEST SWAP2 POP PUSH2 0x1D48 DUP3 PUSH2 0x1D09 JUMP JUMPDEST PUSH1 0x20 DUP3 ADD SWAP1 POP SWAP2 SWAP1 POP JUMP JUMPDEST PUSH0 PUSH1 0x20 DUP3 ADD SWAP1 POP DUP2 DUP2 SUB PUSH0 DUP4 ADD MSTORE PUSH2 0x1D6A DUP2 PUSH2 0x1D31 JUMP JUMPDEST SWAP1 POP SWAP2 SWAP1 POP JUMP JUMPDEST PUSH32 0x45524332303A207472616E736665722066726F6D20746865207A65726F206164 PUSH0 DUP3 ADD MSTORE PUSH32 0x6472657373000000000000000000000000000000000000000000000000000000 PUSH1 0x20 DUP3 ADD MSTORE POP JUMP JUMPDEST PUSH0 PUSH2 0x1DCB PUSH1 0x25 DUP4 PUSH2 0x1468 JUMP JUMPDEST SWAP2 POP PUSH2 0x1DD6 DUP3 PUSH2 0x1D71 JUMP JUMPDEST PUSH1 0x40 DUP3 ADD SWAP1 POP SWAP2 SWAP1 POP JUMP JUMPDEST PUSH0 PUSH1 0x20 DUP3 ADD SWAP1 POP DUP2 DUP2 SUB PUSH0 DUP4 ADD MSTORE PUSH2 0x1DF8 DUP2 PUSH2 0x1DBF JUMP JUMPDEST SWAP1 POP SWAP2 SWAP1 POP JUMP JUMPDEST PUSH32 0x45524332303A207472616E7366657220746F20746865207A65726F2061646472 PUSH0 DUP3 ADD MSTORE PUSH32 0x6573730000000000000000000000000000000000000000000000000000000000 PUSH1 0x20 DUP3 ADD MSTORE POP JUMP JUMPDEST PUSH0 PUSH2 0x1E59 PUSH1 0x23 DUP4 PUSH2 0x1468 JUMP JUMPDEST SWAP2 POP PUSH2 0x1E64 DUP3 PUSH2 0x1DFF JUMP JUMPDEST PUSH1 0x40 DUP3 ADD SWAP1 POP SWAP2 SWAP1 POP JUMP JUMPDEST PUSH0 PUSH1 0x20 DUP3 ADD SWAP1 POP DUP2 DUP2 SUB PUSH0 DUP4 ADD MSTORE PUSH2 0x1E86 DUP2 PUSH2 0x1E4D JUMP JUMPDEST SWAP1 POP SWAP2 SWAP1 POP JUMP JUMPDEST PUSH32 0x45524332303A207472616E7366657220616D6F756E7420657863656564732062 PUSH0 DUP3 ADD MSTORE PUSH32 0x616C616E63650000000000000000000000000000000000000000000000000000 PUSH1 0x20 DUP3 ADD MSTORE POP JUMP JUMPDEST PUSH0 PUSH2 0x1EE7 PUSH1 0x26 DUP4 PUSH2 0x1468 JUMP JUMPDEST SWAP2 POP PUSH2 0x1EF2 DUP3 PUSH2 0x1E8D JUMP JUMPDEST PUSH1 0x40 DUP3 ADD SWAP1 POP SWAP2 SWAP1 POP JUMP JUMPDEST PUSH0 PUSH1 0x20 DUP3 ADD SWAP1 POP DUP2 DUP2 SUB PUSH0 DUP4 ADD MSTORE PUSH2 0x1F14 DUP2 PUSH2 0x1EDB JUMP JUMPDEST SWAP1 POP SWAP2 SWAP1 POP JUMP JUMPDEST PUSH32 0x45524332303A206275726E2066726F6D20746865207A65726F20616464726573 PUSH0 DUP3 ADD MSTORE PUSH32 0x7300000000000000000000000000000000000000000000000000000000000000 PUSH1 0x20 DUP3 ADD MSTORE POP JUMP JUMPDEST PUSH0 PUSH2 0x1F75 PUSH1 0x21 DUP4 PUSH2 0x1468 JUMP JUMPDEST SWAP2 POP PUSH2 0x1F80 DUP3 PUSH2 0x1F1B JUMP JUMPDEST PUSH1 0x40 DUP3 ADD SWAP1 POP SWAP2 SWAP1 POP JUMP JUMPDEST PUSH0 PUSH1 0x20 DUP3 ADD SWAP1 POP DUP2 DUP2 SUB PUSH0 DUP4 ADD MSTORE PUSH2 0x1FA2 DUP2 PUSH2 0x1F69 JUMP JUMPDEST SWAP1 POP SWAP2 SWAP1 POP JUMP JUMPDEST PUSH32 0x45524332303A206275726E20616D6F756E7420657863656564732062616C616E PUSH0 DUP3 ADD MSTORE PUSH32 0x6365000000000000000000000000000000000000000000000000000000000000 PUSH1 0x20 DUP3 ADD MSTORE POP JUMP JUMPDEST PUSH0 PUSH2 0x2003 PUSH1 0x22 DUP4 PUSH2 0x1468 JUMP JUMPDEST SWAP2 POP PUSH2 0x200E DUP3 PUSH2 0x1FA9 JUMP JUMPDEST PUSH1 0x40 DUP3 ADD SWAP1 POP SWAP2 SWAP1 POP JUMP JUMPDEST PUSH0 PUSH1 0x20 DUP3 ADD SWAP1 POP DUP2 DUP2 SUB PUSH0 DUP4 ADD MSTORE PUSH2 0x2030 DUP2 PUSH2 0x1FF7 JUMP JUMPDEST SWAP1 POP SWAP2 SWAP1 POP JUMP JUMPDEST PUSH32 0x4F776E61626C653A2063616C6C6572206973206E6F7420746865206F776E6572 PUSH0 DUP3 ADD MSTORE POP JUMP JUMPDEST PUSH0 PUSH2 0x206B PUSH1 0x20 DUP4 PUSH2 0x1468 JUMP JUMPDEST SWAP2 POP PUSH2 0x2076 DUP3 PUSH2 0x2037 JUMP JUMPDEST PUSH1 0x20 DUP3 ADD SWAP1 POP SWAP2 SWAP1 POP JUMP JUMPDEST PUSH0 PUSH1 0x20 DUP3 ADD SWAP1 POP DUP2 DUP2 SUB PUSH0 DUP4 ADD MSTORE PUSH2 0x2098 DUP2 PUSH2 0x205F JUMP JUMPDEST SWAP1 POP SWAP2 SWAP1 POP JUMP JUMPDEST PUSH32 0x45524332303A206D696E7420746F20746865207A65726F206164647265737300 PUSH0 DUP3 ADD MSTORE POP JUMP JUMPDEST PUSH0 PUSH2 0x20D3 PUSH1 0x1F DUP4 PUSH2 0x1468 JUMP JUMPDEST SWAP2 POP PUSH2 0x20DE DUP3 PUSH2 0x209F JUMP JUMPDEST PUSH1 0x20 DUP3 ADD SWAP1 POP SWAP2 SWAP1 POP JUMP JUMPDEST PUSH0 PUSH1 0x20 DUP3 ADD SWAP1 POP DUP2 DUP2 SUB PUSH0 DUP4 ADD MSTORE PUSH2 0x2100 DUP2 PUSH2 0x20C7 JUMP JUMPDEST SWAP1 POP SWAP2 SWAP1 POP JUMP INVALID LOG2 PUSH5 0x6970667358 0x22 SLT KECCAK256 0xED SWAP6 0xE3 0xD7 0x2F 0xE2 0xD8 POP 0x25 PUSH23 0x4200101287C5321143CD5E1D05F17389237CEECD1F9B64 PUSH20 0x6F6C634300081A00330000000000000000000000 "
				},
				"gasEstimates": {
					"creation": {
						"codeDepositCost": "1701800",
						"executionCost": "infinite",
						"totalCost": "infinite"
					},
					"external": {
						"allowance(address,address)": "infinite",
						"approve(address,uint256)": "infinite",
						"balanceOf(address)": "2940",
						"burn(uint256)": "infinite",
						"buyItem(uint256)": "infinite",
						"decimals()": "383",
						"decreaseAllowance(address,uint256)": "infinite",
						"getItem(uint256)": "infinite",
						"increaseAllowance(address,uint256)": "infinite",
						"items(uint256)": "infinite",
						"mint(uint256)": "infinite",
						"name()": "infinite",
						"owner()": "2560",
						"renounceOwnership()": "30413",
						"symbol()": "infinite",
						"totalSupply()": "2500",
						"transfer(address,uint256)": "infinite",
						"transferFrom(address,address,uint256)": "infinite",
						"transferOwnership(address)": "30841"
					},
					"internal": {
						"addItem(string memory,uint256)": "infinite"
					}
				},
				"methodIdentifiers": {
					"allowance(address,address)": "dd62ed3e",
					"approve(address,uint256)": "095ea7b3",
					"balanceOf(address)": "70a08231",
					"burn(uint256)": "42966c68",
					"buyItem(uint256)": "e7fb74c7",
					"decimals()": "313ce567",
					"decreaseAllowance(address,uint256)": "a457c2d7",
					"getItem(uint256)": "3129e773",
					"increaseAllowance(address,uint256)": "39509351",
					"items(uint256)": "bfb231d2",
					"mint(uint256)": "a0712d68",
					"name()": "06fdde03",
					"owner()": "8da5cb5b",
					"renounceOwnership()": "715018a6",
					"symbol()": "95d89b41",
					"totalSupply()": "18160ddd",
					"transfer(address,uint256)": "a9059cbb",
					"transferFrom(address,address,uint256)": "23b872dd",
					"transferOwnership(address)": "f2fde38b"
				}
			},
			"storageLayout": {
				"storage": [
					{
						"astId": 128,
						"contract": "contracts/DegenToken.sol:DegenToken",
						"label": "_balances",
						"offset": 0,
						"slot": "0",
						"type": "t_mapping(t_address,t_uint256)"
					},
					{
						"astId": 134,
						"contract": "contracts/DegenToken.sol:DegenToken",
						"label": "_allowances",
						"offset": 0,
						"slot": "1",
						"type": "t_mapping(t_address,t_mapping(t_address,t_uint256))"
					},
					{
						"astId": 136,
						"contract": "contracts/DegenToken.sol:DegenToken",
						"label": "_totalSupply",
						"offset": 0,
						"slot": "2",
						"type": "t_uint256"
					},
					{
						"astId": 138,
						"contract": "contracts/DegenToken.sol:DegenToken",
						"label": "_name",
						"offset": 0,
						"slot": "3",
						"type": "t_string_storage"
					},
					{
						"astId": 140,
						"contract": "contracts/DegenToken.sol:DegenToken",
						"label": "_symbol",
						"offset": 0,
						"slot": "4",
						"type": "t_string_storage"
					},
					{
						"astId": 7,
						"contract": "contracts/DegenToken.sol:DegenToken",
						"label": "_owner",
						"offset": 0,
						"slot": "5",
						"type": "t_address"
					},
					{
						"astId": 849,
						"contract": "contracts/DegenToken.sol:DegenToken",
						"label": "items",
						"offset": 0,
						"slot": "6",
						"type": "t_array(t_struct(Item)845_storage)dyn_storage"
					}
				],
				"types": {
					"t_address": {
						"encoding": "inplace",
						"label": "address",
						"numberOfBytes": "20"
					},
					"t_array(t_struct(Item)845_storage)dyn_storage": {
						"base": "t_struct(Item)845_storage",
						"encoding": "dynamic_array",
						"label": "struct DegenToken.Item[]",
						"numberOfBytes": "32"
					},
					"t_mapping(t_address,t_mapping(t_address,t_uint256))": {
						"encoding": "mapping",
						"key": "t_address",
						"label": "mapping(address => mapping(address => uint256))",
						"numberOfBytes": "32",
						"value": "t_mapping(t_address,t_uint256)"
					},
					"t_mapping(t_address,t_uint256)": {
						"encoding": "mapping",
						"key": "t_address",
						"label": "mapping(address => uint256)",
						"numberOfBytes": "32",
						"value": "t_uint256"
					},
					"t_string_storage": {
						"encoding": "bytes",
						"label": "string",
						"numberOfBytes": "32"
					},
					"t_struct(Item)845_storage": {
						"encoding": "inplace",
						"label": "struct DegenToken.Item",
						"members": [
							{
								"astId": 842,
								"contract": "contracts/DegenToken.sol:DegenToken",
								"label": "name",
								"offset": 0,
								"slot": "0",
								"type": "t_string_storage"
							},
							{
								"astId": 844,
								"contract": "contracts/DegenToken.sol:DegenToken",
								"label": "price",
								"offset": 0,
								"slot": "1",
								"type": "t_uint256"
							}
						],
						"numberOfBytes": "64"
					},
					"t_uint256": {
						"encoding": "inplace",
						"label": "uint256",
						"numberOfBytes": "32"
					}
				}
			},
			"userdoc": {
				"kind": "user",
				"methods": {},
				"version": 1
			}
		}
	}
}